{
  "address": "0x638B8Edff9B5976Ca8E8d9CD85252B2307cB37C4",
  "abi": [
    {
      "anonymous": false,
      "inputs": [
        {
          "indexed": true,
          "internalType": "address",
          "name": "executor",
          "type": "address"
        },
        {
          "indexed": false,
          "internalType": "uint256",
          "name": "at",
          "type": "uint256"
        }
      ],
      "name": "Initialized",
      "type": "event"
    },
    {
      "anonymous": false,
      "inputs": [
        {
          "indexed": true,
          "internalType": "address",
          "name": "user",
          "type": "address"
        },
        {
          "indexed": false,
          "internalType": "uint256",
          "name": "reward",
          "type": "uint256"
        }
      ],
      "name": "RewardAdded",
      "type": "event"
    },
    {
      "anonymous": false,
      "inputs": [
        {
          "indexed": true,
          "internalType": "address",
          "name": "user",
          "type": "address"
        },
        {
          "indexed": false,
          "internalType": "uint256",
          "name": "reward",
          "type": "uint256"
        }
      ],
      "name": "RewardPaid",
      "type": "event"
    },
    {
      "anonymous": false,
      "inputs": [
        {
          "indexed": true,
          "internalType": "address",
          "name": "user",
          "type": "address"
        },
        {
          "indexed": false,
          "internalType": "uint256",
          "name": "amount",
          "type": "uint256"
        }
      ],
      "name": "Staked",
      "type": "event"
    },
    {
      "anonymous": false,
      "inputs": [
        {
          "indexed": true,
          "internalType": "address",
          "name": "user",
          "type": "address"
        },
        {
          "indexed": false,
          "internalType": "uint256",
          "name": "amount",
          "type": "uint256"
        }
      ],
      "name": "Withdrawn",
      "type": "event"
    },
    {
      "inputs": [
        {
          "internalType": "uint256",
          "name": "amount",
          "type": "uint256"
        }
      ],
      "name": "allocateSeigniorage",
      "outputs": [],
      "stateMutability": "nonpayable",
      "type": "function"
    },
    {
      "inputs": [
        {
          "internalType": "address",
          "name": "account",
          "type": "address"
        }
      ],
      "name": "balanceOf",
      "outputs": [
        {
          "internalType": "uint256",
          "name": "",
          "type": "uint256"
        }
      ],
      "stateMutability": "view",
      "type": "function"
    },
    {
      "inputs": [
        {
          "internalType": "address",
          "name": "mason",
          "type": "address"
        }
      ],
      "name": "canClaimReward",
      "outputs": [
        {
          "internalType": "bool",
          "name": "",
          "type": "bool"
        }
      ],
      "stateMutability": "view",
      "type": "function"
    },
    {
      "inputs": [
        {
          "internalType": "address",
          "name": "mason",
          "type": "address"
        }
      ],
      "name": "canWithdraw",
      "outputs": [
        {
          "internalType": "bool",
          "name": "",
          "type": "bool"
        }
      ],
      "stateMutability": "view",
      "type": "function"
    },
    {
      "inputs": [],
      "name": "claimReward",
      "outputs": [],
      "stateMutability": "nonpayable",
      "type": "function"
    },
    {
      "inputs": [
        {
          "internalType": "address",
          "name": "mason",
          "type": "address"
        }
      ],
      "name": "earned",
      "outputs": [
        {
          "internalType": "uint256",
          "name": "",
          "type": "uint256"
        }
      ],
      "stateMutability": "view",
      "type": "function"
    },
    {
      "inputs": [],
      "name": "epoch",
      "outputs": [
        {
          "internalType": "uint256",
          "name": "",
          "type": "uint256"
        }
      ],
      "stateMutability": "view",
      "type": "function"
    },
    {
      "inputs": [],
      "name": "exit",
      "outputs": [],
      "stateMutability": "nonpayable",
      "type": "function"
    },
    {
      "inputs": [
        {
          "internalType": "address",
          "name": "mason",
          "type": "address"
        }
      ],
      "name": "getLastSnapshotIndexOf",
      "outputs": [
        {
          "internalType": "uint256",
          "name": "",
          "type": "uint256"
        }
      ],
      "stateMutability": "view",
      "type": "function"
    },
    {
      "inputs": [],
      "name": "getTombPrice",
      "outputs": [
        {
          "internalType": "uint256",
          "name": "",
          "type": "uint256"
        }
      ],
      "stateMutability": "view",
      "type": "function"
    },
    {
      "inputs": [
        {
          "internalType": "contract IERC20",
          "name": "_token",
          "type": "address"
        },
        {
          "internalType": "uint256",
          "name": "_amount",
          "type": "uint256"
        },
        {
          "internalType": "address",
          "name": "_to",
          "type": "address"
        }
      ],
      "name": "governanceRecoverUnsupported",
      "outputs": [],
      "stateMutability": "nonpayable",
      "type": "function"
    },
    {
      "inputs": [
        {
          "internalType": "contract IERC20",
          "name": "_tomb",
          "type": "address"
        },
        {
          "internalType": "contract IERC20",
          "name": "_share",
          "type": "address"
        },
        {
          "internalType": "contract ITreasury",
          "name": "_treasury",
          "type": "address"
        }
      ],
      "name": "initialize",
      "outputs": [],
      "stateMutability": "nonpayable",
      "type": "function"
    },
    {
      "inputs": [],
      "name": "initialized",
      "outputs": [
        {
          "internalType": "bool",
          "name": "",
          "type": "bool"
        }
      ],
      "stateMutability": "view",
      "type": "function"
    },
    {
      "inputs": [],
      "name": "latestSnapshotIndex",
      "outputs": [
        {
          "internalType": "uint256",
          "name": "",
          "type": "uint256"
        }
      ],
      "stateMutability": "view",
      "type": "function"
    },
    {
      "inputs": [
        {
          "internalType": "uint256",
          "name": "",
          "type": "uint256"
        }
      ],
      "name": "masonryHistory",
      "outputs": [
        {
          "internalType": "uint256",
          "name": "time",
          "type": "uint256"
        },
        {
          "internalType": "uint256",
          "name": "rewardReceived",
          "type": "uint256"
        },
        {
          "internalType": "uint256",
          "name": "rewardPerShare",
          "type": "uint256"
        }
      ],
      "stateMutability": "view",
      "type": "function"
    },
    {
      "inputs": [
        {
          "internalType": "address",
          "name": "",
          "type": "address"
        }
      ],
      "name": "masons",
      "outputs": [
        {
          "internalType": "uint256",
          "name": "lastSnapshotIndex",
          "type": "uint256"
        },
        {
          "internalType": "uint256",
          "name": "rewardEarned",
          "type": "uint256"
        },
        {
          "internalType": "uint256",
          "name": "epochTimerStart",
          "type": "uint256"
        }
      ],
      "stateMutability": "view",
      "type": "function"
    },
    {
      "inputs": [],
      "name": "nextEpochPoint",
      "outputs": [
        {
          "internalType": "uint256",
          "name": "",
          "type": "uint256"
        }
      ],
      "stateMutability": "view",
      "type": "function"
    },
    {
      "inputs": [],
      "name": "operator",
      "outputs": [
        {
          "internalType": "address",
          "name": "",
          "type": "address"
        }
      ],
      "stateMutability": "view",
      "type": "function"
    },
    {
      "inputs": [],
      "name": "rewardLockupEpochs",
      "outputs": [
        {
          "internalType": "uint256",
          "name": "",
          "type": "uint256"
        }
      ],
      "stateMutability": "view",
      "type": "function"
    },
    {
      "inputs": [],
      "name": "rewardPerShare",
      "outputs": [
        {
          "internalType": "uint256",
          "name": "",
          "type": "uint256"
        }
      ],
      "stateMutability": "view",
      "type": "function"
    },
    {
      "inputs": [
        {
          "internalType": "uint256",
          "name": "_withdrawLockupEpochs",
          "type": "uint256"
        },
        {
          "internalType": "uint256",
          "name": "_rewardLockupEpochs",
          "type": "uint256"
        }
      ],
      "name": "setLockUp",
      "outputs": [],
      "stateMutability": "nonpayable",
      "type": "function"
    },
    {
      "inputs": [
        {
          "internalType": "address",
          "name": "_operator",
          "type": "address"
        }
      ],
      "name": "setOperator",
      "outputs": [],
      "stateMutability": "nonpayable",
      "type": "function"
    },
    {
      "inputs": [],
      "name": "share",
      "outputs": [
        {
          "internalType": "contract IERC20",
          "name": "",
          "type": "address"
        }
      ],
      "stateMutability": "view",
      "type": "function"
    },
    {
      "inputs": [
        {
          "internalType": "uint256",
          "name": "amount",
          "type": "uint256"
        }
      ],
      "name": "stake",
      "outputs": [],
      "stateMutability": "nonpayable",
      "type": "function"
    },
    {
      "inputs": [],
      "name": "tomb",
      "outputs": [
        {
          "internalType": "contract IERC20",
          "name": "",
          "type": "address"
        }
      ],
      "stateMutability": "view",
      "type": "function"
    },
    {
      "inputs": [],
      "name": "totalSupply",
      "outputs": [
        {
          "internalType": "uint256",
          "name": "",
          "type": "uint256"
        }
      ],
      "stateMutability": "view",
      "type": "function"
    },
    {
      "inputs": [],
      "name": "treasury",
      "outputs": [
        {
          "internalType": "contract ITreasury",
          "name": "",
          "type": "address"
        }
      ],
      "stateMutability": "view",
      "type": "function"
    },
    {
      "inputs": [
        {
          "internalType": "uint256",
          "name": "amount",
          "type": "uint256"
        }
      ],
      "name": "withdraw",
      "outputs": [],
      "stateMutability": "nonpayable",
      "type": "function"
    },
    {
      "inputs": [],
      "name": "withdrawLockupEpochs",
      "outputs": [
        {
          "internalType": "uint256",
          "name": "",
          "type": "uint256"
        }
      ],
      "stateMutability": "view",
      "type": "function"
    }
  ],
  "transactionHash": "0x8376871bf0a2e332306be730270d0ce7d799ab0d960d82cbe01fc8dac2c92d84",
  "args": [],
  "solcInputHash": "8a5d8717ea449bf4061f825786e17f18",
  "bytecode": "0x60806040526004805460ff60a01b1916905534801561001d57600080fd5b50611fa48061002d6000396000f3fe608060405234801561001057600080fd5b50600436106101ce5760003560e01c806361d027b311610104578063a8d5fd65116100a2578063c0c53b8b11610071578063c0c53b8b1461044e578063c5967c2614610486578063e0f6dc9e1461048e578063e9fad8ee146104b4576101ce565b8063a8d5fd6514610410578063b3ab15fb14610418578063b88a802f1461043e578063c040f23a14610446576101ce565b80638cd9a27f116100de5780638cd9a27f14610393578063900cf0cf146103ce57806397ffe1d7146103d6578063a694fc3a146103f3576101ce565b806361d027b31461033f57806370a0823114610347578063714b46581461036d576101ce565b80631e85cd65116101715780633f9e3f041161014b5780633f9e3f04146102d5578063446a2ec8146102dd57806354575af4146102e5578063570ca7351461031b576101ce565b80631e85cd651461028b5780632e1a7d4d146102935780632ffaaa09146102b2576101ce565b806309bb4f92116101ad57806309bb4f921461024d578063158ef93e1461025557806318160ddd1461025d57806319262d3014610265576101ce565b80628cc262146101d3578063022ba18d1461020b578063046335d014610213575b600080fd5b6101f9600480360360208110156101e957600080fd5b50356001600160a01b03166104bc565b60408051918252519081900360200190f35b6101f961053d565b6102396004803603602081101561022957600080fd5b50356001600160a01b0316610543565b604080519115158252519081900360200190f35b6101f96105e4565b61023961065a565b6101f961066a565b6102396004803603602081101561027b57600080fd5b50356001600160a01b0316610670565b6101f9610709565b6102b0600480360360208110156102a957600080fd5b503561070f565b005b6102b0600480360360408110156102c857600080fd5b5080359060200135610a29565b6101f9610ac9565b6101f9610adf565b6102b0600480360360608110156102fb57600080fd5b506001600160a01b03813581169160208101359160409091013516610af2565b610323610beb565b604080516001600160a01b039092168252519081900360200190f35b610323610bfa565b6101f96004803603602081101561035d57600080fd5b50356001600160a01b0316610c09565b6101f96004803603602081101561038357600080fd5b50356001600160a01b0316610c24565b6103b0600480360360208110156103a957600080fd5b5035610c3f565b60408051938452602084019290925282820152519081900360600190f35b6101f9610c6f565b6102b0600480360360208110156103ec57600080fd5b5035610cb4565b6102b06004803603602081101561040957600080fd5b5035610f98565b61032361121d565b6102b06004803603602081101561042e57600080fd5b50356001600160a01b031661122c565b6102b0611297565b610323611524565b6102b06004803603606081101561046457600080fd5b506001600160a01b038135811691602081013582169160409091013516611533565b6101f96116e5565b6103b0600480360360208110156104a457600080fd5b50356001600160a01b031661172a565b6102b061174b565b6000806104c761175e565b60400151905060006104d8846117b6565b6040908101516001600160a01b0386166000908152600760205291909120600101549091506105359061052f670de0b6b3a764000061052961051a8787611811565b6105238a610c09565b90611873565b906118d3565b9061193a565b949350505050565b600a5481565b6006546040805163900cf0cf60e01b815290516000926001600160a01b03169163900cf0cf916004808301926020929190829003018186803b15801561058857600080fd5b505afa15801561059c573d6000803e3d6000fd5b505050506040513d60208110156105b257600080fd5b5051600a546001600160a01b0384166000908152600760205260409020600201546105dc9161193a565b111592915050565b600654604080516304dda7c960e11b815290516000926001600160a01b0316916309bb4f92916004808301926020929190829003018186803b15801561062957600080fd5b505afa15801561063d573d6000803e3d6000fd5b505050506040513d602081101561065357600080fd5b5051905090565b600454600160a01b900460ff1681565b60015490565b6006546040805163900cf0cf60e01b815290516000926001600160a01b03169163900cf0cf916004808301926020929190829003018186803b1580156106b557600080fd5b505afa1580156106c9573d6000803e3d6000fd5b505050506040513d60208110156106df57600080fd5b50516009546001600160a01b0384166000908152600760205260409020600201546105dc9161193a565b60095481565b610717611994565b156107535760405162461bcd60e51b8152600401808060200182810382526026815260200180611f496026913960400191505060405180910390fd5b61075b6119b5565b156107975760405162461bcd60e51b8152600401808060200182810382526026815260200180611f496026913960400191505060405180910390fd5b60006107a233610c09565b116107de5760405162461bcd60e51b8152600401808060200182810382526021815260200180611edd6021913960400191505060405180910390fd5b338015610878576107ed611df2565b506001600160a01b0381166000908152600760209081526040918290208251606081018452815481526001820154928101929092526002015491810191909152610836826104bc565b6020820152610843610ac9565b81526001600160a01b038216600090815260076020908152604091829020835181559083015160018201559101516002909101555b600082116108cd576040805162461bcd60e51b815260206004820152601a60248201527f4d61736f6e72793a2043616e6e6f742077697468647261772030000000000000604482015290519081900360640190fd5b600660009054906101000a90046001600160a01b03166001600160a01b031663900cf0cf6040518163ffffffff1660e01b815260040160206040518083038186803b15801561091b57600080fd5b505afa15801561092f573d6000803e3d6000fd5b505050506040513d602081101561094557600080fd5b5051600954336000908152600760205260409020600201546109669161193a565b11156109a35760405162461bcd60e51b8152600401808060200182810382526021815260200180611efe6021913960400191505060405180910390fd5b6109ab611297565b6109b4826119d6565b60408051838152905133917f7084f5476618d8e60b11ef0d7d3f06914655adb8793e28ff7f018d4c76d505d5919081900360200190a250504360009081526003602090815260408083203284529091528082208054600160ff1991821681179092553384529190922080549091169091179055565b6004546001600160a01b03163314610a725760405162461bcd60e51b8152600401808060200182810382526023815260200180611e766023913960400191505060405180910390fd5b808210158015610a83575060388211155b610abe5760405162461bcd60e51b8152600401808060200182810382526023815260200180611eba6023913960400191505060405180910390fd5b600991909155600a55565b600854600090610ada906001611811565b905090565b6000610ae961175e565b60400151905090565b6004546001600160a01b03163314610b3b5760405162461bcd60e51b8152600401808060200182810382526023815260200180611e766023913960400191505060405180910390fd5b6005546001600160a01b0384811691161415610b87576040805162461bcd60e51b815260206004808301919091526024820152633a37b6b160e11b604482015290519081900360640190fd5b6000546001600160a01b0384811691161415610bd2576040805162461bcd60e51b8152602060048201526005602482015264736861726560d81b604482015290519081900360640190fd5b610be66001600160a01b0384168284611a66565b505050565b6004546001600160a01b031681565b6006546001600160a01b031681565b6001600160a01b031660009081526002602052604090205490565b6001600160a01b031660009081526007602052604090205490565b60088181548110610c4c57fe5b600091825260209091206003909102018054600182015460029092015490925083565b6006546040805163900cf0cf60e01b815290516000926001600160a01b03169163900cf0cf916004808301926020929190829003018186803b15801561062957600080fd5b610cbc611994565b15610cf85760405162461bcd60e51b8152600401808060200182810382526026815260200180611f496026913960400191505060405180910390fd5b610d006119b5565b15610d3c5760405162461bcd60e51b8152600401808060200182810382526026815260200180611f496026913960400191505060405180910390fd5b6004546001600160a01b03163314610d855760405162461bcd60e51b8152600401808060200182810382526023815260200180611e766023913960400191505060405180910390fd5b60008111610dda576040805162461bcd60e51b815260206004820152601a60248201527f4d61736f6e72793a2043616e6e6f7420616c6c6f636174652030000000000000604482015290519081900360640190fd5b6000610de461066a565b11610e205760405162461bcd60e51b815260040180806020018281038252602e815260200180611e14602e913960400191505060405180910390fd5b6000610e2a61175e565b6040015190506000610e59610e52610e4061066a565b61052986670de0b6b3a7640000611873565b839061193a565b9050610e63611df2565b5060408051606081018252438152602081018581529181018381526008805460018101825560009190915282517ff3f7a9fe364faab93b216da50a3214154f22a0a2b415b23a84c8169e8b636ee360039092029182015592517ff3f7a9fe364faab93b216da50a3214154f22a0a2b415b23a84c8169e8b636ee4840155517ff3f7a9fe364faab93b216da50a3214154f22a0a2b415b23a84c8169e8b636ee590920191909155600554610f21906001600160a01b0316333087611ab8565b60408051858152905133917fac24935fd910bc682b5ccb1a07b718cadf8cf2f6d1404c4f3ddc3662dae40e29919081900360200190a250504360009081526003602090815260408083203284529091528082208054600160ff19918216811790925533845291909220805490911690911790555050565b610fa0611994565b15610fdc5760405162461bcd60e51b8152600401808060200182810382526026815260200180611f496026913960400191505060405180910390fd5b610fe46119b5565b156110205760405162461bcd60e51b8152600401808060200182810382526026815260200180611f496026913960400191505060405180910390fd5b3380156110ba5761102f611df2565b506001600160a01b0381166000908152600760209081526040918290208251606081018452815481526001820154928101929092526002015491810191909152611078826104bc565b6020820152611085610ac9565b81526001600160a01b038216600090815260076020908152604091829020835181559083015160018201559101516002909101555b6000821161110f576040805162461bcd60e51b815260206004820152601760248201527f4d61736f6e72793a2043616e6e6f74207374616b652030000000000000000000604482015290519081900360640190fd5b61111882611b18565b600660009054906101000a90046001600160a01b03166001600160a01b031663900cf0cf6040518163ffffffff1660e01b815260040160206040518083038186803b15801561116657600080fd5b505afa15801561117a573d6000803e3d6000fd5b505050506040513d602081101561119057600080fd5b505133600081815260076020908152604091829020600201939093558051858152905191927f9e71bc8eea02a63969f509818f2dafb9254532904319f9dbda79b67bd34a5f3d92918290030190a250504360009081526003602090815260408083203284529091528082208054600160ff1991821681179092553384529190922080549091169091179055565b6000546001600160a01b031681565b6004546001600160a01b031633146112755760405162461bcd60e51b8152600401808060200182810382526023815260200180611e766023913960400191505060405180910390fd5b600480546001600160a01b0319166001600160a01b0392909216919091179055565b338015611331576112a6611df2565b506001600160a01b03811660009081526007602090815260409182902082516060810184528154815260018201549281019290925260020154918101919091526112ef826104bc565b60208201526112fc610ac9565b81526001600160a01b038216600090815260076020908152604091829020835181559083015160018201559101516002909101555b33600090815260076020526040902060010154801561152057600660009054906101000a90046001600160a01b03166001600160a01b031663900cf0cf6040518163ffffffff1660e01b815260040160206040518083038186803b15801561139857600080fd5b505afa1580156113ac573d6000803e3d6000fd5b505050506040513d60208110156113c257600080fd5b5051600a54336000908152600760205260409020600201546113e39161193a565b1115611436576040805162461bcd60e51b815260206004820152601f60248201527f4d61736f6e72793a207374696c6c20696e20726577617264206c6f636b757000604482015290519081900360640190fd5b600660009054906101000a90046001600160a01b03166001600160a01b031663900cf0cf6040518163ffffffff1660e01b815260040160206040518083038186803b15801561148457600080fd5b505afa158015611498573d6000803e3d6000fd5b505050506040513d60208110156114ae57600080fd5b505133600081815260076020526040812060028101939093556001909201919091556005546114e9916001600160a01b039091169083611a66565b60408051828152905133917fe2403640ba68fed3a2f88b7557551d1993f84b99bb10ff833f0cf8db0c5e0486919081900360200190a25b5050565b6005546001600160a01b031681565b600454600160a01b900460ff1615611592576040805162461bcd60e51b815260206004820152601c60248201527f4d61736f6e72793a20616c726561647920696e697469616c697a656400000000604482015290519081900360640190fd5b600580546001600160a01b038086166001600160a01b0319928316179092556000805485841690831617905560068054928416929091169190911790556115d7611df2565b50604080516060810182524380825260006020808401828152848601838152600880546001810182559452855160039485027ff3f7a9fe364faab93b216da50a3214154f22a0a2b415b23a84c8169e8b636ee381019190915591517ff3f7a9fe364faab93b216da50a3214154f22a0a2b415b23a84c8169e8b636ee4830155517ff3f7a9fe364faab93b216da50a3214154f22a0a2b415b23a84c8169e8b636ee5909101556006600955600a91909155600480546001600160a01b031960ff60a01b19909116600160a01b171633908117909155845192835293519293927f25ff68dd81b34665b5ba7e553ee5511bf6812e12adb4a7e2c0d9e26b3099ce799281900390910190a250505050565b600654604080516362cb3e1360e11b815290516000926001600160a01b03169163c5967c26916004808301926020929190829003018186803b15801561062957600080fd5b60076020526000908152604090208054600182015460029092015490919083565b61175c61175733610c09565b61070f565b565b611766611df2565b6008611770610ac9565b8154811061177a57fe5b90600052602060002090600302016040518060600160405290816000820154815260200160018201548152602001600282015481525050905090565b6117be611df2565b60086117c983610c24565b815481106117d357fe5b906000526020600020906003020160405180606001604052908160008201548152602001600182015481526020016002820154815250509050919050565b600082821115611868576040805162461bcd60e51b815260206004820152601e60248201527f536166654d6174683a207375627472616374696f6e206f766572666c6f770000604482015290519081900360640190fd5b508082035b92915050565b6000826118825750600061186d565b8282028284828161188f57fe5b04146118cc5760405162461bcd60e51b8152600401808060200182810382526021815260200180611e996021913960400191505060405180910390fd5b9392505050565b6000808211611929576040805162461bcd60e51b815260206004820152601a60248201527f536166654d6174683a206469766973696f6e206279207a65726f000000000000604482015290519081900360640190fd5b81838161193257fe5b049392505050565b6000828201838110156118cc576040805162461bcd60e51b815260206004820152601b60248201527f536166654d6174683a206164646974696f6e206f766572666c6f770000000000604482015290519081900360640190fd5b43600090815260036020908152604080832032845290915290205460ff1690565b43600090815260036020908152604080832033845290915290205460ff1690565b3360009081526002602052604090205481811015611a255760405162461bcd60e51b8152600401808060200182810382526034815260200180611e426034913960400191505060405180910390fd5b600154611a329083611811565b600155611a3f8183611811565b336000818152600260205260408120929092559054611520916001600160a01b0390911690845b604080516001600160a01b038416602482015260448082018490528251808303909101815260649091019091526020810180516001600160e01b031663a9059cbb60e01b179052610be6908490611b71565b604080516001600160a01b0380861660248301528416604482015260648082018490528251808303909101815260849091019091526020810180516001600160e01b03166323b872dd60e01b179052611b12908590611b71565b50505050565b600154611b25908261193a565b60015533600090815260026020526040902054611b42908261193a565b336000818152600260205260408120929092559054611b6e916001600160a01b03909116903084611ab8565b50565b6060611bc6826040518060400160405280602081526020017f5361666545524332303a206c6f772d6c6576656c2063616c6c206661696c6564815250856001600160a01b0316611c229092919063ffffffff16565b805190915015610be657808060200190516020811015611be557600080fd5b5051610be65760405162461bcd60e51b815260040180806020018281038252602a815260200180611f1f602a913960400191505060405180910390fd5b6060610535848460008585611c3685611d48565b611c87576040805162461bcd60e51b815260206004820152601d60248201527f416464726573733a2063616c6c20746f206e6f6e2d636f6e7472616374000000604482015290519081900360640190fd5b60006060866001600160a01b031685876040518082805190602001908083835b60208310611cc65780518252601f199092019160209182019101611ca7565b6001836020036101000a03801982511681845116808217855250505050505090500191505060006040518083038185875af1925050503d8060008114611d28576040519150601f19603f3d011682016040523d82523d6000602084013e611d2d565b606091505b5091509150611d3d828286611d4e565b979650505050505050565b3b151590565b60608315611d5d5750816118cc565b825115611d6d5782518084602001fd5b8160405162461bcd60e51b81526004018080602001828103825283818151815260200191508051906020019080838360005b83811015611db7578181015183820152602001611d9f565b50505050905090810190601f168015611de45780820380516001836020036101000a031916815260200191505b509250505060405180910390fd5b6040518060600160405280600081526020016000815260200160008152509056fe4d61736f6e72793a2043616e6e6f7420616c6c6f63617465207768656e20746f74616c537570706c7920697320304d61736f6e72793a20776974686472617720726571756573742067726561746572207468616e207374616b656420616d6f756e744d61736f6e72793a2063616c6c6572206973206e6f7420746865206f70657261746f72536166654d6174683a206d756c7469706c69636174696f6e206f766572666c6f775f77697468647261774c6f636b757045706f6368733a206f7574206f662072616e67654d61736f6e72793a20546865206d61736f6e20646f6573206e6f742065786973744d61736f6e72793a207374696c6c20696e207769746864726177206c6f636b75705361666545524332303a204552433230206f7065726174696f6e20646964206e6f742073756363656564436f6e747261637447756172643a206f6e6520626c6f636b2c206f6e652066756e6374696f6ea2646970667358221220abc1bc4a208bb01838f7b4b2cc7f60388e3f45f166b90492aba7f9befb20df4764736f6c634300060c0033",
  "devdoc": {
    "kind": "dev",
    "methods": {},
    "version": 1
  },
  "userdoc": {
    "kind": "user",
    "methods": {},
    "version": 1
  },
  "storageLayout": {
    "storage": [
      {
        "astId": 1855,
        "contract": "contracts/Masonry.sol:Masonry",
        "label": "share",
        "offset": 0,
        "slot": "0",
        "type": "t_contract(IERC20)1180"
      },
      {
        "astId": 1857,
        "contract": "contracts/Masonry.sol:Masonry",
        "label": "_totalSupply",
        "offset": 0,
        "slot": "1",
        "type": "t_uint256"
      },
      {
        "astId": 1861,
        "contract": "contracts/Masonry.sol:Masonry",
        "label": "_balances",
        "offset": 0,
        "slot": "2",
        "type": "t_mapping(t_address,t_uint256)"
      },
      {
        "astId": 12278,
        "contract": "contracts/Masonry.sol:Masonry",
        "label": "_status",
        "offset": 0,
        "slot": "3",
        "type": "t_mapping(t_uint256,t_mapping(t_address,t_bool))"
      },
      {
        "astId": 1994,
        "contract": "contracts/Masonry.sol:Masonry",
        "label": "operator",
        "offset": 0,
        "slot": "4",
        "type": "t_address"
      },
      {
        "astId": 1997,
        "contract": "contracts/Masonry.sol:Masonry",
        "label": "initialized",
        "offset": 20,
        "slot": "4",
        "type": "t_bool"
      },
      {
        "astId": 1999,
        "contract": "contracts/Masonry.sol:Masonry",
        "label": "tomb",
        "offset": 0,
        "slot": "5",
        "type": "t_contract(IERC20)1180"
      },
      {
        "astId": 2001,
        "contract": "contracts/Masonry.sol:Masonry",
        "label": "treasury",
        "offset": 0,
        "slot": "6",
        "type": "t_contract(ITreasury)10832"
      },
      {
        "astId": 2005,
        "contract": "contracts/Masonry.sol:Masonry",
        "label": "masons",
        "offset": 0,
        "slot": "7",
        "type": "t_mapping(t_address,t_struct(Masonseat)1985_storage)"
      },
      {
        "astId": 2008,
        "contract": "contracts/Masonry.sol:Masonry",
        "label": "masonryHistory",
        "offset": 0,
        "slot": "8",
        "type": "t_array(t_struct(MasonrySnapshot)1992_storage)dyn_storage"
      },
      {
        "astId": 2010,
        "contract": "contracts/Masonry.sol:Masonry",
        "label": "withdrawLockupEpochs",
        "offset": 0,
        "slot": "9",
        "type": "t_uint256"
      },
      {
        "astId": 2012,
        "contract": "contracts/Masonry.sol:Masonry",
        "label": "rewardLockupEpochs",
        "offset": 0,
        "slot": "10",
        "type": "t_uint256"
      }
    ],
    "types": {
      "t_address": {
        "encoding": "inplace",
        "label": "address",
        "numberOfBytes": "20"
      },
      "t_array(t_struct(MasonrySnapshot)1992_storage)dyn_storage": {
        "base": "t_struct(MasonrySnapshot)1992_storage",
        "encoding": "dynamic_array",
        "label": "struct Masonry.MasonrySnapshot[]",
        "numberOfBytes": "32"
      },
      "t_bool": {
        "encoding": "inplace",
        "label": "bool",
        "numberOfBytes": "1"
      },
      "t_contract(IERC20)1180": {
        "encoding": "inplace",
        "label": "contract IERC20",
        "numberOfBytes": "20"
      },
      "t_contract(ITreasury)10832": {
        "encoding": "inplace",
        "label": "contract ITreasury",
        "numberOfBytes": "20"
      },
      "t_mapping(t_address,t_bool)": {
        "encoding": "mapping",
        "key": "t_address",
        "label": "mapping(address => bool)",
        "numberOfBytes": "32",
        "value": "t_bool"
      },
      "t_mapping(t_address,t_struct(Masonseat)1985_storage)": {
        "encoding": "mapping",
        "key": "t_address",
        "label": "mapping(address => struct Masonry.Masonseat)",
        "numberOfBytes": "32",
        "value": "t_struct(Masonseat)1985_storage"
      },
      "t_mapping(t_address,t_uint256)": {
        "encoding": "mapping",
        "key": "t_address",
        "label": "mapping(address => uint256)",
        "numberOfBytes": "32",
        "value": "t_uint256"
      },
      "t_mapping(t_uint256,t_mapping(t_address,t_bool))": {
        "encoding": "mapping",
        "key": "t_uint256",
        "label": "mapping(uint256 => mapping(address => bool))",
        "numberOfBytes": "32",
        "value": "t_mapping(t_address,t_bool)"
      },
      "t_struct(MasonrySnapshot)1992_storage": {
        "encoding": "inplace",
        "label": "struct Masonry.MasonrySnapshot",
        "members": [
          {
            "astId": 1987,
            "contract": "contracts/Masonry.sol:Masonry",
            "label": "time",
            "offset": 0,
            "slot": "0",
            "type": "t_uint256"
          },
          {
            "astId": 1989,
            "contract": "contracts/Masonry.sol:Masonry",
            "label": "rewardReceived",
            "offset": 0,
            "slot": "1",
            "type": "t_uint256"
          },
          {
            "astId": 1991,
            "contract": "contracts/Masonry.sol:Masonry",
            "label": "rewardPerShare",
            "offset": 0,
            "slot": "2",
            "type": "t_uint256"
          }
        ],
        "numberOfBytes": "96"
      },
      "t_struct(Masonseat)1985_storage": {
        "encoding": "inplace",
        "label": "struct Masonry.Masonseat",
        "members": [
          {
            "astId": 1980,
            "contract": "contracts/Masonry.sol:Masonry",
            "label": "lastSnapshotIndex",
            "offset": 0,
            "slot": "0",
            "type": "t_uint256"
          },
          {
            "astId": 1982,
            "contract": "contracts/Masonry.sol:Masonry",
            "label": "rewardEarned",
            "offset": 0,
            "slot": "1",
            "type": "t_uint256"
          },
          {
            "astId": 1984,
            "contract": "contracts/Masonry.sol:Masonry",
            "label": "epochTimerStart",
            "offset": 0,
            "slot": "2",
            "type": "t_uint256"
          }
        ],
        "numberOfBytes": "96"
      },
      "t_uint256": {
        "encoding": "inplace",
        "label": "uint256",
        "numberOfBytes": "32"
      }
    }
  }
}