{
  "address": "0xd40d4128429FE5fF465262585c12A49A4B043Bb2",
  "abi": [
    {
      "inputs": [
        {
          "internalType": "uint256",
          "name": "_taxRate",
          "type": "uint256"
        },
        {
          "internalType": "address",
          "name": "_taxCollectorAddress",
          "type": "address"
        }
      ],
      "stateMutability": "nonpayable",
      "type": "constructor"
    },
    {
      "anonymous": false,
      "inputs": [
        {
          "indexed": true,
          "internalType": "address",
          "name": "owner",
          "type": "address"
        },
        {
          "indexed": true,
          "internalType": "address",
          "name": "spender",
          "type": "address"
        },
        {
          "indexed": false,
          "internalType": "uint256",
          "name": "value",
          "type": "uint256"
        }
      ],
      "name": "Approval",
      "type": "event"
    },
    {
      "anonymous": false,
      "inputs": [
        {
          "indexed": true,
          "internalType": "address",
          "name": "previousOperator",
          "type": "address"
        },
        {
          "indexed": true,
          "internalType": "address",
          "name": "newOperator",
          "type": "address"
        }
      ],
      "name": "OperatorTransferred",
      "type": "event"
    },
    {
      "anonymous": false,
      "inputs": [
        {
          "indexed": true,
          "internalType": "address",
          "name": "previousOwner",
          "type": "address"
        },
        {
          "indexed": true,
          "internalType": "address",
          "name": "newOwner",
          "type": "address"
        }
      ],
      "name": "OwnershipTransferred",
      "type": "event"
    },
    {
      "anonymous": false,
      "inputs": [
        {
          "indexed": false,
          "internalType": "address",
          "name": "oldAddress",
          "type": "address"
        },
        {
          "indexed": false,
          "internalType": "address",
          "name": "newAddress",
          "type": "address"
        }
      ],
      "name": "TaxOfficeTransferred",
      "type": "event"
    },
    {
      "anonymous": false,
      "inputs": [
        {
          "indexed": true,
          "internalType": "address",
          "name": "from",
          "type": "address"
        },
        {
          "indexed": true,
          "internalType": "address",
          "name": "to",
          "type": "address"
        },
        {
          "indexed": false,
          "internalType": "uint256",
          "name": "value",
          "type": "uint256"
        }
      ],
      "name": "Transfer",
      "type": "event"
    },
    {
      "inputs": [],
      "name": "INITIAL_AIRDROP_WALLET_DISTRIBUTION",
      "outputs": [
        {
          "internalType": "uint256",
          "name": "",
          "type": "uint256"
        }
      ],
      "stateMutability": "view",
      "type": "function"
    },
    {
      "inputs": [],
      "name": "INITIAL_GENESIS_POOL_DISTRIBUTION",
      "outputs": [
        {
          "internalType": "uint256",
          "name": "",
          "type": "uint256"
        }
      ],
      "stateMutability": "view",
      "type": "function"
    },
    {
      "inputs": [],
      "name": "INITIAL_TOMB_POOL_DISTRIBUTION",
      "outputs": [
        {
          "internalType": "uint256",
          "name": "",
          "type": "uint256"
        }
      ],
      "stateMutability": "view",
      "type": "function"
    },
    {
      "inputs": [
        {
          "internalType": "address",
          "name": "owner",
          "type": "address"
        },
        {
          "internalType": "address",
          "name": "spender",
          "type": "address"
        }
      ],
      "name": "allowance",
      "outputs": [
        {
          "internalType": "uint256",
          "name": "",
          "type": "uint256"
        }
      ],
      "stateMutability": "view",
      "type": "function"
    },
    {
      "inputs": [
        {
          "internalType": "address",
          "name": "spender",
          "type": "address"
        },
        {
          "internalType": "uint256",
          "name": "amount",
          "type": "uint256"
        }
      ],
      "name": "approve",
      "outputs": [
        {
          "internalType": "bool",
          "name": "",
          "type": "bool"
        }
      ],
      "stateMutability": "nonpayable",
      "type": "function"
    },
    {
      "inputs": [],
      "name": "autoCalculateTax",
      "outputs": [
        {
          "internalType": "bool",
          "name": "",
          "type": "bool"
        }
      ],
      "stateMutability": "view",
      "type": "function"
    },
    {
      "inputs": [
        {
          "internalType": "address",
          "name": "account",
          "type": "address"
        }
      ],
      "name": "balanceOf",
      "outputs": [
        {
          "internalType": "uint256",
          "name": "",
          "type": "uint256"
        }
      ],
      "stateMutability": "view",
      "type": "function"
    },
    {
      "inputs": [
        {
          "internalType": "uint256",
          "name": "amount",
          "type": "uint256"
        }
      ],
      "name": "burn",
      "outputs": [],
      "stateMutability": "nonpayable",
      "type": "function"
    },
    {
      "inputs": [
        {
          "internalType": "address",
          "name": "account",
          "type": "address"
        },
        {
          "internalType": "uint256",
          "name": "amount",
          "type": "uint256"
        }
      ],
      "name": "burnFrom",
      "outputs": [],
      "stateMutability": "nonpayable",
      "type": "function"
    },
    {
      "inputs": [],
      "name": "burnThreshold",
      "outputs": [
        {
          "internalType": "uint256",
          "name": "",
          "type": "uint256"
        }
      ],
      "stateMutability": "view",
      "type": "function"
    },
    {
      "inputs": [],
      "name": "decimals",
      "outputs": [
        {
          "internalType": "uint8",
          "name": "",
          "type": "uint8"
        }
      ],
      "stateMutability": "view",
      "type": "function"
    },
    {
      "inputs": [
        {
          "internalType": "address",
          "name": "spender",
          "type": "address"
        },
        {
          "internalType": "uint256",
          "name": "subtractedValue",
          "type": "uint256"
        }
      ],
      "name": "decreaseAllowance",
      "outputs": [
        {
          "internalType": "bool",
          "name": "",
          "type": "bool"
        }
      ],
      "stateMutability": "nonpayable",
      "type": "function"
    },
    {
      "inputs": [],
      "name": "disableAutoCalculateTax",
      "outputs": [],
      "stateMutability": "nonpayable",
      "type": "function"
    },
    {
      "inputs": [
        {
          "internalType": "address",
          "name": "_genesisPool",
          "type": "address"
        },
        {
          "internalType": "address",
          "name": "_tombPool",
          "type": "address"
        },
        {
          "internalType": "address",
          "name": "_airdropWallet",
          "type": "address"
        }
      ],
      "name": "distributeReward",
      "outputs": [],
      "stateMutability": "nonpayable",
      "type": "function"
    },
    {
      "inputs": [],
      "name": "enableAutoCalculateTax",
      "outputs": [],
      "stateMutability": "nonpayable",
      "type": "function"
    },
    {
      "inputs": [
        {
          "internalType": "address",
          "name": "_address",
          "type": "address"
        }
      ],
      "name": "excludeAddress",
      "outputs": [
        {
          "internalType": "bool",
          "name": "",
          "type": "bool"
        }
      ],
      "stateMutability": "nonpayable",
      "type": "function"
    },
    {
      "inputs": [
        {
          "internalType": "address",
          "name": "",
          "type": "address"
        }
      ],
      "name": "excludedAddresses",
      "outputs": [
        {
          "internalType": "bool",
          "name": "",
          "type": "bool"
        }
      ],
      "stateMutability": "view",
      "type": "function"
    },
    {
      "inputs": [],
      "name": "getTaxTiersRatesCount",
      "outputs": [
        {
          "internalType": "uint256",
          "name": "count",
          "type": "uint256"
        }
      ],
      "stateMutability": "view",
      "type": "function"
    },
    {
      "inputs": [],
      "name": "getTaxTiersTwapsCount",
      "outputs": [
        {
          "internalType": "uint256",
          "name": "count",
          "type": "uint256"
        }
      ],
      "stateMutability": "view",
      "type": "function"
    },
    {
      "inputs": [
        {
          "internalType": "contract IERC20",
          "name": "_token",
          "type": "address"
        },
        {
          "internalType": "uint256",
          "name": "_amount",
          "type": "uint256"
        },
        {
          "internalType": "address",
          "name": "_to",
          "type": "address"
        }
      ],
      "name": "governanceRecoverUnsupported",
      "outputs": [],
      "stateMutability": "nonpayable",
      "type": "function"
    },
    {
      "inputs": [
        {
          "internalType": "address",
          "name": "_address",
          "type": "address"
        }
      ],
      "name": "includeAddress",
      "outputs": [
        {
          "internalType": "bool",
          "name": "",
          "type": "bool"
        }
      ],
      "stateMutability": "nonpayable",
      "type": "function"
    },
    {
      "inputs": [
        {
          "internalType": "address",
          "name": "spender",
          "type": "address"
        },
        {
          "internalType": "uint256",
          "name": "addedValue",
          "type": "uint256"
        }
      ],
      "name": "increaseAllowance",
      "outputs": [
        {
          "internalType": "bool",
          "name": "",
          "type": "bool"
        }
      ],
      "stateMutability": "nonpayable",
      "type": "function"
    },
    {
      "inputs": [
        {
          "internalType": "address",
          "name": "_address",
          "type": "address"
        }
      ],
      "name": "isAddressExcluded",
      "outputs": [
        {
          "internalType": "bool",
          "name": "",
          "type": "bool"
        }
      ],
      "stateMutability": "view",
      "type": "function"
    },
    {
      "inputs": [],
      "name": "isOperator",
      "outputs": [
        {
          "internalType": "bool",
          "name": "",
          "type": "bool"
        }
      ],
      "stateMutability": "view",
      "type": "function"
    },
    {
      "inputs": [
        {
          "internalType": "address",
          "name": "recipient_",
          "type": "address"
        },
        {
          "internalType": "uint256",
          "name": "amount_",
          "type": "uint256"
        }
      ],
      "name": "mint",
      "outputs": [
        {
          "internalType": "bool",
          "name": "",
          "type": "bool"
        }
      ],
      "stateMutability": "nonpayable",
      "type": "function"
    },
    {
      "inputs": [],
      "name": "name",
      "outputs": [
        {
          "internalType": "string",
          "name": "",
          "type": "string"
        }
      ],
      "stateMutability": "view",
      "type": "function"
    },
    {
      "inputs": [],
      "name": "operator",
      "outputs": [
        {
          "internalType": "address",
          "name": "",
          "type": "address"
        }
      ],
      "stateMutability": "view",
      "type": "function"
    },
    {
      "inputs": [],
      "name": "owner",
      "outputs": [
        {
          "internalType": "address",
          "name": "",
          "type": "address"
        }
      ],
      "stateMutability": "view",
      "type": "function"
    },
    {
      "inputs": [],
      "name": "renounceOwnership",
      "outputs": [],
      "stateMutability": "nonpayable",
      "type": "function"
    },
    {
      "inputs": [],
      "name": "rewardPoolDistributed",
      "outputs": [
        {
          "internalType": "bool",
          "name": "",
          "type": "bool"
        }
      ],
      "stateMutability": "view",
      "type": "function"
    },
    {
      "inputs": [
        {
          "internalType": "uint256",
          "name": "_burnThreshold",
          "type": "uint256"
        }
      ],
      "name": "setBurnThreshold",
      "outputs": [
        {
          "internalType": "bool",
          "name": "",
          "type": "bool"
        }
      ],
      "stateMutability": "nonpayable",
      "type": "function"
    },
    {
      "inputs": [
        {
          "internalType": "address",
          "name": "_taxCollectorAddress",
          "type": "address"
        }
      ],
      "name": "setTaxCollectorAddress",
      "outputs": [],
      "stateMutability": "nonpayable",
      "type": "function"
    },
    {
      "inputs": [
        {
          "internalType": "address",
          "name": "_taxOffice",
          "type": "address"
        }
      ],
      "name": "setTaxOffice",
      "outputs": [],
      "stateMutability": "nonpayable",
      "type": "function"
    },
    {
      "inputs": [
        {
          "internalType": "uint256",
          "name": "_taxRate",
          "type": "uint256"
        }
      ],
      "name": "setTaxRate",
      "outputs": [],
      "stateMutability": "nonpayable",
      "type": "function"
    },
    {
      "inputs": [
        {
          "internalType": "uint8",
          "name": "_index",
          "type": "uint8"
        },
        {
          "internalType": "uint256",
          "name": "_value",
          "type": "uint256"
        }
      ],
      "name": "setTaxTiersRate",
      "outputs": [
        {
          "internalType": "bool",
          "name": "",
          "type": "bool"
        }
      ],
      "stateMutability": "nonpayable",
      "type": "function"
    },
    {
      "inputs": [
        {
          "internalType": "uint8",
          "name": "_index",
          "type": "uint8"
        },
        {
          "internalType": "uint256",
          "name": "_value",
          "type": "uint256"
        }
      ],
      "name": "setTaxTiersTwap",
      "outputs": [
        {
          "internalType": "bool",
          "name": "",
          "type": "bool"
        }
      ],
      "stateMutability": "nonpayable",
      "type": "function"
    },
    {
      "inputs": [
        {
          "internalType": "address",
          "name": "_tombOracle",
          "type": "address"
        }
      ],
      "name": "setTombOracle",
      "outputs": [],
      "stateMutability": "nonpayable",
      "type": "function"
    },
    {
      "inputs": [],
      "name": "symbol",
      "outputs": [
        {
          "internalType": "string",
          "name": "",
          "type": "string"
        }
      ],
      "stateMutability": "view",
      "type": "function"
    },
    {
      "inputs": [],
      "name": "taxCollectorAddress",
      "outputs": [
        {
          "internalType": "address",
          "name": "",
          "type": "address"
        }
      ],
      "stateMutability": "view",
      "type": "function"
    },
    {
      "inputs": [],
      "name": "taxOffice",
      "outputs": [
        {
          "internalType": "address",
          "name": "",
          "type": "address"
        }
      ],
      "stateMutability": "view",
      "type": "function"
    },
    {
      "inputs": [],
      "name": "taxRate",
      "outputs": [
        {
          "internalType": "uint256",
          "name": "",
          "type": "uint256"
        }
      ],
      "stateMutability": "view",
      "type": "function"
    },
    {
      "inputs": [
        {
          "internalType": "uint256",
          "name": "",
          "type": "uint256"
        }
      ],
      "name": "taxTiersRates",
      "outputs": [
        {
          "internalType": "uint256",
          "name": "",
          "type": "uint256"
        }
      ],
      "stateMutability": "view",
      "type": "function"
    },
    {
      "inputs": [
        {
          "internalType": "uint256",
          "name": "",
          "type": "uint256"
        }
      ],
      "name": "taxTiersTwaps",
      "outputs": [
        {
          "internalType": "uint256",
          "name": "",
          "type": "uint256"
        }
      ],
      "stateMutability": "view",
      "type": "function"
    },
    {
      "inputs": [],
      "name": "tombOracle",
      "outputs": [
        {
          "internalType": "address",
          "name": "",
          "type": "address"
        }
      ],
      "stateMutability": "view",
      "type": "function"
    },
    {
      "inputs": [],
      "name": "totalSupply",
      "outputs": [
        {
          "internalType": "uint256",
          "name": "",
          "type": "uint256"
        }
      ],
      "stateMutability": "view",
      "type": "function"
    },
    {
      "inputs": [
        {
          "internalType": "address",
          "name": "recipient",
          "type": "address"
        },
        {
          "internalType": "uint256",
          "name": "amount",
          "type": "uint256"
        }
      ],
      "name": "transfer",
      "outputs": [
        {
          "internalType": "bool",
          "name": "",
          "type": "bool"
        }
      ],
      "stateMutability": "nonpayable",
      "type": "function"
    },
    {
      "inputs": [
        {
          "internalType": "address",
          "name": "sender",
          "type": "address"
        },
        {
          "internalType": "address",
          "name": "recipient",
          "type": "address"
        },
        {
          "internalType": "uint256",
          "name": "amount",
          "type": "uint256"
        }
      ],
      "name": "transferFrom",
      "outputs": [
        {
          "internalType": "bool",
          "name": "",
          "type": "bool"
        }
      ],
      "stateMutability": "nonpayable",
      "type": "function"
    },
    {
      "inputs": [
        {
          "internalType": "address",
          "name": "newOperator_",
          "type": "address"
        }
      ],
      "name": "transferOperator",
      "outputs": [],
      "stateMutability": "nonpayable",
      "type": "function"
    },
    {
      "inputs": [
        {
          "internalType": "address",
          "name": "newOwner",
          "type": "address"
        }
      ],
      "name": "transferOwnership",
      "outputs": [],
      "stateMutability": "nonpayable",
      "type": "function"
    }
  ],
  "transactionHash": "0x78c0ff0d217e3215eb66d8d0c8b046ee2a80372f1bc882490d19061279911fa3",
  "args": [
    1000,
    "0x0D8e060CA2D847553ec14394ee6B304623E0d1d6"
  ],
  "solcInputHash": "0ad0e044932d7db9bc538c98a87da731",
  "bytecode": "0x6006805460ff60a01b19169055670f43fc2c04ee0000600a819055610240604052600060809081526706f05b59d3b2000060a052670853a0d2313c000060c0526709b6e64a8ec6000060e052670b1a2bc2ec50000061010052670c7d713b49da000061012052670d2f13f7789f000061014052670de0b6b3a764000061016052670e92596fd6290000610180526101a0919091526710a741a4627800006101c05267120a871cc00200006101e05267136dcc951d8c0000610200526714d1120d7b16000061022052620000d790600c90600e62000645565b50604080516101c0810182526107d0815261076c6020820152610708918101919091526106a4606082015261064060808201526105dc60a0820181905260c0820181905260e0820181905261010082015261057861012082015261038461014082015261019061016082015260c861018082015260646101a08201526200016390600d90600e620006a0565b503480156200017157600080fd5b506040516200306838038062003068833981810160405260408110156200019757600080fd5b5080516020918201516040805180820182526004808252632a27a6a160e11b8287018181528451808601909552918452958301959095528051939492939092620001e59160039190620006e4565b508051620001fb906004906020840190620006e4565b50506005805460ff1916601217905550600062000217620003ac565b60058054610100600160a81b0319166101006001600160a01b03841690810291909117909155604051919250906000907f8be0079c531659141344cd1fd0a4f28419497f9722a3daafe3b4186f6b6457e0908290a35062000277620003ac565b600680546001600160a01b0319166001600160a01b0392831617908190556040519116906000907f74da04524d50c64947f5dd5381ef1a4dca5cba8ed1d816243f9e48aa0b5617ed908290a361271082106200031a576040805162461bcd60e51b815260206004820152601b60248201527f74617820657175616c206f722062696767657220746f20313030250000000000604482015290519081900360640190fd5b6001600160a01b038116620003615760405162461bcd60e51b815260040180806020018281038252602e8152602001806200300e602e913960400191505060405180910390fd5b6200036c30620003b0565b506200038133670de0b6b3a7640000620004a7565b600991909155600b80546001600160a01b0319166001600160a01b039092169190911790556200076e565b3390565b6000620003bc620005b6565b80620003d257506008546001600160a01b031633145b6200040f5760405162461bcd60e51b815260040180806020018281038252602c8152602001806200303c602c913960400191505060405180910390fd5b6001600160a01b0382166000908152600e602052604090205460ff16156200047e576040805162461bcd60e51b815260206004820152601960248201527f616464726573732063616e2774206265206578636c7564656400000000000000604482015290519081900360640190fd5b506001600160a01b03166000908152600e60205260409020805460ff1916600190811790915590565b6001600160a01b03821662000503576040805162461bcd60e51b815260206004820152601f60248201527f45524332303a206d696e7420746f20746865207a65726f206164647265737300604482015290519081900360640190fd5b6200051160008383620005de565b6200052d81600254620005e360201b62001ae51790919060201c565b6002556001600160a01b038216600090815260208181526040909120546200056091839062001ae5620005e3821b17901c565b6001600160a01b0383166000818152602081815260408083209490945583518581529351929391927fddf252ad1be2c89b69c2b068fc378daa952ba7f163c4a11628f55a4df523b3ef9281900390910190a35050565b6006546000906001600160a01b0316620005cf620003ac565b6001600160a01b031614905090565b505050565b6000828201838110156200063e576040805162461bcd60e51b815260206004820152601b60248201527f536166654d6174683a206164646974696f6e206f766572666c6f770000000000604482015290519081900360640190fd5b9392505050565b8280548282559060005260206000209081019282156200068e579160200282015b828111156200068e57825182906001600160401b031690559160200191906001019062000666565b506200069c92915062000757565b5090565b8280548282559060005260206000209081019282156200068e579160200282015b828111156200068e578251829061ffff16905591602001919060010190620006c1565b828054600181600116156101000203166002900490600052602060002090601f016020900481019282601f106200072757805160ff19168380011785556200068e565b828001600101855582156200068e579182015b828111156200068e5782518255916020019190600101906200073a565b5b808211156200069c576000815560010162000758565b612890806200077e6000396000f3fe608060405234801561001057600080fd5b50600436106102bb5760003560e01c806370a0823111610182578063a6431bba116100e9578063dd62ed3e116100a2578063f2fde38b1161007c578063f2fde38b14610834578063f77411031461085a578063ff87fc7c14610862578063ffa8226e1461086a576102bb565b8063dd62ed3e146107d8578063ebca1bd914610806578063ee2a95351461082c576102bb565b8063a6431bba14610733578063a9059cbb1461073b578063b87c5a4a14610767578063c3bdf6131461078d578063c6d69a3014610795578063cf011b26146107b2576102bb565b80638da5cb5b1161013b5780638da5cb5b146106ac57806393995d4b146106b457806395d89b41146106da5780639662676c146106e25780639d6b5f21146106ea578063a457c2d714610707576102bb565b806370a082311461061c578063715018a61461064257806375be5ae11461064a578063771a3a1d1461067057806379cc6790146106785780638d3cc818146106a4576102bb565b806342966c681161022657806354575af4116101df57806354575af41461056d578063570ca735146105a35780635c29908d146105ab57806365bbacd9146105c857806366206ce9146105d057806369356d47146105f6576102bb565b806342966c68146104e357806342c6b4f1146105005780634456eda21461051d5780634e20a02c146105255780634f6d38d01461052d578063521181d514610535576102bb565b8063313ce56711610278578063313ce567146103fd5780633758e6ce1461041b57806339509351146104415780633e5f13d41461046d5780633f07d76a1461049157806340c10f19146104b7576102bb565b806306fdde03146102c0578063095ea7b31461033d5780631017bc361461037d57806318160ddd1461039757806323b872dd1461039f57806329605e77146103d5575b600080fd5b6102c8610872565b6040805160208082528351818301528351919283929083019185019080838360005b838110156103025781810151838201526020016102ea565b50505050905090810190601f16801561032f5780820380516001836020036101000a031916815260200191505b509250505060405180910390f35b6103696004803603604081101561035357600080fd5b506001600160a01b038135169060200135610909565b604080519115158252519081900360200190f35b610385610927565b60408051918252519081900360200190f35b610385610935565b610369600480360360608110156103b557600080fd5b506001600160a01b0381358116916020810135909116906040013561093b565b6103fb600480360360208110156103eb57600080fd5b50356001600160a01b0316610a16565b005b610405610a96565b6040805160ff9092168252519081900360200190f35b6103696004803603602081101561043157600080fd5b50356001600160a01b0316610a9f565b6103696004803603604081101561045757600080fd5b506001600160a01b038135169060200135610b94565b610475610be2565b604080516001600160a01b039092168252519081900360200190f35b6103fb600480360360208110156104a757600080fd5b50356001600160a01b0316610bf1565b610369600480360360408110156104cd57600080fd5b506001600160a01b038135169060200135610cf8565b6103fb600480360360208110156104f957600080fd5b5035610d72565b6103856004803603602081101561051657600080fd5b5035610d7b565b610369610d99565b610385610dbf565b610385610dcd565b6103fb6004803603606081101561054b57600080fd5b506001600160a01b038135811691602081013582169160409091013516610dd3565b6103fb6004803603606081101561058357600080fd5b506001600160a01b03813581169160208101359160409091013516610faf565b610475611080565b610385600480360360208110156105c157600080fd5b503561108f565b6103fb61109c565b610369600480360360408110156105e657600080fd5b5060ff81351690602001356110f8565b6103fb6004803603602081101561060c57600080fd5b50356001600160a01b031661122e565b6103856004803603602081101561063257600080fd5b50356001600160a01b03166112e2565b6103fb6112fd565b6103fb6004803603602081101561066057600080fd5b50356001600160a01b03166113c1565b610385611480565b6103fb6004803603604081101561068e57600080fd5b506001600160a01b038135169060200135611486565b6103696114dd565b6104756114ed565b610369600480360360208110156106ca57600080fd5b50356001600160a01b0316611501565b6102c86115ed565b61036961164e565b6103696004803603602081101561070057600080fd5b503561165e565b6103696004803603604081101561071d57600080fd5b506001600160a01b0381351690602001356116b7565b61038561171f565b6103696004803603604081101561075157600080fd5b506001600160a01b038135169060200135611725565b6103696004803603604081101561077d57600080fd5b5060ff8135169060200135611739565b6104756117e2565b6103fb600480360360208110156107ab57600080fd5b50356117f1565b610369600480360360208110156107c857600080fd5b50356001600160a01b03166118e2565b610385600480360360408110156107ee57600080fd5b506001600160a01b03813581169160200135166118f7565b6103696004803603602081101561081c57600080fd5b50356001600160a01b0316611922565b610385611940565b6103fb6004803603602081101561084a57600080fd5b50356001600160a01b0316611946565b610475611a66565b6103fb611a75565b610385611ad7565b60038054604080516020601f60026000196101006001881615020190951694909404938401819004810282018101909252828152606093909290918301828280156108fe5780601f106108d3576101008083540402835291602001916108fe565b820191906000526020600020905b8154815290600101906020018083116108e157829003601f168201915b505050505090505b90565b600061091d610916611b46565b8484611b4a565b5060015b92915050565b691da56a4b0835bf80000081565b60025490565b600b5460009081908190600160a01b900460ff161561097c57600061095e611c36565b905061096981611d0a565b9250600a5481101561097a57600191505b505b8115806109a157506001600160a01b0386166000908152600e602052604090205460ff165b156109b6576109b1868686611e18565b6109c4565b6109c286868684611f73565b505b610a0a866109d0611b46565b610a0587604051806060016040528060288152602001612666602891396109fe8c6109f9611b46565b6118f7565b9190611fec565b611b4a565b50600195945050505050565b610a1e611b46565b6001600160a01b0316610a2f6114ed565b6001600160a01b031614610a8a576040805162461bcd60e51b815260206004820181905260248201527f4f776e61626c653a2063616c6c6572206973206e6f7420746865206f776e6572604482015290519081900360640190fd5b610a9381612083565b50565b60055460ff1690565b6000610aa9610d99565b80610abe57506008546001600160a01b031633145b610af95760405162461bcd60e51b815260040180806020018281038252602c8152602001806127ba602c913960400191505060405180910390fd5b6001600160a01b0382166000908152600e602052604090205460ff1615610b67576040805162461bcd60e51b815260206004820152601960248201527f616464726573732063616e2774206265206578636c7564656400000000000000604482015290519081900360640190fd5b506001600160a01b0381166000908152600e60205260409020805460ff191660019081179091555b919050565b600061091d610ba1611b46565b84610a058560016000610bb2611b46565b6001600160a01b03908116825260208083019390935260409182016000908120918c168152925290205490611ae5565b6008546001600160a01b031681565b610bf9610d99565b80610c0e57506008546001600160a01b031633145b610c495760405162461bcd60e51b815260040180806020018281038252602c8152602001806127ba602c913960400191505060405180910390fd5b6001600160a01b038116610c8e5760405162461bcd60e51b81526004018080602001828103825260268152602001806125f26026913960400191505060405180910390fd5b600854604080516001600160a01b039283168152918316602083015280517f75237613d1cfb394eb7979839ecbeacaca4592ef0cf96791979625803948a6019281900390910190a1600880546001600160a01b0319166001600160a01b0392909216919091179055565b6006546000906001600160a01b03163314610d445760405162461bcd60e51b81526004018080602001828103825260248152602001806126e06024913960400191505060405180910390fd5b6000610d4f846112e2565b9050610d5b8484612120565b6000610d66856112e2565b91909111949350505050565b610a9381612210565b600c8181548110610d8857fe5b600091825260209091200154905081565b6006546000906001600160a01b0316610db0611b46565b6001600160a01b031614905090565b6902544faa778090e0000081565b600a5481565b6006546001600160a01b03163314610e1c5760405162461bcd60e51b81526004018080602001828103825260248152602001806126e06024913960400191505060405180910390fd5b600654600160a01b900460ff1615610e7b576040805162461bcd60e51b815260206004820152601860248201527f6f6e6c792063616e2064697374726962757465206f6e63650000000000000000604482015290519081900360640190fd5b6001600160a01b038316610ec6576040805162461bcd60e51b815260206004820152600d60248201526c0857d9d95b995cda5cd41bdbdb609a1b604482015290519081900360640190fd5b6001600160a01b038216610f0e576040805162461bcd60e51b815260206004820152600a6024820152690857dd1bdb58941bdbdb60b21b604482015290519081900360640190fd5b6001600160a01b038116610f5b576040805162461bcd60e51b815260206004820152600f60248201526e0857d85a5c991c9bdc15d85b1b195d608a1b604482015290519081900360640190fd5b6006805460ff60a01b1916600160a01b179055610f82836902544faa778090e00000612120565b610f9682691da56a4b0835bf800000612120565b610faa816901e7e4171bf4d3a00000612120565b505050565b6006546001600160a01b03163314610ff85760405162461bcd60e51b81526004018080602001828103825260248152602001806126e06024913960400191505060405180910390fd5b826001600160a01b031663a9059cbb82846040518363ffffffff1660e01b815260040180836001600160a01b0316815260200182815260200192505050602060405180830381600087803b15801561104f57600080fd5b505af1158015611063573d6000803e3d6000fd5b505050506040513d602081101561107957600080fd5b5050505050565b6006546001600160a01b031690565b600d8181548110610d8857fe5b6008546001600160a01b031633146110e9576040805162461bcd60e51b815260206004820152601c60248201526000805160206125ac833981519152604482015290519081900360640190fd5b600b805460ff60a01b19169055565b6008546000906001600160a01b03163314611148576040805162461bcd60e51b815260206004820152601c60248201526000805160206125ac833981519152604482015290519081900360640190fd5b61115061171f565b8360ff16106111905760405162461bcd60e51b815260040180806020018281038252602a815260200180612704602a913960400191505060405180910390fd5b60ff8316156111c257600c6001840360ff16815481106111ac57fe5b906000526020600020015482116111c257600080fd5b6111d560016111cf61171f565b90612221565b8360ff16101561120857600c8360010160ff16815481106111f257fe5b9060005260206000200154821061120857600080fd5b81600c8460ff168154811061121957fe5b60009182526020909120015550600192915050565b6008546001600160a01b0316331461127b576040805162461bcd60e51b815260206004820152601c60248201526000805160206125ac833981519152604482015290519081900360640190fd5b6001600160a01b0381166112c05760405162461bcd60e51b815260040180806020018281038252602e81526020018061268e602e913960400191505060405180910390fd5b600b80546001600160a01b0319166001600160a01b0392909216919091179055565b6001600160a01b031660009081526020819052604090205490565b611305611b46565b6001600160a01b03166113166114ed565b6001600160a01b031614611371576040805162461bcd60e51b815260206004820181905260248201527f4f776e61626c653a2063616c6c6572206973206e6f7420746865206f776e6572604482015290519081900360640190fd5b60055460405160009161010090046001600160a01b0316907f8be0079c531659141344cd1fd0a4f28419497f9722a3daafe3b4186f6b6457e0908390a360058054610100600160a81b0319169055565b6113c9610d99565b806113de57506008546001600160a01b031633145b6114195760405162461bcd60e51b815260040180806020018281038252602c8152602001806127ba602c913960400191505060405180910390fd5b6001600160a01b03811661145e5760405162461bcd60e51b815260040180806020018281038252602281526020018061274f6022913960400191505060405180910390fd5b600780546001600160a01b0319166001600160a01b0392909216919091179055565b60095481565b6006546001600160a01b031633146114cf5760405162461bcd60e51b81526004018080602001828103825260248152602001806126e06024913960400191505060405180910390fd5b6114d9828261227e565b5050565b600b54600160a01b900460ff1681565b60055461010090046001600160a01b031690565b600061150b610d99565b8061152057506008546001600160a01b031633145b61155b5760405162461bcd60e51b815260040180806020018281038252602c8152602001806127ba602c913960400191505060405180910390fd5b6001600160a01b0382166000908152600e602052604090205460ff166115c8576040805162461bcd60e51b815260206004820152601960248201527f616464726573732063616e277420626520696e636c7564656400000000000000604482015290519081900360640190fd5b506001600160a01b03166000908152600e60205260409020805460ff19169055600190565b60048054604080516020601f60026000196101006001881615020190951694909404938401819004810282018101909252828152606093909290918301828280156108fe5780601f106108d3576101008083540402835291602001916108fe565b600654600160a01b900460ff1681565b6008546000906001600160a01b031633146116ae576040805162461bcd60e51b815260206004820152601c60248201526000805160206125ac833981519152604482015290519081900360640190fd5b600a9190915590565b600061091d6116c4611b46565b84610a058560405180606001604052806025815260200161283660259139600160006116ee611b46565b6001600160a01b03908116825260208083019390935260409182016000908120918d16815292529020549190611fec565b600c5490565b600061091d611732611b46565b8484611e18565b6008546000906001600160a01b03163314611789576040805162461bcd60e51b815260206004820152601c60248201526000805160206125ac833981519152604482015290519081900360640190fd5b611791611940565b8360ff16106117d15760405162461bcd60e51b815260040180806020018281038252602a815260200180612704602a913960400191505060405180910390fd5b81600d8460ff168154811061121957fe5b600b546001600160a01b031681565b6008546001600160a01b0316331461183e576040805162461bcd60e51b815260206004820152601c60248201526000805160206125ac833981519152604482015290519081900360640190fd5b600b54600160a01b900460ff16156118875760405162461bcd60e51b81526004018080602001828103825260248152602001806127716024913960400191505060405180910390fd5b61271081106118dd576040805162461bcd60e51b815260206004820152601b60248201527f74617820657175616c206f722062696767657220746f20313030250000000000604482015290519081900360640190fd5b600955565b600e6020526000908152604090205460ff1681565b6001600160a01b03918216600090815260016020908152604080832093909416825291909152205490565b6001600160a01b03166000908152600e602052604090205460ff1690565b600d5490565b61194e611b46565b6001600160a01b031661195f6114ed565b6001600160a01b0316146119ba576040805162461bcd60e51b815260206004820181905260248201527f4f776e61626c653a2063616c6c6572206973206e6f7420746865206f776e6572604482015290519081900360640190fd5b6001600160a01b0381166119ff5760405162461bcd60e51b81526004018080602001828103825260268152602001806125646026913960400191505060405180910390fd5b6005546040516001600160a01b0380841692610100900416907f8be0079c531659141344cd1fd0a4f28419497f9722a3daafe3b4186f6b6457e090600090a3600580546001600160a01b0390921661010002610100600160a81b0319909216919091179055565b6007546001600160a01b031681565b6008546001600160a01b03163314611ac2576040805162461bcd60e51b815260206004820152601c60248201526000805160206125ac833981519152604482015290519081900360640190fd5b600b805460ff60a01b1916600160a01b179055565b6901e7e4171bf4d3a0000081565b600082820183811015611b3f576040805162461bcd60e51b815260206004820152601b60248201527f536166654d6174683a206164646974696f6e206f766572666c6f770000000000604482015290519081900360640190fd5b9392505050565b3390565b6001600160a01b038316611b8f5760405162461bcd60e51b81526004018080602001828103825260248152602001806127e66024913960400191505060405180910390fd5b6001600160a01b038216611bd45760405162461bcd60e51b815260040180806020018281038252602281526020018061258a6022913960400191505060405180910390fd5b6001600160a01b03808416600081815260016020908152604080832094871680845294825291829020859055815185815291517f8c5be1e5ebec7d5bd14f71427d1e84f3dd0314c0f7b2291e5b200ac8c7c3b9259281900390910190a3505050565b60075460408051633ddac95360e01b8152306004820152670de0b6b3a7640000602482015290516000926001600160a01b031691633ddac953916044808301926020929190829003018186803b158015611c8f57600080fd5b505afa925050508015611cb457506040513d6020811015611caf57600080fd5b505160015b611cef5760405162461bcd60e51b815260040180806020018281038252602c81526020018061280a602c913960400191505060405180910390fd5b71ffffffffffffffffffffffffffffffffffff169050610906565b600b54600090600160a01b900460ff1615610b8f576000611d376001611d2e61171f565b60ff16906122c7565b90505b600c8160ff1681548110611d4a57fe5b90600052602060002001548310611e0f57612710600d8260ff1681548110611d6e57fe5b906000526020600020015410611dcb576040805162461bcd60e51b815260206004820152601b60248201527f74617820657175616c206f722062696767657220746f20313030250000000000604482015290519081900360640190fd5b600d8160ff1681548110611ddb57fe5b9060005260206000200154600981905550600d8160ff1681548110611dfc57fe5b9060005260206000200154915050610b8f565b60001901611d3a565b6001600160a01b038316611e5d5760405162461bcd60e51b81526004018080602001828103825260258152602001806127956025913960400191505060405180910390fd5b6001600160a01b038216611ea25760405162461bcd60e51b815260040180806020018281038252602381526020018061251f6023913960400191505060405180910390fd5b611ead838383610faa565b611eea816040518060600160405280602681526020016125cc602691396001600160a01b0386166000908152602081905260409020549190611fec565b6001600160a01b038085166000908152602081905260408082209390935590841681522054611f199082611ae5565b6001600160a01b038084166000818152602081815260409182902094909455805185815290519193928716927fddf252ad1be2c89b69c2b068fc378daa952ba7f163c4a11628f55a4df523b3ef92918290030190a3505050565b600080611f97612710611f916009548761230990919063ffffffff16565b90612362565b90506000611fa58583612221565b90508315611fbc57611fb7878361227e565b611fd4565b600b54611fd49088906001600160a01b031684611e18565b611fdf878783611e18565b5060019695505050505050565b6000818484111561207b5760405162461bcd60e51b81526004018080602001828103825283818151815260200191508051906020019080838360005b83811015612040578181015183820152602001612028565b50505050905090810190601f16801561206d5780820380516001836020036101000a031916815260200191505b509250505060405180910390fd5b505050900390565b6001600160a01b0381166120c85760405162461bcd60e51b815260040180806020018281038252602d815260200180612618602d913960400191505060405180910390fd5b6040516001600160a01b038216906000907f74da04524d50c64947f5dd5381ef1a4dca5cba8ed1d816243f9e48aa0b5617ed908290a3600680546001600160a01b0319166001600160a01b0392909216919091179055565b6001600160a01b03821661217b576040805162461bcd60e51b815260206004820152601f60248201527f45524332303a206d696e7420746f20746865207a65726f206164647265737300604482015290519081900360640190fd5b61218760008383610faa565b6002546121949082611ae5565b6002556001600160a01b0382166000908152602081905260409020546121ba9082611ae5565b6001600160a01b0383166000818152602081815260408083209490945583518581529351929391927fddf252ad1be2c89b69c2b068fc378daa952ba7f163c4a11628f55a4df523b3ef9281900390910190a35050565b610a9361221b611b46565b826123c9565b600082821115612278576040805162461bcd60e51b815260206004820152601e60248201527f536166654d6174683a207375627472616374696f6e206f766572666c6f770000604482015290519081900360640190fd5b50900390565b60006122a9826040518060600160405280602481526020016126bc602491396109fe866109f9611b46565b90506122bd836122b7611b46565b83611b4a565b610faa83836123c9565b6000611b3f83836040518060400160405280601e81526020017f536166654d6174683a207375627472616374696f6e206f766572666c6f7700008152506124c5565b60008261231857506000610921565b8282028284828161232557fe5b0414611b3f5760405162461bcd60e51b81526004018080602001828103825260218152602001806126456021913960400191505060405180910390fd5b60008082116123b8576040805162461bcd60e51b815260206004820152601a60248201527f536166654d6174683a206469766973696f6e206279207a65726f000000000000604482015290519081900360640190fd5b8183816123c157fe5b049392505050565b6001600160a01b03821661240e5760405162461bcd60e51b815260040180806020018281038252602181526020018061272e6021913960400191505060405180910390fd5b61241a82600083610faa565b61245781604051806060016040528060228152602001612542602291396001600160a01b0385166000908152602081905260409020549190611fec565b6001600160a01b03831660009081526020819052604090205560025461247d9082612221565b6002556040805182815290516000916001600160a01b038516917fddf252ad1be2c89b69c2b068fc378daa952ba7f163c4a11628f55a4df523b3ef9181900360200190a35050565b60008360ff168360ff161115829061207b5760405162461bcd60e51b815260206004820181815283516024840152835190928392604490910191908501908083836000831561204057818101518382015260200161202856fe45524332303a207472616e7366657220746f20746865207a65726f206164647265737345524332303a206275726e20616d6f756e7420657863656564732062616c616e63654f776e61626c653a206e6577206f776e657220697320746865207a65726f206164647265737345524332303a20617070726f766520746f20746865207a65726f206164647265737343616c6c6572206973206e6f742074686520746178206f66666963650000000045524332303a207472616e7366657220616d6f756e7420657863656564732062616c616e6365746178206f666669636520616464726573732063616e6e6f74206265203020616464726573736f70657261746f723a207a65726f206164647265737320676976656e20666f72206e6577206f70657261746f72536166654d6174683a206d756c7469706c69636174696f6e206f766572666c6f7745524332303a207472616e7366657220616d6f756e74206578636565647320616c6c6f77616e636574617820636f6c6c6563746f722061646472657373206d757374206265206e6f6e2d7a65726f206164647265737345524332303a206275726e20616d6f756e74206578636565647320616c6c6f77616e63656f70657261746f723a2063616c6c6572206973206e6f7420746865206f70657261746f72496e6465782068617320746f206c6f776572207468616e20636f756e74206f662074617820746965727345524332303a206275726e2066726f6d20746865207a65726f20616464726573736f7261636c6520616464726573732063616e6e6f74206265203020616464726573736175746f2063616c63756c617465207461782063616e6e6f7420626520656e61626c656445524332303a207472616e736665722066726f6d20746865207a65726f206164647265737343616c6c6572206973206e6f7420746865206f70657261746f72206f722074686520746178206f666669636545524332303a20617070726f76652066726f6d20746865207a65726f2061646472657373546f6d623a206661696c656420746f20666574636820544f4d422070726963652066726f6d204f7261636c6545524332303a2064656372656173656420616c6c6f77616e63652062656c6f77207a65726fa26469706673582212207cc0d2d82183ce53b638bdcc83a6eb2b42da6d24b3703e6c02a1167c868be8ce64736f6c634300060c003374617820636f6c6c6563746f722061646472657373206d757374206265206e6f6e2d7a65726f206164647265737343616c6c6572206973206e6f7420746865206f70657261746f72206f722074686520746178206f6666696365",
  "devdoc": {
    "kind": "dev",
    "methods": {
      "allowance(address,address)": {
        "details": "See {IERC20-allowance}."
      },
      "approve(address,uint256)": {
        "details": "See {IERC20-approve}. Requirements: - `spender` cannot be the zero address."
      },
      "balanceOf(address)": {
        "details": "See {IERC20-balanceOf}."
      },
      "burn(uint256)": {
        "details": "Destroys `amount` tokens from the caller. See {ERC20-_burn}."
      },
      "burnFrom(address,uint256)": {
        "details": "Destroys `amount` tokens from `account`, deducting from the caller's allowance. See {ERC20-_burn} and {ERC20-allowance}. Requirements: - the caller must have allowance for ``accounts``'s tokens of at least `amount`."
      },
      "decimals()": {
        "details": "Returns the number of decimals used to get its user representation. For example, if `decimals` equals `2`, a balance of `505` tokens should be displayed to a user as `5,05` (`505 / 10 ** 2`). Tokens usually opt for a value of 18, imitating the relationship between Ether and Wei. This is the value {ERC20} uses, unless {_setupDecimals} is called. NOTE: This information is only used for _display_ purposes: it in no way affects any of the arithmetic of the contract, including {IERC20-balanceOf} and {IERC20-transfer}."
      },
      "decreaseAllowance(address,uint256)": {
        "details": "Atomically decreases the allowance granted to `spender` by the caller. This is an alternative to {approve} that can be used as a mitigation for problems described in {IERC20-approve}. Emits an {Approval} event indicating the updated allowance. Requirements: - `spender` cannot be the zero address. - `spender` must have allowance for the caller of at least `subtractedValue`."
      },
      "increaseAllowance(address,uint256)": {
        "details": "Atomically increases the allowance granted to `spender` by the caller. This is an alternative to {approve} that can be used as a mitigation for problems described in {IERC20-approve}. Emits an {Approval} event indicating the updated allowance. Requirements: - `spender` cannot be the zero address."
      },
      "mint(address,uint256)": {
        "params": {
          "amount_": "The amount of TOMB to mint to",
          "recipient_": "The address of recipient"
        },
        "returns": {
          "_0": "whether the process has been done"
        }
      },
      "name()": {
        "details": "Returns the name of the token."
      },
      "owner()": {
        "details": "Returns the address of the current owner."
      },
      "renounceOwnership()": {
        "details": "Leaves the contract without owner. It will not be possible to call `onlyOwner` functions anymore. Can only be called by the current owner. NOTE: Renouncing ownership will leave the contract without an owner, thereby removing any functionality that is only available to the owner."
      },
      "symbol()": {
        "details": "Returns the symbol of the token, usually a shorter version of the name."
      },
      "totalSupply()": {
        "details": "See {IERC20-totalSupply}."
      },
      "transfer(address,uint256)": {
        "details": "See {IERC20-transfer}. Requirements: - `recipient` cannot be the zero address. - the caller must have a balance of at least `amount`."
      },
      "transferFrom(address,address,uint256)": {
        "details": "See {IERC20-transferFrom}. Emits an {Approval} event indicating the updated allowance. This is not required by the EIP. See the note at the beginning of {ERC20}. Requirements: - `sender` and `recipient` cannot be the zero address. - `sender` must have a balance of at least `amount`. - the caller must have allowance for ``sender``'s tokens of at least `amount`."
      },
      "transferOwnership(address)": {
        "details": "Transfers ownership of the contract to a new account (`newOwner`). Can only be called by the current owner."
      }
    },
    "version": 1
  },
  "userdoc": {
    "kind": "user",
    "methods": {
      "constructor": "Constructs the TOMB ERC-20 contract.",
      "distributeReward(address,address,address)": {
        "notice": "distribute to reward pool (only once)"
      },
      "mint(address,uint256)": {
        "notice": "Operator mints TOMB to a recipient"
      }
    },
    "version": 1
  },
  "storageLayout": {
    "storage": [
      {
        "astId": 557,
        "contract": "contracts/Tomb.sol:Tomb",
        "label": "_balances",
        "offset": 0,
        "slot": "0",
        "type": "t_mapping(t_address,t_uint256)"
      },
      {
        "astId": 563,
        "contract": "contracts/Tomb.sol:Tomb",
        "label": "_allowances",
        "offset": 0,
        "slot": "1",
        "type": "t_mapping(t_address,t_mapping(t_address,t_uint256))"
      },
      {
        "astId": 565,
        "contract": "contracts/Tomb.sol:Tomb",
        "label": "_totalSupply",
        "offset": 0,
        "slot": "2",
        "type": "t_uint256"
      },
      {
        "astId": 567,
        "contract": "contracts/Tomb.sol:Tomb",
        "label": "_name",
        "offset": 0,
        "slot": "3",
        "type": "t_string_storage"
      },
      {
        "astId": 569,
        "contract": "contracts/Tomb.sol:Tomb",
        "label": "_symbol",
        "offset": 0,
        "slot": "4",
        "type": "t_string_storage"
      },
      {
        "astId": 571,
        "contract": "contracts/Tomb.sol:Tomb",
        "label": "_decimals",
        "offset": 0,
        "slot": "5",
        "type": "t_uint8"
      },
      {
        "astId": 10,
        "contract": "contracts/Tomb.sol:Tomb",
        "label": "_owner",
        "offset": 1,
        "slot": "5",
        "type": "t_address"
      },
      {
        "astId": 12175,
        "contract": "contracts/Tomb.sol:Tomb",
        "label": "_operator",
        "offset": 0,
        "slot": "6",
        "type": "t_address"
      },
      {
        "astId": 4417,
        "contract": "contracts/Tomb.sol:Tomb",
        "label": "rewardPoolDistributed",
        "offset": 20,
        "slot": "6",
        "type": "t_bool"
      },
      {
        "astId": 4419,
        "contract": "contracts/Tomb.sol:Tomb",
        "label": "tombOracle",
        "offset": 0,
        "slot": "7",
        "type": "t_address"
      },
      {
        "astId": 4421,
        "contract": "contracts/Tomb.sol:Tomb",
        "label": "taxOffice",
        "offset": 0,
        "slot": "8",
        "type": "t_address"
      },
      {
        "astId": 4423,
        "contract": "contracts/Tomb.sol:Tomb",
        "label": "taxRate",
        "offset": 0,
        "slot": "9",
        "type": "t_uint256"
      },
      {
        "astId": 4426,
        "contract": "contracts/Tomb.sol:Tomb",
        "label": "burnThreshold",
        "offset": 0,
        "slot": "10",
        "type": "t_uint256"
      },
      {
        "astId": 4428,
        "contract": "contracts/Tomb.sol:Tomb",
        "label": "taxCollectorAddress",
        "offset": 0,
        "slot": "11",
        "type": "t_address"
      },
      {
        "astId": 4430,
        "contract": "contracts/Tomb.sol:Tomb",
        "label": "autoCalculateTax",
        "offset": 20,
        "slot": "11",
        "type": "t_bool"
      },
      {
        "astId": 4448,
        "contract": "contracts/Tomb.sol:Tomb",
        "label": "taxTiersTwaps",
        "offset": 0,
        "slot": "12",
        "type": "t_array(t_uint256)dyn_storage"
      },
      {
        "astId": 4466,
        "contract": "contracts/Tomb.sol:Tomb",
        "label": "taxTiersRates",
        "offset": 0,
        "slot": "13",
        "type": "t_array(t_uint256)dyn_storage"
      },
      {
        "astId": 4470,
        "contract": "contracts/Tomb.sol:Tomb",
        "label": "excludedAddresses",
        "offset": 0,
        "slot": "14",
        "type": "t_mapping(t_address,t_bool)"
      }
    ],
    "types": {
      "t_address": {
        "encoding": "inplace",
        "label": "address",
        "numberOfBytes": "20"
      },
      "t_array(t_uint256)dyn_storage": {
        "base": "t_uint256",
        "encoding": "dynamic_array",
        "label": "uint256[]",
        "numberOfBytes": "32"
      },
      "t_bool": {
        "encoding": "inplace",
        "label": "bool",
        "numberOfBytes": "1"
      },
      "t_mapping(t_address,t_bool)": {
        "encoding": "mapping",
        "key": "t_address",
        "label": "mapping(address => bool)",
        "numberOfBytes": "32",
        "value": "t_bool"
      },
      "t_mapping(t_address,t_mapping(t_address,t_uint256))": {
        "encoding": "mapping",
        "key": "t_address",
        "label": "mapping(address => mapping(address => uint256))",
        "numberOfBytes": "32",
        "value": "t_mapping(t_address,t_uint256)"
      },
      "t_mapping(t_address,t_uint256)": {
        "encoding": "mapping",
        "key": "t_address",
        "label": "mapping(address => uint256)",
        "numberOfBytes": "32",
        "value": "t_uint256"
      },
      "t_string_storage": {
        "encoding": "bytes",
        "label": "string",
        "numberOfBytes": "32"
      },
      "t_uint256": {
        "encoding": "inplace",
        "label": "uint256",
        "numberOfBytes": "32"
      },
      "t_uint8": {
        "encoding": "inplace",
        "label": "uint8",
        "numberOfBytes": "1"
      }
    }
  }
}