{
  "address": "0xcd6cD62F11F9417FBD44dc0a44F891fd3E869234",
  "abi": [
    {
      "anonymous": false,
      "inputs": [
        {
          "indexed": false,
          "internalType": "uint256",
          "name": "timestamp",
          "type": "uint256"
        },
        {
          "indexed": false,
          "internalType": "uint256",
          "name": "seigniorage",
          "type": "uint256"
        }
      ],
      "name": "BoardroomFunded",
      "type": "event"
    },
    {
      "anonymous": false,
      "inputs": [
        {
          "indexed": true,
          "internalType": "address",
          "name": "from",
          "type": "address"
        },
        {
          "indexed": false,
          "internalType": "uint256",
          "name": "bombAmount",
          "type": "uint256"
        },
        {
          "indexed": false,
          "internalType": "uint256",
          "name": "bondAmount",
          "type": "uint256"
        }
      ],
      "name": "BoughtBonds",
      "type": "event"
    },
    {
      "anonymous": false,
      "inputs": [
        {
          "indexed": true,
          "internalType": "address",
          "name": "from",
          "type": "address"
        },
        {
          "indexed": false,
          "internalType": "uint256",
          "name": "bondAmount",
          "type": "uint256"
        }
      ],
      "name": "BurnedBonds",
      "type": "event"
    },
    {
      "anonymous": false,
      "inputs": [
        {
          "indexed": false,
          "internalType": "uint256",
          "name": "timestamp",
          "type": "uint256"
        },
        {
          "indexed": false,
          "internalType": "uint256",
          "name": "seigniorage",
          "type": "uint256"
        }
      ],
      "name": "DaoFundFunded",
      "type": "event"
    },
    {
      "anonymous": false,
      "inputs": [
        {
          "indexed": false,
          "internalType": "uint256",
          "name": "timestamp",
          "type": "uint256"
        },
        {
          "indexed": false,
          "internalType": "uint256",
          "name": "seigniorage",
          "type": "uint256"
        }
      ],
      "name": "DevFundFunded",
      "type": "event"
    },
    {
      "anonymous": false,
      "inputs": [
        {
          "indexed": true,
          "internalType": "address",
          "name": "executor",
          "type": "address"
        },
        {
          "indexed": false,
          "internalType": "uint256",
          "name": "at",
          "type": "uint256"
        }
      ],
      "name": "Initialized",
      "type": "event"
    },
    {
      "anonymous": false,
      "inputs": [
        {
          "indexed": true,
          "internalType": "address",
          "name": "from",
          "type": "address"
        },
        {
          "indexed": false,
          "internalType": "uint256",
          "name": "bombAmount",
          "type": "uint256"
        },
        {
          "indexed": false,
          "internalType": "uint256",
          "name": "bondAmount",
          "type": "uint256"
        }
      ],
      "name": "RedeemedBonds",
      "type": "event"
    },
    {
      "anonymous": false,
      "inputs": [
        {
          "indexed": false,
          "internalType": "uint256",
          "name": "timestamp",
          "type": "uint256"
        },
        {
          "indexed": false,
          "internalType": "uint256",
          "name": "seigniorage",
          "type": "uint256"
        }
      ],
      "name": "TreasuryFunded",
      "type": "event"
    },
    {
      "inputs": [],
      "name": "PERIOD",
      "outputs": [
        {
          "internalType": "uint256",
          "name": "",
          "type": "uint256"
        }
      ],
      "stateMutability": "view",
      "type": "function"
    },
    {
      "inputs": [],
      "name": "allocateSeigniorage",
      "outputs": [],
      "stateMutability": "nonpayable",
      "type": "function"
    },
    {
      "inputs": [],
      "name": "bbond",
      "outputs": [
        {
          "internalType": "address",
          "name": "",
          "type": "address"
        }
      ],
      "stateMutability": "view",
      "type": "function"
    },
    {
      "inputs": [],
      "name": "boardroom",
      "outputs": [
        {
          "internalType": "address",
          "name": "",
          "type": "address"
        }
      ],
      "stateMutability": "view",
      "type": "function"
    },
    {
      "inputs": [
        {
          "internalType": "uint256",
          "name": "amount",
          "type": "uint256"
        }
      ],
      "name": "boardroomAllocateSeigniorage",
      "outputs": [],
      "stateMutability": "nonpayable",
      "type": "function"
    },
    {
      "inputs": [
        {
          "internalType": "address",
          "name": "_token",
          "type": "address"
        },
        {
          "internalType": "uint256",
          "name": "_amount",
          "type": "uint256"
        },
        {
          "internalType": "address",
          "name": "_to",
          "type": "address"
        }
      ],
      "name": "boardroomGovernanceRecoverUnsupported",
      "outputs": [],
      "stateMutability": "nonpayable",
      "type": "function"
    },
    {
      "inputs": [
        {
          "internalType": "uint256",
          "name": "_withdrawLockupEpochs",
          "type": "uint256"
        },
        {
          "internalType": "uint256",
          "name": "_rewardLockupEpochs",
          "type": "uint256"
        }
      ],
      "name": "boardroomSetLockUp",
      "outputs": [],
      "stateMutability": "nonpayable",
      "type": "function"
    },
    {
      "inputs": [
        {
          "internalType": "address",
          "name": "_operator",
          "type": "address"
        }
      ],
      "name": "boardroomSetOperator",
      "outputs": [],
      "stateMutability": "nonpayable",
      "type": "function"
    },
    {
      "inputs": [],
      "name": "bomb",
      "outputs": [
        {
          "internalType": "address",
          "name": "",
          "type": "address"
        }
      ],
      "stateMutability": "view",
      "type": "function"
    },
    {
      "inputs": [],
      "name": "bombOracle",
      "outputs": [
        {
          "internalType": "address",
          "name": "",
          "type": "address"
        }
      ],
      "stateMutability": "view",
      "type": "function"
    },
    {
      "inputs": [],
      "name": "bombPriceCeiling",
      "outputs": [
        {
          "internalType": "uint256",
          "name": "",
          "type": "uint256"
        }
      ],
      "stateMutability": "view",
      "type": "function"
    },
    {
      "inputs": [],
      "name": "bombPriceOne",
      "outputs": [
        {
          "internalType": "uint256",
          "name": "",
          "type": "uint256"
        }
      ],
      "stateMutability": "view",
      "type": "function"
    },
    {
      "inputs": [],
      "name": "bondDepletionFloorPercent",
      "outputs": [
        {
          "internalType": "uint256",
          "name": "",
          "type": "uint256"
        }
      ],
      "stateMutability": "view",
      "type": "function"
    },
    {
      "inputs": [],
      "name": "bootstrapEpochs",
      "outputs": [
        {
          "internalType": "uint256",
          "name": "",
          "type": "uint256"
        }
      ],
      "stateMutability": "view",
      "type": "function"
    },
    {
      "inputs": [],
      "name": "bootstrapSupplyExpansionPercent",
      "outputs": [
        {
          "internalType": "uint256",
          "name": "",
          "type": "uint256"
        }
      ],
      "stateMutability": "view",
      "type": "function"
    },
    {
      "inputs": [],
      "name": "bshare",
      "outputs": [
        {
          "internalType": "address",
          "name": "",
          "type": "address"
        }
      ],
      "stateMutability": "view",
      "type": "function"
    },
    {
      "inputs": [
        {
          "internalType": "uint256",
          "name": "_bombAmount",
          "type": "uint256"
        },
        {
          "internalType": "uint256",
          "name": "targetPrice",
          "type": "uint256"
        }
      ],
      "name": "buyBonds",
      "outputs": [],
      "stateMutability": "nonpayable",
      "type": "function"
    },
    {
      "inputs": [],
      "name": "daoFund",
      "outputs": [
        {
          "internalType": "address",
          "name": "",
          "type": "address"
        }
      ],
      "stateMutability": "view",
      "type": "function"
    },
    {
      "inputs": [],
      "name": "daoFundSharedPercent",
      "outputs": [
        {
          "internalType": "uint256",
          "name": "",
          "type": "uint256"
        }
      ],
      "stateMutability": "view",
      "type": "function"
    },
    {
      "inputs": [],
      "name": "devFund",
      "outputs": [
        {
          "internalType": "address",
          "name": "",
          "type": "address"
        }
      ],
      "stateMutability": "view",
      "type": "function"
    },
    {
      "inputs": [],
      "name": "devFundSharedPercent",
      "outputs": [
        {
          "internalType": "uint256",
          "name": "",
          "type": "uint256"
        }
      ],
      "stateMutability": "view",
      "type": "function"
    },
    {
      "inputs": [],
      "name": "discountPercent",
      "outputs": [
        {
          "internalType": "uint256",
          "name": "",
          "type": "uint256"
        }
      ],
      "stateMutability": "view",
      "type": "function"
    },
    {
      "inputs": [],
      "name": "epoch",
      "outputs": [
        {
          "internalType": "uint256",
          "name": "",
          "type": "uint256"
        }
      ],
      "stateMutability": "view",
      "type": "function"
    },
    {
      "inputs": [],
      "name": "epochSupplyContractionLeft",
      "outputs": [
        {
          "internalType": "uint256",
          "name": "",
          "type": "uint256"
        }
      ],
      "stateMutability": "view",
      "type": "function"
    },
    {
      "inputs": [
        {
          "internalType": "uint256",
          "name": "",
          "type": "uint256"
        }
      ],
      "name": "excludedFromTotalSupply",
      "outputs": [
        {
          "internalType": "address",
          "name": "",
          "type": "address"
        }
      ],
      "stateMutability": "view",
      "type": "function"
    },
    {
      "inputs": [],
      "name": "getBombCirculatingSupply",
      "outputs": [
        {
          "internalType": "uint256",
          "name": "",
          "type": "uint256"
        }
      ],
      "stateMutability": "view",
      "type": "function"
    },
    {
      "inputs": [],
      "name": "getBombPrice",
      "outputs": [
        {
          "internalType": "uint256",
          "name": "bombPrice",
          "type": "uint256"
        }
      ],
      "stateMutability": "view",
      "type": "function"
    },
    {
      "inputs": [],
      "name": "getBombUpdatedPrice",
      "outputs": [
        {
          "internalType": "uint256",
          "name": "_bombPrice",
          "type": "uint256"
        }
      ],
      "stateMutability": "view",
      "type": "function"
    },
    {
      "inputs": [],
      "name": "getBondDiscountRate",
      "outputs": [
        {
          "internalType": "uint256",
          "name": "_rate",
          "type": "uint256"
        }
      ],
      "stateMutability": "view",
      "type": "function"
    },
    {
      "inputs": [],
      "name": "getBondPremiumRate",
      "outputs": [
        {
          "internalType": "uint256",
          "name": "_rate",
          "type": "uint256"
        }
      ],
      "stateMutability": "view",
      "type": "function"
    },
    {
      "inputs": [],
      "name": "getBurnableBombLeft",
      "outputs": [
        {
          "internalType": "uint256",
          "name": "_burnableBombLeft",
          "type": "uint256"
        }
      ],
      "stateMutability": "view",
      "type": "function"
    },
    {
      "inputs": [],
      "name": "getRedeemableBonds",
      "outputs": [
        {
          "internalType": "uint256",
          "name": "_redeemableBonds",
          "type": "uint256"
        }
      ],
      "stateMutability": "view",
      "type": "function"
    },
    {
      "inputs": [],
      "name": "getReserve",
      "outputs": [
        {
          "internalType": "uint256",
          "name": "",
          "type": "uint256"
        }
      ],
      "stateMutability": "view",
      "type": "function"
    },
    {
      "inputs": [
        {
          "internalType": "contract IERC20",
          "name": "_token",
          "type": "address"
        },
        {
          "internalType": "uint256",
          "name": "_amount",
          "type": "uint256"
        },
        {
          "internalType": "address",
          "name": "_to",
          "type": "address"
        }
      ],
      "name": "governanceRecoverUnsupported",
      "outputs": [],
      "stateMutability": "nonpayable",
      "type": "function"
    },
    {
      "inputs": [
        {
          "internalType": "address",
          "name": "_bomb",
          "type": "address"
        },
        {
          "internalType": "address",
          "name": "_bbond",
          "type": "address"
        },
        {
          "internalType": "address",
          "name": "_bshare",
          "type": "address"
        },
        {
          "internalType": "address",
          "name": "_bombOracle",
          "type": "address"
        },
        {
          "internalType": "address",
          "name": "_boardroom",
          "type": "address"
        },
        {
          "internalType": "uint256",
          "name": "_startTime",
          "type": "uint256"
        }
      ],
      "name": "initialize",
      "outputs": [],
      "stateMutability": "nonpayable",
      "type": "function"
    },
    {
      "inputs": [],
      "name": "initialized",
      "outputs": [
        {
          "internalType": "bool",
          "name": "",
          "type": "bool"
        }
      ],
      "stateMutability": "view",
      "type": "function"
    },
    {
      "inputs": [],
      "name": "isInitialized",
      "outputs": [
        {
          "internalType": "bool",
          "name": "",
          "type": "bool"
        }
      ],
      "stateMutability": "view",
      "type": "function"
    },
    {
      "inputs": [],
      "name": "maxDebtRatioPercent",
      "outputs": [
        {
          "internalType": "uint256",
          "name": "",
          "type": "uint256"
        }
      ],
      "stateMutability": "view",
      "type": "function"
    },
    {
      "inputs": [],
      "name": "maxDiscountRate",
      "outputs": [
        {
          "internalType": "uint256",
          "name": "",
          "type": "uint256"
        }
      ],
      "stateMutability": "view",
      "type": "function"
    },
    {
      "inputs": [
        {
          "internalType": "uint256",
          "name": "",
          "type": "uint256"
        }
      ],
      "name": "maxExpansionTiers",
      "outputs": [
        {
          "internalType": "uint256",
          "name": "",
          "type": "uint256"
        }
      ],
      "stateMutability": "view",
      "type": "function"
    },
    {
      "inputs": [],
      "name": "maxPremiumRate",
      "outputs": [
        {
          "internalType": "uint256",
          "name": "",
          "type": "uint256"
        }
      ],
      "stateMutability": "view",
      "type": "function"
    },
    {
      "inputs": [],
      "name": "maxSupplyContractionPercent",
      "outputs": [
        {
          "internalType": "uint256",
          "name": "",
          "type": "uint256"
        }
      ],
      "stateMutability": "view",
      "type": "function"
    },
    {
      "inputs": [],
      "name": "maxSupplyExpansionPercent",
      "outputs": [
        {
          "internalType": "uint256",
          "name": "",
          "type": "uint256"
        }
      ],
      "stateMutability": "view",
      "type": "function"
    },
    {
      "inputs": [],
      "name": "mintingFactorForPayingDebt",
      "outputs": [
        {
          "internalType": "uint256",
          "name": "",
          "type": "uint256"
        }
      ],
      "stateMutability": "view",
      "type": "function"
    },
    {
      "inputs": [],
      "name": "nextEpochPoint",
      "outputs": [
        {
          "internalType": "uint256",
          "name": "",
          "type": "uint256"
        }
      ],
      "stateMutability": "view",
      "type": "function"
    },
    {
      "inputs": [],
      "name": "operator",
      "outputs": [
        {
          "internalType": "address",
          "name": "",
          "type": "address"
        }
      ],
      "stateMutability": "view",
      "type": "function"
    },
    {
      "inputs": [],
      "name": "premiumPercent",
      "outputs": [
        {
          "internalType": "uint256",
          "name": "",
          "type": "uint256"
        }
      ],
      "stateMutability": "view",
      "type": "function"
    },
    {
      "inputs": [],
      "name": "premiumThreshold",
      "outputs": [
        {
          "internalType": "uint256",
          "name": "",
          "type": "uint256"
        }
      ],
      "stateMutability": "view",
      "type": "function"
    },
    {
      "inputs": [],
      "name": "previousEpochBombPrice",
      "outputs": [
        {
          "internalType": "uint256",
          "name": "",
          "type": "uint256"
        }
      ],
      "stateMutability": "view",
      "type": "function"
    },
    {
      "inputs": [
        {
          "internalType": "uint256",
          "name": "_bondAmount",
          "type": "uint256"
        },
        {
          "internalType": "uint256",
          "name": "targetPrice",
          "type": "uint256"
        }
      ],
      "name": "redeemBonds",
      "outputs": [],
      "stateMutability": "nonpayable",
      "type": "function"
    },
    {
      "inputs": [],
      "name": "seigniorageExpansionFloorPercent",
      "outputs": [
        {
          "internalType": "uint256",
          "name": "",
          "type": "uint256"
        }
      ],
      "stateMutability": "view",
      "type": "function"
    },
    {
      "inputs": [],
      "name": "seigniorageSaved",
      "outputs": [
        {
          "internalType": "uint256",
          "name": "",
          "type": "uint256"
        }
      ],
      "stateMutability": "view",
      "type": "function"
    },
    {
      "inputs": [
        {
          "internalType": "address",
          "name": "_boardroom",
          "type": "address"
        }
      ],
      "name": "setBoardroom",
      "outputs": [],
      "stateMutability": "nonpayable",
      "type": "function"
    },
    {
      "inputs": [
        {
          "internalType": "address",
          "name": "_bombOracle",
          "type": "address"
        }
      ],
      "name": "setBombOracle",
      "outputs": [],
      "stateMutability": "nonpayable",
      "type": "function"
    },
    {
      "inputs": [
        {
          "internalType": "uint256",
          "name": "_bombPriceCeiling",
          "type": "uint256"
        }
      ],
      "name": "setBombPriceCeiling",
      "outputs": [],
      "stateMutability": "nonpayable",
      "type": "function"
    },
    {
      "inputs": [
        {
          "internalType": "uint256",
          "name": "_bondDepletionFloorPercent",
          "type": "uint256"
        }
      ],
      "name": "setBondDepletionFloorPercent",
      "outputs": [],
      "stateMutability": "nonpayable",
      "type": "function"
    },
    {
      "inputs": [
        {
          "internalType": "uint256",
          "name": "_bootstrapEpochs",
          "type": "uint256"
        },
        {
          "internalType": "uint256",
          "name": "_bootstrapSupplyExpansionPercent",
          "type": "uint256"
        }
      ],
      "name": "setBootstrap",
      "outputs": [],
      "stateMutability": "nonpayable",
      "type": "function"
    },
    {
      "inputs": [
        {
          "internalType": "uint256",
          "name": "_discountPercent",
          "type": "uint256"
        }
      ],
      "name": "setDiscountPercent",
      "outputs": [],
      "stateMutability": "nonpayable",
      "type": "function"
    },
    {
      "inputs": [
        {
          "internalType": "address",
          "name": "_daoFund",
          "type": "address"
        },
        {
          "internalType": "uint256",
          "name": "_daoFundSharedPercent",
          "type": "uint256"
        },
        {
          "internalType": "address",
          "name": "_devFund",
          "type": "address"
        },
        {
          "internalType": "uint256",
          "name": "_devFundSharedPercent",
          "type": "uint256"
        }
      ],
      "name": "setExtraFunds",
      "outputs": [],
      "stateMutability": "nonpayable",
      "type": "function"
    },
    {
      "inputs": [
        {
          "internalType": "uint256",
          "name": "_maxDebtRatioPercent",
          "type": "uint256"
        }
      ],
      "name": "setMaxDebtRatioPercent",
      "outputs": [],
      "stateMutability": "nonpayable",
      "type": "function"
    },
    {
      "inputs": [
        {
          "internalType": "uint256",
          "name": "_maxDiscountRate",
          "type": "uint256"
        }
      ],
      "name": "setMaxDiscountRate",
      "outputs": [],
      "stateMutability": "nonpayable",
      "type": "function"
    },
    {
      "inputs": [
        {
          "internalType": "uint8",
          "name": "_index",
          "type": "uint8"
        },
        {
          "internalType": "uint256",
          "name": "_value",
          "type": "uint256"
        }
      ],
      "name": "setMaxExpansionTiersEntry",
      "outputs": [
        {
          "internalType": "bool",
          "name": "",
          "type": "bool"
        }
      ],
      "stateMutability": "nonpayable",
      "type": "function"
    },
    {
      "inputs": [
        {
          "internalType": "uint256",
          "name": "_maxPremiumRate",
          "type": "uint256"
        }
      ],
      "name": "setMaxPremiumRate",
      "outputs": [],
      "stateMutability": "nonpayable",
      "type": "function"
    },
    {
      "inputs": [
        {
          "internalType": "uint256",
          "name": "_maxSupplyContractionPercent",
          "type": "uint256"
        }
      ],
      "name": "setMaxSupplyContractionPercent",
      "outputs": [],
      "stateMutability": "nonpayable",
      "type": "function"
    },
    {
      "inputs": [
        {
          "internalType": "uint256",
          "name": "_maxSupplyExpansionPercent",
          "type": "uint256"
        }
      ],
      "name": "setMaxSupplyExpansionPercents",
      "outputs": [],
      "stateMutability": "nonpayable",
      "type": "function"
    },
    {
      "inputs": [
        {
          "internalType": "uint256",
          "name": "_mintingFactorForPayingDebt",
          "type": "uint256"
        }
      ],
      "name": "setMintingFactorForPayingDebt",
      "outputs": [],
      "stateMutability": "nonpayable",
      "type": "function"
    },
    {
      "inputs": [
        {
          "internalType": "address",
          "name": "_operator",
          "type": "address"
        }
      ],
      "name": "setOperator",
      "outputs": [],
      "stateMutability": "nonpayable",
      "type": "function"
    },
    {
      "inputs": [
        {
          "internalType": "uint256",
          "name": "_premiumPercent",
          "type": "uint256"
        }
      ],
      "name": "setPremiumPercent",
      "outputs": [],
      "stateMutability": "nonpayable",
      "type": "function"
    },
    {
      "inputs": [
        {
          "internalType": "uint256",
          "name": "_premiumThreshold",
          "type": "uint256"
        }
      ],
      "name": "setPremiumThreshold",
      "outputs": [],
      "stateMutability": "nonpayable",
      "type": "function"
    },
    {
      "inputs": [
        {
          "internalType": "uint8",
          "name": "_index",
          "type": "uint8"
        },
        {
          "internalType": "uint256",
          "name": "_value",
          "type": "uint256"
        }
      ],
      "name": "setSupplyTiersEntry",
      "outputs": [
        {
          "internalType": "bool",
          "name": "",
          "type": "bool"
        }
      ],
      "stateMutability": "nonpayable",
      "type": "function"
    },
    {
      "inputs": [],
      "name": "startTime",
      "outputs": [
        {
          "internalType": "uint256",
          "name": "",
          "type": "uint256"
        }
      ],
      "stateMutability": "view",
      "type": "function"
    },
    {
      "inputs": [
        {
          "internalType": "uint256",
          "name": "",
          "type": "uint256"
        }
      ],
      "name": "supplyTiers",
      "outputs": [
        {
          "internalType": "uint256",
          "name": "",
          "type": "uint256"
        }
      ],
      "stateMutability": "view",
      "type": "function"
    }
  ],
  "transactionHash": "0x6e40b369a16f7f7591680316f179180d4b7d4e7b5c75718de0d948eab0dc3cd3",
  "args": [],
  "solcInputHash": "053227a06e4f4d47da046f3471660065",
  "bytecode": "0x6001805460ff60a01b191690556000600381905560045560c060405273b7e1e341b2cbcc7d1edf4dc6e5e962ae5c621ca560809081527304b79c851ed1a36549c6151189c79ec0eabca74560a0526200005d90600590600262000072565b503480156200006b57600080fd5b50620000fd565b828054828255906000526020600020908101928215620000ca579160200282015b82811115620000ca57825182546001600160a01b0319166001600160a01b0390911617825560209092019160019091019062000093565b50620000d8929150620000dc565b5090565b5b80821115620000d85780546001600160a01b0319168155600101620000dd565b6146a9806200010d6000396000f3fe608060405234801561001057600080fd5b50600436106104285760003560e01c80638d934f741161022b578063b8a878f911610130578063d98f2495116100b8578063e90b245411610087578063e90b24541461099b578063eae1c250146109a3578063f14698de146109ab578063f8cd4d72146109b3578063fcb6f008146109d657610428565b8063d98f24951461097b578063da3ed41914610983578063dbf88c361461098b578063e372a36f1461099357610428565b8063c8f987f3116100ff578063c8f987f314610902578063cbf3149e1461090a578063cecce38e14610930578063d2d865a01461094d578063d4b149441461095557610428565b8063b8a878f9146108b0578063bcc81f19146108b8578063c5967c26146108f2578063c8412d02146108fa57610428565b8063a0487eea116101b3578063b06ce14a11610182578063b06ce14a1461082e578063b1b0c49e14610854578063b3ab15fb1461085c578063b3ffc77714610882578063b4d1d795146108a857610428565b8063a0487eea146107b6578063a204452b146107d3578063a3ec30fe146107f0578063a51d9c851461082657610428565b806395b6ef0c116101fa57806395b6ef0c1461070b57806398b762a11461075757806399820025146107745780639a9f370e146107915780639beb31df146107ae57610428565b80638d934f74146106b2578063900cf0cf146106ba57806391bbfed5146106c2578063940e6064146106e557610428565b8063499f3f19116103315780635b756179116102b957806381d11eaf1161028857806381d11eaf1461066057806382cad83814610668578063857dda7714610685578063874106cc1461068d5780638c664db61461069557610428565b80635b756179146106405780635e02c51e1461064857806372c054f91461065057806378e979251461065857610428565b8063570ca73511610300578063570ca73514610603578063591663e11461060b57806359bf5d39146106285780635a0fc79c146106305780635a34c2051461063857610428565b8063499f3f191461058557806354575af4146105a257806354f04a11146105d857806355ebdeef146105fb57610428565b80631a01502f116103b457806336509ac61161038357806336509ac61461052c578063392e53cd146105345780634013a08e1461053c57806340af7ba5146105445780634390d2a81461056157610428565b80631a01502f1461050c57806322f832cd1461051457806329ef19191461051c5780632e9c7b651461052457610428565b80630cf60175116103fb5780630cf60175146104a05780630db7eb0b146104a8578063118ebbf9146104b0578063154ec2db146104d3578063158ef93e146104f057610428565b806301a937831461042d57806303be7e761461044c57806304e5c7b1146104665780630b5bcec714610483575b600080fd5b61044a6004803603602081101561044357600080fd5b50356109de565b005b610454610a8f565b60408051918252519081900360200190f35b61044a6004803603602081101561047c57600080fd5b5035610a95565b61044a6004803603602081101561049957600080fd5b5035610b64565b610454610c00565b610454610cb2565b61044a600480360360408110156104c657600080fd5b5080359060200135610d54565b61044a600480360360208110156104e957600080fd5b50356113af565b6104f8611454565b604080519115158252519081900360200190f35b610454611464565b61045461146a565b610454611470565b610454611476565b61045461147c565b6104f8611482565b610454611493565b61044a6004803603602081101561055a57600080fd5b5035611499565b61056961153e565b604080516001600160a01b039092168252519081900360200190f35b61044a6004803603602081101561059b57600080fd5b503561154d565b61044a600480360360608110156105b857600080fd5b506001600160a01b038135811691602081013591604090910135166115ea565b61044a600480360360408110156105ee57600080fd5b508035906020013561172f565b610454611e6c565b610569611e72565b61044a6004803603602081101561062157600080fd5b5035611e81565b610454611f23565b610454611f29565b610454611f2f565b61044a611f35565b6105696125e3565b6104546125f2565b6104546126b0565b6104546126b6565b6105696004803603602081101561067e57600080fd5b50356126bc565b6104546126e3565b6104546127c0565b61044a600480360360208110156106ab57600080fd5b50356127c6565b610569612868565b610454612877565b61044a600480360360408110156106d857600080fd5b508035906020013561287d565b6104f8600480360360408110156106fb57600080fd5b5060ff8135169060200135612975565b61044a600480360360c081101561072157600080fd5b506001600160a01b0381358116916020810135821691604082013581169160608101358216916080820135169060a00135612a91565b61044a6004803603602081101561076d57600080fd5b5035612d7d565b6104546004803603602081101561078a57600080fd5b5035612dcb565b61044a600480360360208110156107a757600080fd5b5035612de9565b610569612ea3565b610454600480360360208110156107cc57600080fd5b5035612eb2565b61044a600480360360208110156107e957600080fd5b5035612ebf565b61044a6004803603606081101561080657600080fd5b506001600160a01b03813581169160208101359160409091013516612f0d565b610454612fd0565b61044a6004803603602081101561084457600080fd5b50356001600160a01b0316613110565b6105696131a7565b61044a6004803603602081101561087257600080fd5b50356001600160a01b03166131b6565b61044a6004803603602081101561089857600080fd5b50356001600160a01b0316613221565b61045461328c565b610454613292565b61044a600480360360808110156108ce57600080fd5b506001600160a01b0381358116916020810135916040820135169060600135613298565b61045461342d565b610454613457565b61045461345d565b61044a6004803603602081101561092057600080fd5b50356001600160a01b0316613463565b61044a6004803603602081101561094657600080fd5b50356134ce565b61045461356f565b6104f86004803603604081101561096b57600080fd5b5060ff8135169060200135613674565b61045461376e565b610454613774565b61056961377a565b610569613789565b610454613798565b61045461379e565b610454613800565b61044a600480360360408110156109c957600080fd5b5080359060200135613806565b6104546138bf565b6001546001600160a01b03163314610a275760405162461bcd60e51b81526004018080602001828103825260248152602001806145486024913960400191505060405180910390fd5b600954604080516397ffe1d760e01b81526004810184905290516001600160a01b03909216916397ffe1d79160248082019260009290919082900301818387803b158015610a7457600080fd5b505af1158015610a88573d6000803e3d6000fd5b5050505050565b60215481565b6001546001600160a01b03163314610ade5760405162461bcd60e51b81526004018080602001828103825260248152602001806145486024913960400191505060405180910390fd5b600c54811015610b1f5760405162461bcd60e51b815260040180806020018281038252602a81526020018061464a602a913960400191505060405180910390fd5b6096811115610b5f5760405162461bcd60e51b81526004018080602001828103825260248152602001806143dc6024913960400191505060405180910390fd5b601b55565b6001546001600160a01b03163314610bad5760405162461bcd60e51b81526004018080602001828103825260248152602001806145486024913960400191505060405180910390fd5b600a8110158015610bc057506103e88111155b610bfb5760405162461bcd60e51b81526004018080602001828103825260288152602001806144f76028913960400191505060405180910390fd5b601055565b600080610c0b6126e3565b9050600b548111610cae57601a54610c2757600b549150610cae565b6000610c5082610c4a670de0b6b3a7640000600b546138c590919063ffffffff16565b90613925565b90506000610c7b612710610c4a601a54610c75600b548761398c90919063ffffffff16565b906138c5565b600b54909150610c8b90826139e9565b93506000601854118015610ca0575060185484115b15610cab5760185493505b50505b5090565b600080610cbd6126e3565b9050600c54811115610cae576000610ce76064610c4a601b54600b546138c590919063ffffffff16565b9050808210610d49576000610d13612710610c4a601c54610c75600b548861398c90919063ffffffff16565b600b54909150610d2390826139e9565b93506000601954118015610d38575060195484115b15610d435760195493505b50610d4f565b600b5492505b505090565b610d5c613a43565b15610d985760405162461bcd60e51b81526004018080602001828103825260268152602001806145966026913960400191505060405180910390fd5b610da0613a62565b15610ddc5760405162461bcd60e51b81526004018080602001828103825260268152602001806145966026913960400191505060405180910390fd5b600254421015610e2f576040805162461bcd60e51b8152602060048201526019602482015278151c99585cdd5c9e4e881b9bdd081cdd185c9d1959081e595d603a1b604482015290519081900360640190fd5b6006546040805163570ca73560e01b8152905130926001600160a01b03169163570ca735916004808301926020929190829003018186803b158015610e7357600080fd5b505afa158015610e87573d6000803e3d6000fd5b505050506040513d6020811015610e9d57600080fd5b50516001600160a01b0316148015610f2b57506007546040805163570ca73560e01b8152905130926001600160a01b03169163570ca735916004808301926020929190829003018186803b158015610ef457600080fd5b505afa158015610f08573d6000803e3d6000fd5b505050506040513d6020811015610f1e57600080fd5b50516001600160a01b0316145b8015610fad57506008546040805163570ca73560e01b8152905130926001600160a01b03169163570ca735916004808301926020929190829003018186803b158015610f7657600080fd5b505afa158015610f8a573d6000803e3d6000fd5b505050506040513d6020811015610fa057600080fd5b50516001600160a01b0316145b801561102f57506009546040805163570ca73560e01b8152905130926001600160a01b03169163570ca735916004808301926020929190829003018186803b158015610ff857600080fd5b505afa15801561100c573d6000803e3d6000fd5b505050506040513d602081101561102257600080fd5b50516001600160a01b0316145b611080576040805162461bcd60e51b815260206004820152601e60248201527f54726561737572793a206e656564206d6f7265207065726d697373696f6e0000604482015290519081900360640190fd5b600082116110bf5760405162461bcd60e51b815260040180806020018281038252602e8152602001806143ae602e913960400191505060405180910390fd5b60006110c96126e3565b905081811461111f576040805162461bcd60e51b815260206004820152601a60248201527f54726561737572793a20424f4d42207072696365206d6f766564000000000000604482015290519081900360640190fd5b600c54811161115f5760405162461bcd60e51b81526004018080602001828103825260328152602001806144266032913960400191505060405180910390fd5b6000611169610cb2565b9050600081116111c0576040805162461bcd60e51b815260206004820152601b60248201527f54726561737572793a20696e76616c696420626f6e6420726174650000000000604482015290519081900360640190fd5b60006111d6655af3107a4000610c4a87856138c5565b600654604080516370a0823160e01b8152306004820152905192935083926001600160a01b03909216916370a0823191602480820192602092909190829003018186803b15801561122657600080fd5b505afa15801561123a573d6000803e3d6000fd5b505050506040513d602081101561125057600080fd5b5051101561128f5760405162461bcd60e51b81526004018080602001828103825260258152602001806144586025913960400191505060405180910390fd5b6112a761129e600d5483613a81565b600d549061398c565b600d556007546040805163079cc67960e41b81523360048201526024810188905290516001600160a01b03909216916379cc67909160448082019260009290919082900301818387803b1580156112fd57600080fd5b505af1158015611311573d6000803e3d6000fd5b505060065461132d92506001600160a01b031690503383613a97565b611335613ae9565b6040805182815260208101879052815133927f51e0d16595cabc591e64da08e45bb223577e5b9a39cd947b4ddc3472b2dd8878928290030190a25050436000908152602081815260408083203284529091528082208054600160ff1991821681179092553384529190922080549091169091179055505050565b6001546001600160a01b031633146113f85760405162461bcd60e51b81526004018080602001828103825260248152602001806145486024913960400191505060405180910390fd5b614e2081111561144f576040805162461bcd60e51b815260206004820152601d60248201527f5f646973636f756e7450657263656e74206973206f7665722032303025000000604482015290519081900360640190fd5b601a55565b600154600160a01b900460ff1681565b600c5481565b60125481565b601a5481565b60195481565b600b5481565b600154600160a01b900460ff165b90565b601d5481565b6001546001600160a01b031633146114e25760405162461bcd60e51b81526004018080602001828103825260248152602001806145486024913960400191505060405180910390fd5b614e20811115611539576040805162461bcd60e51b815260206004820152601c60248201527f5f7072656d69756d50657263656e74206973206f766572203230302500000000604482015290519081900360640190fd5b601c55565b6020546001600160a01b031681565b6001546001600160a01b031633146115965760405162461bcd60e51b81526004018080602001828103825260248152602001806145486024913960400191505060405180910390fd5b61271081101580156115aa5750614e208111155b6115e55760405162461bcd60e51b81526004018080602001828103825260298152602001806144ce6029913960400191505060405180910390fd5b601d55565b6001546001600160a01b031633146116335760405162461bcd60e51b81526004018080602001828103825260248152602001806145486024913960400191505060405180910390fd5b6006546001600160a01b038481169116141561167f576040805162461bcd60e51b815260206004808301919091526024820152633137b6b160e11b604482015290519081900360640190fd5b6007546001600160a01b03848116911614156116cb576040805162461bcd60e51b81526020600480830191909152602482015263189bdb9960e21b604482015290519081900360640190fd5b6008546001600160a01b0384811691161415611716576040805162461bcd60e51b8152602060048201526005602482015264736861726560d81b604482015290519081900360640190fd5b61172a6001600160a01b0384168284613a97565b505050565b611737613a43565b156117735760405162461bcd60e51b81526004018080602001828103825260268152602001806145966026913960400191505060405180910390fd5b61177b613a62565b156117b75760405162461bcd60e51b81526004018080602001828103825260268152602001806145966026913960400191505060405180910390fd5b60025442101561180a576040805162461bcd60e51b8152602060048201526019602482015278151c99585cdd5c9e4e881b9bdd081cdd185c9d1959081e595d603a1b604482015290519081900360640190fd5b6006546040805163570ca73560e01b8152905130926001600160a01b03169163570ca735916004808301926020929190829003018186803b15801561184e57600080fd5b505afa158015611862573d6000803e3d6000fd5b505050506040513d602081101561187857600080fd5b50516001600160a01b031614801561190657506007546040805163570ca73560e01b8152905130926001600160a01b03169163570ca735916004808301926020929190829003018186803b1580156118cf57600080fd5b505afa1580156118e3573d6000803e3d6000fd5b505050506040513d60208110156118f957600080fd5b50516001600160a01b0316145b801561198857506008546040805163570ca73560e01b8152905130926001600160a01b03169163570ca735916004808301926020929190829003018186803b15801561195157600080fd5b505afa158015611965573d6000803e3d6000fd5b505050506040513d602081101561197b57600080fd5b50516001600160a01b0316145b8015611a0a57506009546040805163570ca73560e01b8152905130926001600160a01b03169163570ca735916004808301926020929190829003018186803b1580156119d357600080fd5b505afa1580156119e7573d6000803e3d6000fd5b505050506040513d60208110156119fd57600080fd5b50516001600160a01b0316145b611a5b576040805162461bcd60e51b815260206004820152601e60248201527f54726561737572793a206e656564206d6f7265207065726d697373696f6e0000604482015290519081900360640190fd5b60008211611a9a5760405162461bcd60e51b815260040180806020018281038252603081526020018061449e6030913960400191505060405180910390fd5b6000611aa46126e3565b9050818114611afa576040805162461bcd60e51b815260206004820152601a60248201527f54726561737572793a20424f4d42207072696365206d6f766564000000000000604482015290519081900360640190fd5b600b548110611b3a5760405162461bcd60e51b81526004018080602001828103825260328152602001806144266032913960400191505060405180910390fd5b600454831115611b7b5760405162461bcd60e51b815260040180806020018281038252602a8152602001806145f2602a913960400191505060405180910390fd5b6000611b85610c00565b905060008111611bdc576040805162461bcd60e51b815260206004820152601b60248201527f54726561737572793a20696e76616c696420626f6e6420726174650000000000604482015290519081900360640190fd5b6000611bf2655af3107a4000610c4a87856138c5565b90506000611bfe612fd0565b90506000611c8683600760009054906101000a90046001600160a01b03166001600160a01b03166318160ddd6040518163ffffffff1660e01b815260040160206040518083038186803b158015611c5457600080fd5b505afa158015611c68573d6000803e3d6000fd5b505050506040513d6020811015611c7e57600080fd5b5051906139e9565b9050611ca3612710610c4a601454856138c590919063ffffffff16565b811115611ced576040805162461bcd60e51b81526020600482015260136024820152726f766572206d6178206465627420726174696f60681b604482015290519081900360640190fd5b6006546040805163079cc67960e41b8152336004820152602481018a905290516001600160a01b03909216916379cc67909160448082019260009290919082900301818387803b158015611d4057600080fd5b505af1158015611d54573d6000803e3d6000fd5b5050600754604080516340c10f1960e01b81523360048201526024810188905290516001600160a01b0390921693506340c10f1992506044808201926020929091908290030181600087803b158015611dac57600080fd5b505af1158015611dc0573d6000803e3d6000fd5b505050506040513d6020811015611dd657600080fd5b5050600454611de5908861398c565b600455611df0613ae9565b6040805188815260208101859052815133927f73017f1b70789e2e66759eeb3c7ec11f59e6eedb55d921cfaec5410dd42a4799928290030190a25050436000908152602081815260408083203284529091528082208054600160ff19918216811790925533845291909220805490911690911790555050505050565b601f5481565b6001546001600160a01b031681565b6001546001600160a01b03163314611eca5760405162461bcd60e51b81526004018080602001828103825260248152602001806145486024913960400191505060405180910390fd5b6103e88110158015611ede57506127108111155b611f1e576040805162461bcd60e51b815260206004820152600c60248201526b6f7574206f662072616e676560a01b604482015290519081900360640190fd5b601455565b600d5490565b600d5481565b60175481565b611f3d613a43565b15611f795760405162461bcd60e51b81526004018080602001828103825260268152602001806145966026913960400191505060405180910390fd5b611f81613a62565b15611fbd5760405162461bcd60e51b81526004018080602001828103825260268152602001806145966026913960400191505060405180910390fd5b600254421015612010576040805162461bcd60e51b8152602060048201526019602482015278151c99585cdd5c9e4e881b9bdd081cdd185c9d1959081e595d603a1b604482015290519081900360640190fd5b61201861342d565b42101561206c576040805162461bcd60e51b815260206004820152601860248201527f54726561737572793a206e6f74206f70656e6564207965740000000000000000604482015290519081900360640190fd5b6006546040805163570ca73560e01b8152905130926001600160a01b03169163570ca735916004808301926020929190829003018186803b1580156120b057600080fd5b505afa1580156120c4573d6000803e3d6000fd5b505050506040513d60208110156120da57600080fd5b50516001600160a01b031614801561216857506007546040805163570ca73560e01b8152905130926001600160a01b03169163570ca735916004808301926020929190829003018186803b15801561213157600080fd5b505afa158015612145573d6000803e3d6000fd5b505050506040513d602081101561215b57600080fd5b50516001600160a01b0316145b80156121ea57506008546040805163570ca73560e01b8152905130926001600160a01b03169163570ca735916004808301926020929190829003018186803b1580156121b357600080fd5b505afa1580156121c7573d6000803e3d6000fd5b505050506040513d60208110156121dd57600080fd5b50516001600160a01b0316145b801561226c57506009546040805163570ca73560e01b8152905130926001600160a01b03169163570ca735916004808301926020929190829003018186803b15801561223557600080fd5b505afa158015612249573d6000803e3d6000fd5b505050506040513d602081101561225f57600080fd5b50516001600160a01b0316145b6122bd576040805162461bcd60e51b815260206004820152601e60248201527f54726561737572793a206e656564206d6f7265207065726d697373696f6e0000604482015290519081900360640190fd5b6122c5613ae9565b6122cd6126e3565b601755600d546000906122e8906122e2612fd0565b9061398c565b9050601554600354101561231e57612319612314612710610c4a601654856138c590919063ffffffff16565b613b4d565b612567565b600c54601754111561256757600754604080516318160ddd60e01b815290516000926001600160a01b0316916318160ddd916004808301926020929190829003018186803b15801561236f57600080fd5b505afa158015612383573d6000803e3d6000fd5b505050506040513d602081101561239957600080fd5b5051600b546017549192506000916123b09161398c565b905060008060006123ca655af3107a4000610c7588613e8d565b9050808411156123d8578093505b6123f3612710610c4a601154886138c590919063ffffffff16565b600d54106124165761240f655af3107a4000610c4a88876138c5565b9150612480565b600061242c655af3107a4000610c4a89886138c5565b9050612449612710610c4a601254846138c590919063ffffffff16565b9250612455818461398c565b601d549094501561247e5761247b612710610c4a601d54876138c590919063ffffffff16565b93505b505b811561248f5761248f82613b4d565b821561256157600d546124a290846139e9565b600d55600654604080516340c10f1960e01b81523060048201526024810186905290516001600160a01b03909216916340c10f19916044808201926020929091908290030181600087803b1580156124f957600080fd5b505af115801561250d573d6000803e3d6000fd5b505050506040513d602081101561252357600080fd5b5050604080514281526020810185905281517ff705142bf09f04297640495ddf7c59b7fd6f51894c5aea9602d631cf05f0efc2929181900390910190a15b50505050505b506003546125769060016139e9565b600355600c546125846126e3565b116125a25761259d612710610c4a601354610c75612fd0565b6125a5565b60005b600455436000908152602081815260408083203284529091528082208054600160ff1991821681179092553384529190922080549091169091179055565b6009546001600160a01b031681565b6000806125fd6126e3565b9050600c54811115610cae57600654604080516370a0823160e01b815230600482015290516000926001600160a01b0316916370a08231916024808301926020929190829003018186803b15801561265457600080fd5b505afa158015612668573d6000803e3d6000fd5b505050506040513d602081101561267e57600080fd5b50519050600061268c610cb2565b90508015610cab576126a881610c4a84655af3107a40006138c5565b935050505090565b60025481565b60115481565b600581815481106126c957fe5b6000918252602090912001546001600160a01b0316905081565b600a5460065460408051633ddac95360e01b81526001600160a01b039283166004820152670de0b6b3a7640000602482015290516000939290921691633ddac95391604480820192602092909190829003018186803b15801561274557600080fd5b505afa92505050801561276a57506040513d602081101561276557600080fd5b505160015b6127a55760405162461bcd60e51b81526004018080602001828103825260368152602001806143786036913960400191505060405180910390fd5b71ffffffffffffffffffffffffffffffffffff169050611490565b60165481565b6001546001600160a01b0316331461280f5760405162461bcd60e51b81526004018080602001828103825260248152602001806145486024913960400191505060405180910390fd5b6101f4811015801561282357506127108111155b612863576040805162461bcd60e51b815260206004820152600c60248201526b6f7574206f662072616e676560a01b604482015290519081900360640190fd5b601155565b601e546001600160a01b031681565b60035481565b6001546001600160a01b031633146128c65760405162461bcd60e51b81526004018080602001828103825260248152602001806145486024913960400191505060405180910390fd5b607882111561291c576040805162461bcd60e51b815260206004820152601e60248201527f5f626f6f74737472617045706f6368733a206f7574206f662072616e67650000604482015290519081900360640190fd5b6064811015801561292f57506103e88111155b61296a5760405162461bcd60e51b815260040180806020018281038252602e81526020018061461c602e913960400191505060405180910390fd5b601591909155601655565b6001546000906001600160a01b031633146129c15760405162461bcd60e51b81526004018080602001828103825260248152602001806145486024913960400191505060405180910390fd5b60098360ff1610612a035760405162461bcd60e51b815260040180806020018281038252602981526020018061451f6029913960400191505060405180910390fd5b60ff831615612a3557600e6001840360ff1681548110612a1f57fe5b90600052602060002001548211612a3557600080fd5b60088360ff161015612a6a57600e8360010160ff1681548110612a5457fe5b90600052602060002001548210612a6a57600080fd5b81600e8460ff1681548110612a7b57fe5b6000918252602090912001555060015b92915050565b600154600160a01b900460ff1615612af0576040805162461bcd60e51b815260206004820152601d60248201527f54726561737572793a20616c726561647920696e697469616c697a6564000000604482015290519081900360640190fd5b600680546001600160a01b03199081166001600160a01b0389811691909117909255600780548216888416179055600880548216878416179055600a80548216868416179055600980549091169184169190911790556002819055655af3107a4000600b819055612b6990606490610c4a9060656138c5565b600c556040805161012081018252600081526969e10de76676d0800000602082015269d3c21bcecceda1000000918101919091526a013da329b633647180000060608201526a01a784379d99db4200000060808201526a0422ca8b0a00a42500000060a08201526a084595161401484a00000060c08201526a108b2a2c2802909400000060e08201526a295be96e64066972000000610100820152612c1290600e9060096142cb565b5060408051610120810182526101c28152610190602082015261015e9181019190915261012c606082015260fa608082015260c860a0820152609660c0820152607d60e08201526064610100820152612c6f90600f906009614321565b50610190601055612710601155610dac60125561012c601355611194601455606e601b55611b58601c5560006015556101c2601655600654604080516370a0823160e01b815230600482015290516001600160a01b03909216916370a0823191602480820192602092909190829003018186803b158015612cef57600080fd5b505afa158015612d03573d6000803e3d6000fd5b505050506040513d6020811015612d1957600080fd5b5051600d55600180546001600160a01b031960ff60a01b19909116600160a01b1716339081179091556040805143815290517f25ff68dd81b34665b5ba7e553ee5511bf6812e12adb4a7e2c0d9e26b3099ce799181900360200190a2505050505050565b6001546001600160a01b03163314612dc65760405162461bcd60e51b81526004018080602001828103825260248152602001806145486024913960400191505060405180910390fd5b601855565b600e8181548110612dd857fe5b600091825260209091200154905081565b6001546001600160a01b03163314612e325760405162461bcd60e51b81526004018080602001828103825260248152602001806145486024913960400191505060405180910390fd5b600b548110158015612e5e5750612e5a6064610c4a6078600b546138c590919063ffffffff16565b8111155b612e9e576040805162461bcd60e51b815260206004820152600c60248201526b6f7574206f662072616e676560a01b604482015290519081900360640190fd5b600c55565b6008546001600160a01b031681565b600f8181548110612dd857fe5b6001546001600160a01b03163314612f085760405162461bcd60e51b81526004018080602001828103825260248152602001806145486024913960400191505060405180910390fd5b601955565b6001546001600160a01b03163314612f565760405162461bcd60e51b81526004018080602001828103825260248152602001806145486024913960400191505060405180910390fd5b60095460408051631515d6bd60e21b81526001600160a01b038681166004830152602482018690528481166044830152915191909216916354575af491606480830192600092919082900301818387803b158015612fb357600080fd5b505af1158015612fc7573d6000803e3d6000fd5b50505050505050565b600654604080516318160ddd60e01b815290516000926001600160a01b031691839183916318160ddd916004808301926020929190829003018186803b15801561301957600080fd5b505afa15801561302d573d6000803e3d6000fd5b505050506040513d602081101561304357600080fd5b505190506000805b60055460ff82161015613105576130fb846001600160a01b03166370a0823160058460ff168154811061307a57fe5b60009182526020918290200154604080516001600160e01b031960e086901b1681526001600160a01b0390921660048301525160248083019392829003018186803b1580156130c857600080fd5b505afa1580156130dc573d6000803e3d6000fd5b505050506040513d60208110156130f257600080fd5b505183906139e9565b915060010161304b565b506126a8828261398c565b6001546001600160a01b031633146131595760405162461bcd60e51b81526004018080602001828103825260248152602001806145486024913960400191505060405180910390fd5b6009546040805163b3ab15fb60e01b81526001600160a01b0384811660048301529151919092169163b3ab15fb91602480830192600092919082900301818387803b158015610a7457600080fd5b6006546001600160a01b031681565b6001546001600160a01b031633146131ff5760405162461bcd60e51b81526004018080602001828103825260248152602001806145486024913960400191505060405180910390fd5b600180546001600160a01b0319166001600160a01b0392909216919091179055565b6001546001600160a01b0316331461326a5760405162461bcd60e51b81526004018080602001828103825260248152602001806145486024913960400191505060405180910390fd5b600980546001600160a01b0319166001600160a01b0392909216919091179055565b61546081565b60185481565b6001546001600160a01b031633146132e15760405162461bcd60e51b81526004018080602001828103825260248152602001806145486024913960400191505060405180910390fd5b6001600160a01b038416613325576040805162461bcd60e51b815260206004808301919091526024820152637a65726f60e01b604482015290519081900360640190fd5b610bb883111561336b576040805162461bcd60e51b815260206004820152600c60248201526b6f7574206f662072616e676560a01b604482015290519081900360640190fd5b6001600160a01b0382166133af576040805162461bcd60e51b815260206004808301919091526024820152637a65726f60e01b604482015290519081900360640190fd5b6103e88111156133f5576040805162461bcd60e51b815260206004820152600c60248201526b6f7574206f662072616e676560a01b604482015290519081900360640190fd5b601e80546001600160a01b03199081166001600160a01b0396871617909155601f939093556020805490931691909316179055602155565b60006134526134496154606003546138c590919063ffffffff16565b600254906139e9565b905090565b601c5481565b601b5481565b6001546001600160a01b031633146134ac5760405162461bcd60e51b81526004018080602001828103825260248152602001806145486024913960400191505060405180910390fd5b600a80546001600160a01b0319166001600160a01b0392909216919091179055565b6001546001600160a01b031633146135175760405162461bcd60e51b81526004018080602001828103825260248152602001806145486024913960400191505060405180910390fd5b6064811015801561352a57506105dc8111155b61356a576040805162461bcd60e51b815260206004820152600c60248201526b6f7574206f662072616e676560a01b604482015290519081900360640190fd5b601355565b60008061357a6126e3565b9050600b548111610cae57600061358f612fd0565b905060006135ae612710610c4a601454856138c590919063ffffffff16565b90506000600760009054906101000a90046001600160a01b03166001600160a01b03166318160ddd6040518163ffffffff1660e01b815260040160206040518083038186803b15801561360057600080fd5b505afa158015613614573d6000803e3d6000fd5b505050506040513d602081101561362a57600080fd5b505190508082111561366d576000613642838361398c565b9050600061365a655af3107a4000610c4a84896138c5565b905061366860045482613a81565b965050505b5050505090565b6001546000906001600160a01b031633146136c05760405162461bcd60e51b81526004018080602001828103825260248152602001806145486024913960400191505060405180910390fd5b60098360ff16106137025760405162461bcd60e51b815260040180806020018281038252602981526020018061451f6029913960400191505060405180910390fd5b600a821015801561371557506103e88211155b61375d576040805162461bcd60e51b81526020600482015260146024820152735f76616c75653a206f7574206f662072616e676560601b604482015290519081900360640190fd5b81600f8460ff1681548110612a7b57fe5b60105481565b60145481565b6007546001600160a01b031681565b600a546001600160a01b031681565b60135481565b600a5460065460408051630d01142560e31b81526001600160a01b039283166004820152670de0b6b3a7640000602482015290516000939290921691636808a12891604480820192602092909190829003018186803b15801561274557600080fd5b60155481565b6001546001600160a01b0316331461384f5760405162461bcd60e51b81526004018080602001828103825260248152602001806145486024913960400191505060405180910390fd5b60095460408051632ffaaa0960e01b8152600481018590526024810184905290516001600160a01b0390921691632ffaaa099160448082019260009290919082900301818387803b1580156138a357600080fd5b505af11580156138b7573d6000803e3d6000fd5b505050505050565b60045481565b6000826138d457506000612a8b565b828202828482816138e157fe5b041461391e5760405162461bcd60e51b815260040180806020018281038252602181526020018061447d6021913960400191505060405180910390fd5b9392505050565b600080821161397b576040805162461bcd60e51b815260206004820152601a60248201527f536166654d6174683a206469766973696f6e206279207a65726f000000000000604482015290519081900360640190fd5b81838161398457fe5b049392505050565b6000828211156139e3576040805162461bcd60e51b815260206004820152601e60248201527f536166654d6174683a207375627472616374696f6e206f766572666c6f770000604482015290519081900360640190fd5b50900390565b60008282018381101561391e576040805162461bcd60e51b815260206004820152601b60248201527f536166654d6174683a206164646974696f6e206f766572666c6f770000000000604482015290519081900360640190fd5b4360009081526020818152604080832032845290915290205460ff1690565b4360009081526020818152604080832033845290915290205460ff1690565b6000818310613a90578161391e565b5090919050565b604080516001600160a01b038416602482015260448082018490528251808303909101815260649091019091526020810180516001600160e01b031663a9059cbb60e01b17905261172a908490613eea565b600a60009054906101000a90046001600160a01b03166001600160a01b031663a2e620456040518163ffffffff1660e01b8152600401600060405180830381600087803b158015613b3957600080fd5b505af1925050508015613b4a575060015b50565b600654604080516340c10f1960e01b81523060048201526024810184905290516001600160a01b03909216916340c10f19916044808201926020929091908290030181600087803b158015613ba157600080fd5b505af1158015613bb5573d6000803e3d6000fd5b505050506040513d6020811015613bcb57600080fd5b5050601f5460009015613cb657613bf3612710610c4a601f54856138c590919063ffffffff16565b600654601e546040805163a9059cbb60e01b81526001600160a01b03928316600482015260248101859052905193945091169163a9059cbb916044808201926020929091908290030181600087803b158015613c4e57600080fd5b505af1158015613c62573d6000803e3d6000fd5b505050506040513d6020811015613c7857600080fd5b5050604080514281526020810183905281517fcb3f34aaa3445b461e6da5492dc89e5c257a59fa598131f3b6bbc97a3638e409929181900390910190a15b60215460009015613d9c57613cdc612710610c4a602154866138c590919063ffffffff16565b600654602080546040805163a9059cbb60e01b81526001600160a01b03928316600482015260248101869052905194955092169263a9059cbb9260448082019392918290030181600087803b158015613d3457600080fd5b505af1158015613d48573d6000803e3d6000fd5b505050506040513d6020811015613d5e57600080fd5b5050604080514281526020810183905281517fdc8b715b18523e58b7fd0da53259dfa91efd91df4a854d94b136e3333a3b9395929181900390910190a15b613daa816122e2858561398c565b600954600654919450613dcb916001600160a01b0390811691166000613f9b565b600954600654613de8916001600160a01b03918216911685613f9b565b600954604080516397ffe1d760e01b81526004810186905290516001600160a01b03909216916397ffe1d79160248082019260009290919082900301818387803b158015613e3557600080fd5b505af1158015613e49573d6000803e3d6000fd5b5050604080514281526020810187905281517f03ca7276ab7799bf73fb79d27ff0610cd7049574f2508ef8445162833d439aea9450908190039091019150a1505050565b600060085b600e8160ff1681548110613ea257fe5b90600052602060002001548310613ed757600f8160ff1681548110613ec357fe5b600091825260209091200154601055613ee0565b60001901613e92565b5050601054919050565b6060613f3f826040518060400160405280602081526020017f5361666545524332303a206c6f772d6c6576656c2063616c6c206661696c6564815250856001600160a01b03166140ae9092919063ffffffff16565b80519091501561172a57808060200190516020811015613f5e57600080fd5b505161172a5760405162461bcd60e51b815260040180806020018281038252602a81526020018061456c602a913960400191505060405180910390fd5b801580614021575060408051636eb1769f60e11b81523060048201526001600160a01b03848116602483015291519185169163dd62ed3e91604480820192602092909190829003018186803b158015613ff357600080fd5b505afa158015614007573d6000803e3d6000fd5b505050506040513d602081101561401d57600080fd5b5051155b61405c5760405162461bcd60e51b81526004018080602001828103825260368152602001806145bc6036913960400191505060405180910390fd5b604080516001600160a01b038416602482015260448082018490528251808303909101815260649091019091526020810180516001600160e01b031663095ea7b360e01b17905261172a908490613eea565b60606140bd84846000856140c5565b949350505050565b6060824710156141065760405162461bcd60e51b81526004018080602001828103825260268152602001806144006026913960400191505060405180910390fd5b61410f85614221565b614160576040805162461bcd60e51b815260206004820152601d60248201527f416464726573733a2063616c6c20746f206e6f6e2d636f6e7472616374000000604482015290519081900360640190fd5b60006060866001600160a01b031685876040518082805190602001908083835b6020831061419f5780518252601f199092019160209182019101614180565b6001836020036101000a03801982511681845116808217855250505050505090500191505060006040518083038185875af1925050503d8060008114614201576040519150601f19603f3d011682016040523d82523d6000602084013e614206565b606091505b5091509150614216828286614227565b979650505050505050565b3b151590565b6060831561423657508161391e565b8251156142465782518084602001fd5b8160405162461bcd60e51b81526004018080602001828103825283818151815260200191508051906020019080838360005b83811015614290578181015183820152602001614278565b50505050905090810190601f1680156142bd5780820380516001836020036101000a031916815260200191505b509250505060405180910390fd5b828054828255906000526020600020908101928215614315579160200282015b8281111561431557825182906affffffffffffffffffffff169055916020019190600101906142eb565b50610cae929150614362565b828054828255906000526020600020908101928215614315579160200282015b82811115614315578251829061ffff16905591602001919060010190614341565b5b80821115610cae576000815560010161436356fe54726561737572793a206661696c656420746f20636f6e73756c7420424f4d422070726963652066726f6d20746865206f7261636c6554726561737572793a2063616e6e6f742072656465656d20626f6e64732077697468207a65726f20616d6f756e745f7072656d69756d5468726573686f6c6420697320686967686572207468616e20312e35416464726573733a20696e73756666696369656e742062616c616e636520666f722063616c6c54726561737572793a20626f6d625072696365206e6f7420656c696769626c6520666f7220626f6e6420707572636861736554726561737572793a20747265617375727920686173206e6f206d6f726520627564676574536166654d6174683a206d756c7469706c69636174696f6e206f766572666c6f7754726561737572793a2063616e6e6f7420707572636861736520626f6e64732077697468207a65726f20616d6f756e745f6d696e74696e67466163746f72466f72506179696e67446562743a206f7574206f662072616e67655f6d6178537570706c79457870616e73696f6e50657263656e743a206f7574206f662072616e6765496e6465782068617320746f206265206c6f776572207468616e20636f756e74206f6620746965727354726561737572793a2063616c6c6572206973206e6f7420746865206f70657261746f725361666545524332303a204552433230206f7065726174696f6e20646964206e6f742073756363656564436f6e747261637447756172643a206f6e6520626c6f636b2c206f6e652066756e6374696f6e5361666545524332303a20617070726f76652066726f6d206e6f6e2d7a65726f20746f206e6f6e2d7a65726f20616c6c6f77616e636554726561737572793a206e6f7420656e6f75676820626f6e64206c65667420746f2070757263686173655f626f6f747374726170537570706c79457870616e73696f6e50657263656e743a206f7574206f662072616e67655f7072656d69756d5468726573686f6c64206578636565647320626f6d6250726963654365696c696e67a2646970667358221220d36c5cbe5d9aa015d7551c718ba05dca1c518229ba4a49e8da80a7b323306daf64736f6c634300060c0033",
  "devdoc": {
    "kind": "dev",
    "methods": {},
    "version": 1
  },
  "userdoc": {
    "kind": "user",
    "methods": {},
    "version": 1
  },
  "storageLayout": {
    "storage": [
      {
        "astId": 13417,
        "contract": "contracts/Treasury.sol:Treasury",
        "label": "_status",
        "offset": 0,
        "slot": "0",
        "type": "t_mapping(t_uint256,t_mapping(t_address,t_bool))"
      },
      {
        "astId": 5942,
        "contract": "contracts/Treasury.sol:Treasury",
        "label": "operator",
        "offset": 0,
        "slot": "1",
        "type": "t_address"
      },
      {
        "astId": 5945,
        "contract": "contracts/Treasury.sol:Treasury",
        "label": "initialized",
        "offset": 20,
        "slot": "1",
        "type": "t_bool"
      },
      {
        "astId": 5947,
        "contract": "contracts/Treasury.sol:Treasury",
        "label": "startTime",
        "offset": 0,
        "slot": "2",
        "type": "t_uint256"
      },
      {
        "astId": 5950,
        "contract": "contracts/Treasury.sol:Treasury",
        "label": "epoch",
        "offset": 0,
        "slot": "3",
        "type": "t_uint256"
      },
      {
        "astId": 5953,
        "contract": "contracts/Treasury.sol:Treasury",
        "label": "epochSupplyContractionLeft",
        "offset": 0,
        "slot": "4",
        "type": "t_uint256"
      },
      {
        "astId": 5965,
        "contract": "contracts/Treasury.sol:Treasury",
        "label": "excludedFromTotalSupply",
        "offset": 0,
        "slot": "5",
        "type": "t_array(t_address)dyn_storage"
      },
      {
        "astId": 5967,
        "contract": "contracts/Treasury.sol:Treasury",
        "label": "bomb",
        "offset": 0,
        "slot": "6",
        "type": "t_address"
      },
      {
        "astId": 5969,
        "contract": "contracts/Treasury.sol:Treasury",
        "label": "bbond",
        "offset": 0,
        "slot": "7",
        "type": "t_address"
      },
      {
        "astId": 5971,
        "contract": "contracts/Treasury.sol:Treasury",
        "label": "bshare",
        "offset": 0,
        "slot": "8",
        "type": "t_address"
      },
      {
        "astId": 5973,
        "contract": "contracts/Treasury.sol:Treasury",
        "label": "boardroom",
        "offset": 0,
        "slot": "9",
        "type": "t_address"
      },
      {
        "astId": 5975,
        "contract": "contracts/Treasury.sol:Treasury",
        "label": "bombOracle",
        "offset": 0,
        "slot": "10",
        "type": "t_address"
      },
      {
        "astId": 5977,
        "contract": "contracts/Treasury.sol:Treasury",
        "label": "bombPriceOne",
        "offset": 0,
        "slot": "11",
        "type": "t_uint256"
      },
      {
        "astId": 5979,
        "contract": "contracts/Treasury.sol:Treasury",
        "label": "bombPriceCeiling",
        "offset": 0,
        "slot": "12",
        "type": "t_uint256"
      },
      {
        "astId": 5981,
        "contract": "contracts/Treasury.sol:Treasury",
        "label": "seigniorageSaved",
        "offset": 0,
        "slot": "13",
        "type": "t_uint256"
      },
      {
        "astId": 5984,
        "contract": "contracts/Treasury.sol:Treasury",
        "label": "supplyTiers",
        "offset": 0,
        "slot": "14",
        "type": "t_array(t_uint256)dyn_storage"
      },
      {
        "astId": 5987,
        "contract": "contracts/Treasury.sol:Treasury",
        "label": "maxExpansionTiers",
        "offset": 0,
        "slot": "15",
        "type": "t_array(t_uint256)dyn_storage"
      },
      {
        "astId": 5989,
        "contract": "contracts/Treasury.sol:Treasury",
        "label": "maxSupplyExpansionPercent",
        "offset": 0,
        "slot": "16",
        "type": "t_uint256"
      },
      {
        "astId": 5991,
        "contract": "contracts/Treasury.sol:Treasury",
        "label": "bondDepletionFloorPercent",
        "offset": 0,
        "slot": "17",
        "type": "t_uint256"
      },
      {
        "astId": 5993,
        "contract": "contracts/Treasury.sol:Treasury",
        "label": "seigniorageExpansionFloorPercent",
        "offset": 0,
        "slot": "18",
        "type": "t_uint256"
      },
      {
        "astId": 5995,
        "contract": "contracts/Treasury.sol:Treasury",
        "label": "maxSupplyContractionPercent",
        "offset": 0,
        "slot": "19",
        "type": "t_uint256"
      },
      {
        "astId": 5997,
        "contract": "contracts/Treasury.sol:Treasury",
        "label": "maxDebtRatioPercent",
        "offset": 0,
        "slot": "20",
        "type": "t_uint256"
      },
      {
        "astId": 5999,
        "contract": "contracts/Treasury.sol:Treasury",
        "label": "bootstrapEpochs",
        "offset": 0,
        "slot": "21",
        "type": "t_uint256"
      },
      {
        "astId": 6001,
        "contract": "contracts/Treasury.sol:Treasury",
        "label": "bootstrapSupplyExpansionPercent",
        "offset": 0,
        "slot": "22",
        "type": "t_uint256"
      },
      {
        "astId": 6003,
        "contract": "contracts/Treasury.sol:Treasury",
        "label": "previousEpochBombPrice",
        "offset": 0,
        "slot": "23",
        "type": "t_uint256"
      },
      {
        "astId": 6005,
        "contract": "contracts/Treasury.sol:Treasury",
        "label": "maxDiscountRate",
        "offset": 0,
        "slot": "24",
        "type": "t_uint256"
      },
      {
        "astId": 6007,
        "contract": "contracts/Treasury.sol:Treasury",
        "label": "maxPremiumRate",
        "offset": 0,
        "slot": "25",
        "type": "t_uint256"
      },
      {
        "astId": 6009,
        "contract": "contracts/Treasury.sol:Treasury",
        "label": "discountPercent",
        "offset": 0,
        "slot": "26",
        "type": "t_uint256"
      },
      {
        "astId": 6011,
        "contract": "contracts/Treasury.sol:Treasury",
        "label": "premiumThreshold",
        "offset": 0,
        "slot": "27",
        "type": "t_uint256"
      },
      {
        "astId": 6013,
        "contract": "contracts/Treasury.sol:Treasury",
        "label": "premiumPercent",
        "offset": 0,
        "slot": "28",
        "type": "t_uint256"
      },
      {
        "astId": 6015,
        "contract": "contracts/Treasury.sol:Treasury",
        "label": "mintingFactorForPayingDebt",
        "offset": 0,
        "slot": "29",
        "type": "t_uint256"
      },
      {
        "astId": 6017,
        "contract": "contracts/Treasury.sol:Treasury",
        "label": "daoFund",
        "offset": 0,
        "slot": "30",
        "type": "t_address"
      },
      {
        "astId": 6019,
        "contract": "contracts/Treasury.sol:Treasury",
        "label": "daoFundSharedPercent",
        "offset": 0,
        "slot": "31",
        "type": "t_uint256"
      },
      {
        "astId": 6021,
        "contract": "contracts/Treasury.sol:Treasury",
        "label": "devFund",
        "offset": 0,
        "slot": "32",
        "type": "t_address"
      },
      {
        "astId": 6023,
        "contract": "contracts/Treasury.sol:Treasury",
        "label": "devFundSharedPercent",
        "offset": 0,
        "slot": "33",
        "type": "t_uint256"
      }
    ],
    "types": {
      "t_address": {
        "encoding": "inplace",
        "label": "address",
        "numberOfBytes": "20"
      },
      "t_array(t_address)dyn_storage": {
        "base": "t_address",
        "encoding": "dynamic_array",
        "label": "address[]",
        "numberOfBytes": "32"
      },
      "t_array(t_uint256)dyn_storage": {
        "base": "t_uint256",
        "encoding": "dynamic_array",
        "label": "uint256[]",
        "numberOfBytes": "32"
      },
      "t_bool": {
        "encoding": "inplace",
        "label": "bool",
        "numberOfBytes": "1"
      },
      "t_mapping(t_address,t_bool)": {
        "encoding": "mapping",
        "key": "t_address",
        "label": "mapping(address => bool)",
        "numberOfBytes": "32",
        "value": "t_bool"
      },
      "t_mapping(t_uint256,t_mapping(t_address,t_bool))": {
        "encoding": "mapping",
        "key": "t_uint256",
        "label": "mapping(uint256 => mapping(address => bool))",
        "numberOfBytes": "32",
        "value": "t_mapping(t_address,t_bool)"
      },
      "t_uint256": {
        "encoding": "inplace",
        "label": "uint256",
        "numberOfBytes": "32"
      }
    }
  }
}