{
  "address": "0x4f518029B03AB3f37C90853333ECFf70eb452EA1",
  "abi": [
    {
      "anonymous": false,
      "inputs": [
        {
          "indexed": true,
          "internalType": "address",
          "name": "executor",
          "type": "address"
        },
        {
          "indexed": false,
          "internalType": "uint256",
          "name": "at",
          "type": "uint256"
        }
      ],
      "name": "Initialized",
      "type": "event"
    },
    {
      "anonymous": false,
      "inputs": [
        {
          "indexed": true,
          "internalType": "address",
          "name": "user",
          "type": "address"
        },
        {
          "indexed": false,
          "internalType": "uint256",
          "name": "reward",
          "type": "uint256"
        }
      ],
      "name": "RewardAdded",
      "type": "event"
    },
    {
      "anonymous": false,
      "inputs": [
        {
          "indexed": true,
          "internalType": "address",
          "name": "user",
          "type": "address"
        },
        {
          "indexed": false,
          "internalType": "uint256",
          "name": "reward",
          "type": "uint256"
        }
      ],
      "name": "RewardPaid",
      "type": "event"
    },
    {
      "anonymous": false,
      "inputs": [
        {
          "indexed": true,
          "internalType": "address",
          "name": "user",
          "type": "address"
        },
        {
          "indexed": false,
          "internalType": "uint256",
          "name": "amount",
          "type": "uint256"
        }
      ],
      "name": "Staked",
      "type": "event"
    },
    {
      "anonymous": false,
      "inputs": [
        {
          "indexed": true,
          "internalType": "address",
          "name": "user",
          "type": "address"
        },
        {
          "indexed": false,
          "internalType": "uint256",
          "name": "amount",
          "type": "uint256"
        }
      ],
      "name": "Withdrawn",
      "type": "event"
    },
    {
      "inputs": [
        {
          "internalType": "uint256",
          "name": "amount",
          "type": "uint256"
        }
      ],
      "name": "allocateSeigniorage",
      "outputs": [],
      "stateMutability": "nonpayable",
      "type": "function"
    },
    {
      "inputs": [
        {
          "internalType": "address",
          "name": "account",
          "type": "address"
        }
      ],
      "name": "balanceOf",
      "outputs": [
        {
          "internalType": "uint256",
          "name": "",
          "type": "uint256"
        }
      ],
      "stateMutability": "view",
      "type": "function"
    },
    {
      "inputs": [
        {
          "internalType": "uint256",
          "name": "",
          "type": "uint256"
        }
      ],
      "name": "boardroomHistory",
      "outputs": [
        {
          "internalType": "uint256",
          "name": "time",
          "type": "uint256"
        },
        {
          "internalType": "uint256",
          "name": "rewardReceived",
          "type": "uint256"
        },
        {
          "internalType": "uint256",
          "name": "rewardPerShare",
          "type": "uint256"
        }
      ],
      "stateMutability": "view",
      "type": "function"
    },
    {
      "inputs": [],
      "name": "bomb",
      "outputs": [
        {
          "internalType": "contract IERC20",
          "name": "",
          "type": "address"
        }
      ],
      "stateMutability": "view",
      "type": "function"
    },
    {
      "inputs": [
        {
          "internalType": "address",
          "name": "member",
          "type": "address"
        }
      ],
      "name": "canClaimReward",
      "outputs": [
        {
          "internalType": "bool",
          "name": "",
          "type": "bool"
        }
      ],
      "stateMutability": "view",
      "type": "function"
    },
    {
      "inputs": [
        {
          "internalType": "address",
          "name": "member",
          "type": "address"
        }
      ],
      "name": "canWithdraw",
      "outputs": [
        {
          "internalType": "bool",
          "name": "",
          "type": "bool"
        }
      ],
      "stateMutability": "view",
      "type": "function"
    },
    {
      "inputs": [],
      "name": "claimReward",
      "outputs": [],
      "stateMutability": "nonpayable",
      "type": "function"
    },
    {
      "inputs": [
        {
          "internalType": "address",
          "name": "member",
          "type": "address"
        }
      ],
      "name": "earned",
      "outputs": [
        {
          "internalType": "uint256",
          "name": "",
          "type": "uint256"
        }
      ],
      "stateMutability": "view",
      "type": "function"
    },
    {
      "inputs": [],
      "name": "epoch",
      "outputs": [
        {
          "internalType": "uint256",
          "name": "",
          "type": "uint256"
        }
      ],
      "stateMutability": "view",
      "type": "function"
    },
    {
      "inputs": [],
      "name": "exit",
      "outputs": [],
      "stateMutability": "nonpayable",
      "type": "function"
    },
    {
      "inputs": [],
      "name": "getBombPrice",
      "outputs": [
        {
          "internalType": "uint256",
          "name": "",
          "type": "uint256"
        }
      ],
      "stateMutability": "view",
      "type": "function"
    },
    {
      "inputs": [
        {
          "internalType": "address",
          "name": "member",
          "type": "address"
        }
      ],
      "name": "getLastSnapshotIndexOf",
      "outputs": [
        {
          "internalType": "uint256",
          "name": "",
          "type": "uint256"
        }
      ],
      "stateMutability": "view",
      "type": "function"
    },
    {
      "inputs": [
        {
          "internalType": "contract IERC20",
          "name": "_token",
          "type": "address"
        },
        {
          "internalType": "uint256",
          "name": "_amount",
          "type": "uint256"
        },
        {
          "internalType": "address",
          "name": "_to",
          "type": "address"
        }
      ],
      "name": "governanceRecoverUnsupported",
      "outputs": [],
      "stateMutability": "nonpayable",
      "type": "function"
    },
    {
      "inputs": [
        {
          "internalType": "contract IERC20",
          "name": "_bomb",
          "type": "address"
        },
        {
          "internalType": "contract IERC20",
          "name": "_share",
          "type": "address"
        },
        {
          "internalType": "contract ITreasury",
          "name": "_treasury",
          "type": "address"
        }
      ],
      "name": "initialize",
      "outputs": [],
      "stateMutability": "nonpayable",
      "type": "function"
    },
    {
      "inputs": [],
      "name": "initialized",
      "outputs": [
        {
          "internalType": "bool",
          "name": "",
          "type": "bool"
        }
      ],
      "stateMutability": "view",
      "type": "function"
    },
    {
      "inputs": [],
      "name": "latestSnapshotIndex",
      "outputs": [
        {
          "internalType": "uint256",
          "name": "",
          "type": "uint256"
        }
      ],
      "stateMutability": "view",
      "type": "function"
    },
    {
      "inputs": [
        {
          "internalType": "address",
          "name": "",
          "type": "address"
        }
      ],
      "name": "members",
      "outputs": [
        {
          "internalType": "uint256",
          "name": "lastSnapshotIndex",
          "type": "uint256"
        },
        {
          "internalType": "uint256",
          "name": "rewardEarned",
          "type": "uint256"
        },
        {
          "internalType": "uint256",
          "name": "epochTimerStart",
          "type": "uint256"
        }
      ],
      "stateMutability": "view",
      "type": "function"
    },
    {
      "inputs": [],
      "name": "nextEpochPoint",
      "outputs": [
        {
          "internalType": "uint256",
          "name": "",
          "type": "uint256"
        }
      ],
      "stateMutability": "view",
      "type": "function"
    },
    {
      "inputs": [],
      "name": "operator",
      "outputs": [
        {
          "internalType": "address",
          "name": "",
          "type": "address"
        }
      ],
      "stateMutability": "view",
      "type": "function"
    },
    {
      "inputs": [],
      "name": "rewardLockupEpochs",
      "outputs": [
        {
          "internalType": "uint256",
          "name": "",
          "type": "uint256"
        }
      ],
      "stateMutability": "view",
      "type": "function"
    },
    {
      "inputs": [],
      "name": "rewardPerShare",
      "outputs": [
        {
          "internalType": "uint256",
          "name": "",
          "type": "uint256"
        }
      ],
      "stateMutability": "view",
      "type": "function"
    },
    {
      "inputs": [
        {
          "internalType": "uint256",
          "name": "_withdrawLockupEpochs",
          "type": "uint256"
        },
        {
          "internalType": "uint256",
          "name": "_rewardLockupEpochs",
          "type": "uint256"
        }
      ],
      "name": "setLockUp",
      "outputs": [],
      "stateMutability": "nonpayable",
      "type": "function"
    },
    {
      "inputs": [
        {
          "internalType": "address",
          "name": "_operator",
          "type": "address"
        }
      ],
      "name": "setOperator",
      "outputs": [],
      "stateMutability": "nonpayable",
      "type": "function"
    },
    {
      "inputs": [],
      "name": "share",
      "outputs": [
        {
          "internalType": "contract IERC20",
          "name": "",
          "type": "address"
        }
      ],
      "stateMutability": "view",
      "type": "function"
    },
    {
      "inputs": [
        {
          "internalType": "uint256",
          "name": "amount",
          "type": "uint256"
        }
      ],
      "name": "stake",
      "outputs": [],
      "stateMutability": "nonpayable",
      "type": "function"
    },
    {
      "inputs": [],
      "name": "totalSupply",
      "outputs": [
        {
          "internalType": "uint256",
          "name": "",
          "type": "uint256"
        }
      ],
      "stateMutability": "view",
      "type": "function"
    },
    {
      "inputs": [],
      "name": "treasury",
      "outputs": [
        {
          "internalType": "contract ITreasury",
          "name": "",
          "type": "address"
        }
      ],
      "stateMutability": "view",
      "type": "function"
    },
    {
      "inputs": [
        {
          "internalType": "uint256",
          "name": "amount",
          "type": "uint256"
        }
      ],
      "name": "withdraw",
      "outputs": [],
      "stateMutability": "nonpayable",
      "type": "function"
    },
    {
      "inputs": [],
      "name": "withdrawLockupEpochs",
      "outputs": [
        {
          "internalType": "uint256",
          "name": "",
          "type": "uint256"
        }
      ],
      "stateMutability": "view",
      "type": "function"
    }
  ],
  "transactionHash": "0x4cab2c9e45088fce664fb110b1f3c6a23cb103e6ec97a251dd85bfbd9e2e429a",
  "args": [],
  "solcInputHash": "33ccf45895a5aea9533c3345c0cb85ca",
  "bytecode": "0x60806040526004805460ff60a01b1916905534801561001d57600080fd5b50611fba8061002d6000396000f3fe608060405234801561001057600080fd5b50600436106101ce5760003560e01c806361d027b311610104578063a8d5fd65116100a2578063c0c53b8b11610071578063c0c53b8b14610457578063c58e38431461048f578063c5967c26146104ac578063e9fad8ee146104b4576101ce565b8063a8d5fd6514610419578063b1b0c49e14610421578063b3ab15fb14610429578063b88a802f1461044f576101ce565b8063857dda77116100de578063857dda77146103cf578063900cf0cf146103d757806397ffe1d7146103df578063a694fc3a146103fc576101ce565b806361d027b31461037b57806370a0823114610383578063714b4658146103a9576101ce565b80631e85cd65116101715780633f9e3f041161014b5780633f9e3f0414610311578063446a2ec81461031957806354575af414610321578063570ca73514610357576101ce565b80631e85cd65146102c75780632e1a7d4d146102cf5780632ffaaa09146102ee576101ce565b806308ae4b0c116101ad57806308ae4b0c1461024d578063158ef93e1461029157806318160ddd1461029957806319262d30146102a1576101ce565b80628cc262146101d3578063022ba18d1461020b578063046335d014610213575b600080fd5b6101f9600480360360208110156101e957600080fd5b50356001600160a01b03166104bc565b60408051918252519081900360200190f35b6101f961053d565b6102396004803603602081101561022957600080fd5b50356001600160a01b0316610543565b604080519115158252519081900360200190f35b6102736004803603602081101561026357600080fd5b50356001600160a01b03166105e4565b60408051938452602084019290925282820152519081900360600190f35b610239610605565b6101f9610615565b610239600480360360208110156102b757600080fd5b50356001600160a01b031661061b565b6101f96106b4565b6102ec600480360360208110156102e557600080fd5b50356106ba565b005b6102ec6004803603604081101561030457600080fd5b50803590602001356109d4565b6101f9610a74565b6101f9610a8a565b6102ec6004803603606081101561033757600080fd5b506001600160a01b03813581169160208101359160409091013516610a9d565b61035f610b96565b604080516001600160a01b039092168252519081900360200190f35b61035f610ba5565b6101f96004803603602081101561039957600080fd5b50356001600160a01b0316610bb4565b6101f9600480360360208110156103bf57600080fd5b50356001600160a01b0316610bcf565b6101f9610bea565b6101f9610c60565b6102ec600480360360208110156103f557600080fd5b5035610ca5565b6102ec6004803603602081101561041257600080fd5b5035610f89565b61035f61120e565b61035f61121d565b6102ec6004803603602081101561043f57600080fd5b50356001600160a01b031661122c565b6102ec611297565b6102ec6004803603606081101561046d57600080fd5b506001600160a01b03813581169160208101358216916040909101351661150e565b610273600480360360208110156104a557600080fd5b50356116c0565b6101f96116f0565b6102ec611735565b6000806104c7611748565b60400151905060006104d8846117a0565b6040908101516001600160a01b0386166000908152600760205291909120600101549091506105359061052f670de0b6b3a764000061052961051a87876117fb565b6105238a610bb4565b9061185d565b906118bd565b90611924565b949350505050565b600a5481565b6006546040805163900cf0cf60e01b815290516000926001600160a01b03169163900cf0cf916004808301926020929190829003018186803b15801561058857600080fd5b505afa15801561059c573d6000803e3d6000fd5b505050506040513d60208110156105b257600080fd5b5051600a546001600160a01b0384166000908152600760205260409020600201546105dc91611924565b111592915050565b60076020526000908152604090208054600182015460029092015490919083565b600454600160a01b900460ff1681565b60015490565b6006546040805163900cf0cf60e01b815290516000926001600160a01b03169163900cf0cf916004808301926020929190829003018186803b15801561066057600080fd5b505afa158015610674573d6000803e3d6000fd5b505050506040513d602081101561068a57600080fd5b50516009546001600160a01b0384166000908152600760205260409020600201546105dc91611924565b60095481565b6106c261197e565b156106fe5760405162461bcd60e51b8152600401808060200182810382526026815260200180611f296026913960400191505060405180910390fd5b61070661199f565b156107425760405162461bcd60e51b8152600401808060200182810382526026815260200180611f296026913960400191505060405180910390fd5b600061074d33610bb4565b116107895760405162461bcd60e51b8152600401808060200182810382526024815260200180611dfe6024913960400191505060405180910390fd5b33801561082357610798611ddc565b506001600160a01b03811660009081526007602090815260409182902082516060810184528154815260018201549281019290925260020154918101919091526107e1826104bc565b60208201526107ee610a74565b81526001600160a01b038216600090815260076020908152604091829020835181559083015160018201559101516002909101555b60008211610878576040805162461bcd60e51b815260206004820152601c60248201527f426f617264726f6f6d3a2043616e6e6f74207769746864726177203000000000604482015290519081900360640190fd5b600660009054906101000a90046001600160a01b03166001600160a01b031663900cf0cf6040518163ffffffff1660e01b815260040160206040518083038186803b1580156108c657600080fd5b505afa1580156108da573d6000803e3d6000fd5b505050506040513d60208110156108f057600080fd5b50516009543360009081526007602052604090206002015461091191611924565b111561094e5760405162461bcd60e51b8152600401808060200182810382526023815260200180611edc6023913960400191505060405180910390fd5b610956611297565b61095f826119c0565b60408051838152905133917f7084f5476618d8e60b11ef0d7d3f06914655adb8793e28ff7f018d4c76d505d5919081900360200190a250504360009081526003602090815260408083203284529091528082208054600160ff1991821681179092553384529190922080549091169091179055565b6004546001600160a01b03163314610a1d5760405162461bcd60e51b8152600401808060200182810382526025815260200180611eb76025913960400191505060405180910390fd5b808210158015610a2e575060388211155b610a695760405162461bcd60e51b8152600401808060200182810382526023815260200180611e946023913960400191505060405180910390fd5b600991909155600a55565b600854600090610a859060016117fb565b905090565b6000610a94611748565b60400151905090565b6004546001600160a01b03163314610ae65760405162461bcd60e51b8152600401808060200182810382526025815260200180611eb76025913960400191505060405180910390fd5b6005546001600160a01b0384811691161415610b32576040805162461bcd60e51b815260206004808301919091526024820152633137b6b160e11b604482015290519081900360640190fd5b6000546001600160a01b0384811691161415610b7d576040805162461bcd60e51b8152602060048201526005602482015264736861726560d81b604482015290519081900360640190fd5b610b916001600160a01b0384168284611a50565b505050565b6004546001600160a01b031681565b6006546001600160a01b031681565b6001600160a01b031660009081526002602052604090205490565b6001600160a01b031660009081526007602052604090205490565b6006546040805163857dda7760e01b815290516000926001600160a01b03169163857dda77916004808301926020929190829003018186803b158015610c2f57600080fd5b505afa158015610c43573d6000803e3d6000fd5b505050506040513d6020811015610c5957600080fd5b5051905090565b6006546040805163900cf0cf60e01b815290516000926001600160a01b03169163900cf0cf916004808301926020929190829003018186803b158015610c2f57600080fd5b610cad61197e565b15610ce95760405162461bcd60e51b8152600401808060200182810382526026815260200180611f296026913960400191505060405180910390fd5b610cf161199f565b15610d2d5760405162461bcd60e51b8152600401808060200182810382526026815260200180611f296026913960400191505060405180910390fd5b6004546001600160a01b03163314610d765760405162461bcd60e51b8152600401808060200182810382526025815260200180611eb76025913960400191505060405180910390fd5b60008111610dcb576040805162461bcd60e51b815260206004820152601c60248201527f426f617264726f6f6d3a2043616e6e6f7420616c6c6f63617465203000000000604482015290519081900360640190fd5b6000610dd5610615565b11610e115760405162461bcd60e51b8152600401808060200182810382526030815260200180611e226030913960400191505060405180910390fd5b6000610e1b611748565b6040015190506000610e4a610e43610e31610615565b61052986670de0b6b3a764000061185d565b8390611924565b9050610e54611ddc565b5060408051606081018252438152602081018581529181018381526008805460018101825560009190915282517ff3f7a9fe364faab93b216da50a3214154f22a0a2b415b23a84c8169e8b636ee360039092029182015592517ff3f7a9fe364faab93b216da50a3214154f22a0a2b415b23a84c8169e8b636ee4840155517ff3f7a9fe364faab93b216da50a3214154f22a0a2b415b23a84c8169e8b636ee590920191909155600554610f12906001600160a01b0316333087611aa2565b60408051858152905133917fac24935fd910bc682b5ccb1a07b718cadf8cf2f6d1404c4f3ddc3662dae40e29919081900360200190a250504360009081526003602090815260408083203284529091528082208054600160ff19918216811790925533845291909220805490911690911790555050565b610f9161197e565b15610fcd5760405162461bcd60e51b8152600401808060200182810382526026815260200180611f296026913960400191505060405180910390fd5b610fd561199f565b156110115760405162461bcd60e51b8152600401808060200182810382526026815260200180611f296026913960400191505060405180910390fd5b3380156110ab57611020611ddc565b506001600160a01b0381166000908152600760209081526040918290208251606081018452815481526001820154928101929092526002015491810191909152611069826104bc565b6020820152611076610a74565b81526001600160a01b038216600090815260076020908152604091829020835181559083015160018201559101516002909101555b60008211611100576040805162461bcd60e51b815260206004820152601960248201527f426f617264726f6f6d3a2043616e6e6f74207374616b65203000000000000000604482015290519081900360640190fd5b61110982611b02565b600660009054906101000a90046001600160a01b03166001600160a01b031663900cf0cf6040518163ffffffff1660e01b815260040160206040518083038186803b15801561115757600080fd5b505afa15801561116b573d6000803e3d6000fd5b505050506040513d602081101561118157600080fd5b505133600081815260076020908152604091829020600201939093558051858152905191927f9e71bc8eea02a63969f509818f2dafb9254532904319f9dbda79b67bd34a5f3d92918290030190a250504360009081526003602090815260408083203284529091528082208054600160ff1991821681179092553384529190922080549091169091179055565b6000546001600160a01b031681565b6005546001600160a01b031681565b6004546001600160a01b031633146112755760405162461bcd60e51b8152600401808060200182810382526025815260200180611eb76025913960400191505060405180910390fd5b600480546001600160a01b0319166001600160a01b0392909216919091179055565b338015611331576112a6611ddc565b506001600160a01b03811660009081526007602090815260409182902082516060810184528154815260018201549281019290925260020154918101919091526112ef826104bc565b60208201526112fc610a74565b81526001600160a01b038216600090815260076020908152604091829020835181559083015160018201559101516002909101555b33600090815260076020526040902060010154801561150a57600660009054906101000a90046001600160a01b03166001600160a01b031663900cf0cf6040518163ffffffff1660e01b815260040160206040518083038186803b15801561139857600080fd5b505afa1580156113ac573d6000803e3d6000fd5b505050506040513d60208110156113c257600080fd5b5051600a54336000908152600760205260409020600201546113e391611924565b11156114205760405162461bcd60e51b8152600401808060200182810382526021815260200180611e736021913960400191505060405180910390fd5b600660009054906101000a90046001600160a01b03166001600160a01b031663900cf0cf6040518163ffffffff1660e01b815260040160206040518083038186803b15801561146e57600080fd5b505afa158015611482573d6000803e3d6000fd5b505050506040513d602081101561149857600080fd5b505133600081815260076020526040812060028101939093556001909201919091556005546114d3916001600160a01b039091169083611a50565b60408051828152905133917fe2403640ba68fed3a2f88b7557551d1993f84b99bb10ff833f0cf8db0c5e0486919081900360200190a25b5050565b600454600160a01b900460ff161561156d576040805162461bcd60e51b815260206004820152601e60248201527f426f617264726f6f6d3a20616c726561647920696e697469616c697a65640000604482015290519081900360640190fd5b600580546001600160a01b038086166001600160a01b0319928316179092556000805485841690831617905560068054928416929091169190911790556115b2611ddc565b50604080516060810182524380825260006020808401828152848601838152600880546001810182559452855160039485027ff3f7a9fe364faab93b216da50a3214154f22a0a2b415b23a84c8169e8b636ee381019190915591517ff3f7a9fe364faab93b216da50a3214154f22a0a2b415b23a84c8169e8b636ee4830155517ff3f7a9fe364faab93b216da50a3214154f22a0a2b415b23a84c8169e8b636ee5909101556006600955600a91909155600480546001600160a01b031960ff60a01b19909116600160a01b171633908117909155845192835293519293927f25ff68dd81b34665b5ba7e553ee5511bf6812e12adb4a7e2c0d9e26b3099ce799281900390910190a250505050565b600881815481106116cd57fe5b600091825260209091206003909102018054600182015460029092015490925083565b600654604080516362cb3e1360e11b815290516000926001600160a01b03169163c5967c26916004808301926020929190829003018186803b158015610c2f57600080fd5b61174661174133610bb4565b6106ba565b565b611750611ddc565b600861175a610a74565b8154811061176457fe5b90600052602060002090600302016040518060600160405290816000820154815260200160018201548152602001600282015481525050905090565b6117a8611ddc565b60086117b383610bcf565b815481106117bd57fe5b906000526020600020906003020160405180606001604052908160008201548152602001600182015481526020016002820154815250509050919050565b600082821115611852576040805162461bcd60e51b815260206004820152601e60248201527f536166654d6174683a207375627472616374696f6e206f766572666c6f770000604482015290519081900360640190fd5b508082035b92915050565b60008261186c57506000611857565b8282028284828161187957fe5b04146118b65760405162461bcd60e51b8152600401808060200182810382526021815260200180611e526021913960400191505060405180910390fd5b9392505050565b6000808211611913576040805162461bcd60e51b815260206004820152601a60248201527f536166654d6174683a206469766973696f6e206279207a65726f000000000000604482015290519081900360640190fd5b81838161191c57fe5b049392505050565b6000828201838110156118b6576040805162461bcd60e51b815260206004820152601b60248201527f536166654d6174683a206164646974696f6e206f766572666c6f770000000000604482015290519081900360640190fd5b43600090815260036020908152604080832032845290915290205460ff1690565b43600090815260036020908152604080832033845290915290205460ff1690565b3360009081526002602052604090205481811015611a0f5760405162461bcd60e51b8152600401808060200182810382526036815260200180611f4f6036913960400191505060405180910390fd5b600154611a1c90836117fb565b600155611a2981836117fb565b33600081815260026020526040812092909255905461150a916001600160a01b0390911690845b604080516001600160a01b038416602482015260448082018490528251808303909101815260649091019091526020810180516001600160e01b031663a9059cbb60e01b179052610b91908490611b5b565b604080516001600160a01b0380861660248301528416604482015260648082018490528251808303909101815260849091019091526020810180516001600160e01b03166323b872dd60e01b179052611afc908590611b5b565b50505050565b600154611b0f9082611924565b60015533600090815260026020526040902054611b2c9082611924565b336000818152600260205260408120929092559054611b58916001600160a01b03909116903084611aa2565b50565b6060611bb0826040518060400160405280602081526020017f5361666545524332303a206c6f772d6c6576656c2063616c6c206661696c6564815250856001600160a01b0316611c0c9092919063ffffffff16565b805190915015610b9157808060200190516020811015611bcf57600080fd5b5051610b915760405162461bcd60e51b815260040180806020018281038252602a815260200180611eff602a913960400191505060405180910390fd5b6060610535848460008585611c2085611d32565b611c71576040805162461bcd60e51b815260206004820152601d60248201527f416464726573733a2063616c6c20746f206e6f6e2d636f6e7472616374000000604482015290519081900360640190fd5b60006060866001600160a01b031685876040518082805190602001908083835b60208310611cb05780518252601f199092019160209182019101611c91565b6001836020036101000a03801982511681845116808217855250505050505090500191505060006040518083038185875af1925050503d8060008114611d12576040519150601f19603f3d011682016040523d82523d6000602084013e611d17565b606091505b5091509150611d27828286611d38565b979650505050505050565b3b151590565b60608315611d475750816118b6565b825115611d575782518084602001fd5b8160405162461bcd60e51b81526004018080602001828103825283818151815260200191508051906020019080838360005b83811015611da1578181015183820152602001611d89565b50505050905090810190601f168015611dce5780820380516001836020036101000a031916815260200191505b509250505060405180910390fd5b6040518060600160405280600081526020016000815260200160008152509056fe426f617264726f6f6d3a20546865206d656d62657220646f6573206e6f74206578697374426f617264726f6f6d3a2043616e6e6f7420616c6c6f63617465207768656e20746f74616c537570706c792069732030536166654d6174683a206d756c7469706c69636174696f6e206f766572666c6f77426f617264726f6f6d3a207374696c6c20696e20726577617264206c6f636b75705f77697468647261774c6f636b757045706f6368733a206f7574206f662072616e6765426f617264726f6f6d3a2063616c6c6572206973206e6f7420746865206f70657261746f72426f617264726f6f6d3a207374696c6c20696e207769746864726177206c6f636b75705361666545524332303a204552433230206f7065726174696f6e20646964206e6f742073756363656564436f6e747261637447756172643a206f6e6520626c6f636b2c206f6e652066756e6374696f6e426f617264726f6f6d3a20776974686472617720726571756573742067726561746572207468616e207374616b656420616d6f756e74a264697066735822122001b1b655ce51fe07a84c7d19b27b7f9363895881ace30c573f0dce8a65b4336c64736f6c634300060c0033",
  "devdoc": {
    "kind": "dev",
    "methods": {},
    "version": 1
  },
  "userdoc": {
    "kind": "user",
    "methods": {},
    "version": 1
  },
  "storageLayout": {
    "storage": [
      {
        "astId": 2215,
        "contract": "contracts/Boardroom.sol:Boardroom",
        "label": "share",
        "offset": 0,
        "slot": "0",
        "type": "t_contract(IERC20)1180"
      },
      {
        "astId": 2217,
        "contract": "contracts/Boardroom.sol:Boardroom",
        "label": "_totalSupply",
        "offset": 0,
        "slot": "1",
        "type": "t_uint256"
      },
      {
        "astId": 2221,
        "contract": "contracts/Boardroom.sol:Boardroom",
        "label": "_balances",
        "offset": 0,
        "slot": "2",
        "type": "t_mapping(t_address,t_uint256)"
      },
      {
        "astId": 13364,
        "contract": "contracts/Boardroom.sol:Boardroom",
        "label": "_status",
        "offset": 0,
        "slot": "3",
        "type": "t_mapping(t_uint256,t_mapping(t_address,t_bool))"
      },
      {
        "astId": 2354,
        "contract": "contracts/Boardroom.sol:Boardroom",
        "label": "operator",
        "offset": 0,
        "slot": "4",
        "type": "t_address"
      },
      {
        "astId": 2357,
        "contract": "contracts/Boardroom.sol:Boardroom",
        "label": "initialized",
        "offset": 20,
        "slot": "4",
        "type": "t_bool"
      },
      {
        "astId": 2359,
        "contract": "contracts/Boardroom.sol:Boardroom",
        "label": "bomb",
        "offset": 0,
        "slot": "5",
        "type": "t_contract(IERC20)1180"
      },
      {
        "astId": 2361,
        "contract": "contracts/Boardroom.sol:Boardroom",
        "label": "treasury",
        "offset": 0,
        "slot": "6",
        "type": "t_contract(ITreasury)11528"
      },
      {
        "astId": 2365,
        "contract": "contracts/Boardroom.sol:Boardroom",
        "label": "members",
        "offset": 0,
        "slot": "7",
        "type": "t_mapping(t_address,t_struct(Memberseat)2345_storage)"
      },
      {
        "astId": 2368,
        "contract": "contracts/Boardroom.sol:Boardroom",
        "label": "boardroomHistory",
        "offset": 0,
        "slot": "8",
        "type": "t_array(t_struct(BoardroomSnapshot)2352_storage)dyn_storage"
      },
      {
        "astId": 2370,
        "contract": "contracts/Boardroom.sol:Boardroom",
        "label": "withdrawLockupEpochs",
        "offset": 0,
        "slot": "9",
        "type": "t_uint256"
      },
      {
        "astId": 2372,
        "contract": "contracts/Boardroom.sol:Boardroom",
        "label": "rewardLockupEpochs",
        "offset": 0,
        "slot": "10",
        "type": "t_uint256"
      }
    ],
    "types": {
      "t_address": {
        "encoding": "inplace",
        "label": "address",
        "numberOfBytes": "20"
      },
      "t_array(t_struct(BoardroomSnapshot)2352_storage)dyn_storage": {
        "base": "t_struct(BoardroomSnapshot)2352_storage",
        "encoding": "dynamic_array",
        "label": "struct Boardroom.BoardroomSnapshot[]",
        "numberOfBytes": "32"
      },
      "t_bool": {
        "encoding": "inplace",
        "label": "bool",
        "numberOfBytes": "1"
      },
      "t_contract(IERC20)1180": {
        "encoding": "inplace",
        "label": "contract IERC20",
        "numberOfBytes": "20"
      },
      "t_contract(ITreasury)11528": {
        "encoding": "inplace",
        "label": "contract ITreasury",
        "numberOfBytes": "20"
      },
      "t_mapping(t_address,t_bool)": {
        "encoding": "mapping",
        "key": "t_address",
        "label": "mapping(address => bool)",
        "numberOfBytes": "32",
        "value": "t_bool"
      },
      "t_mapping(t_address,t_struct(Memberseat)2345_storage)": {
        "encoding": "mapping",
        "key": "t_address",
        "label": "mapping(address => struct Boardroom.Memberseat)",
        "numberOfBytes": "32",
        "value": "t_struct(Memberseat)2345_storage"
      },
      "t_mapping(t_address,t_uint256)": {
        "encoding": "mapping",
        "key": "t_address",
        "label": "mapping(address => uint256)",
        "numberOfBytes": "32",
        "value": "t_uint256"
      },
      "t_mapping(t_uint256,t_mapping(t_address,t_bool))": {
        "encoding": "mapping",
        "key": "t_uint256",
        "label": "mapping(uint256 => mapping(address => bool))",
        "numberOfBytes": "32",
        "value": "t_mapping(t_address,t_bool)"
      },
      "t_struct(BoardroomSnapshot)2352_storage": {
        "encoding": "inplace",
        "label": "struct Boardroom.BoardroomSnapshot",
        "members": [
          {
            "astId": 2347,
            "contract": "contracts/Boardroom.sol:Boardroom",
            "label": "time",
            "offset": 0,
            "slot": "0",
            "type": "t_uint256"
          },
          {
            "astId": 2349,
            "contract": "contracts/Boardroom.sol:Boardroom",
            "label": "rewardReceived",
            "offset": 0,
            "slot": "1",
            "type": "t_uint256"
          },
          {
            "astId": 2351,
            "contract": "contracts/Boardroom.sol:Boardroom",
            "label": "rewardPerShare",
            "offset": 0,
            "slot": "2",
            "type": "t_uint256"
          }
        ],
        "numberOfBytes": "96"
      },
      "t_struct(Memberseat)2345_storage": {
        "encoding": "inplace",
        "label": "struct Boardroom.Memberseat",
        "members": [
          {
            "astId": 2340,
            "contract": "contracts/Boardroom.sol:Boardroom",
            "label": "lastSnapshotIndex",
            "offset": 0,
            "slot": "0",
            "type": "t_uint256"
          },
          {
            "astId": 2342,
            "contract": "contracts/Boardroom.sol:Boardroom",
            "label": "rewardEarned",
            "offset": 0,
            "slot": "1",
            "type": "t_uint256"
          },
          {
            "astId": 2344,
            "contract": "contracts/Boardroom.sol:Boardroom",
            "label": "epochTimerStart",
            "offset": 0,
            "slot": "2",
            "type": "t_uint256"
          }
        ],
        "numberOfBytes": "96"
      },
      "t_uint256": {
        "encoding": "inplace",
        "label": "uint256",
        "numberOfBytes": "32"
      }
    }
  }
}