{
  "address": "0x522348779DCb2911539e76A1042aA922F9C47Ee3",
  "abi": [
    {
      "inputs": [
        {
          "internalType": "uint256",
          "name": "_taxRate",
          "type": "uint256"
        },
        {
          "internalType": "address",
          "name": "_taxCollectorAddress",
          "type": "address"
        }
      ],
      "stateMutability": "nonpayable",
      "type": "constructor"
    },
    {
      "anonymous": false,
      "inputs": [
        {
          "indexed": true,
          "internalType": "address",
          "name": "owner",
          "type": "address"
        },
        {
          "indexed": true,
          "internalType": "address",
          "name": "spender",
          "type": "address"
        },
        {
          "indexed": false,
          "internalType": "uint256",
          "name": "value",
          "type": "uint256"
        }
      ],
      "name": "Approval",
      "type": "event"
    },
    {
      "anonymous": false,
      "inputs": [
        {
          "indexed": true,
          "internalType": "address",
          "name": "previousOperator",
          "type": "address"
        },
        {
          "indexed": true,
          "internalType": "address",
          "name": "newOperator",
          "type": "address"
        }
      ],
      "name": "OperatorTransferred",
      "type": "event"
    },
    {
      "anonymous": false,
      "inputs": [
        {
          "indexed": true,
          "internalType": "address",
          "name": "previousOwner",
          "type": "address"
        },
        {
          "indexed": true,
          "internalType": "address",
          "name": "newOwner",
          "type": "address"
        }
      ],
      "name": "OwnershipTransferred",
      "type": "event"
    },
    {
      "anonymous": false,
      "inputs": [
        {
          "indexed": false,
          "internalType": "address",
          "name": "oldAddress",
          "type": "address"
        },
        {
          "indexed": false,
          "internalType": "address",
          "name": "newAddress",
          "type": "address"
        }
      ],
      "name": "TaxOfficeTransferred",
      "type": "event"
    },
    {
      "anonymous": false,
      "inputs": [
        {
          "indexed": true,
          "internalType": "address",
          "name": "from",
          "type": "address"
        },
        {
          "indexed": true,
          "internalType": "address",
          "name": "to",
          "type": "address"
        },
        {
          "indexed": false,
          "internalType": "uint256",
          "name": "value",
          "type": "uint256"
        }
      ],
      "name": "Transfer",
      "type": "event"
    },
    {
      "inputs": [],
      "name": "INITIAL_AIRDROP_WALLET_DISTRIBUTION",
      "outputs": [
        {
          "internalType": "uint256",
          "name": "",
          "type": "uint256"
        }
      ],
      "stateMutability": "view",
      "type": "function"
    },
    {
      "inputs": [],
      "name": "INITIAL_BOMB_POOL_DISTRIBUTION",
      "outputs": [
        {
          "internalType": "uint256",
          "name": "",
          "type": "uint256"
        }
      ],
      "stateMutability": "view",
      "type": "function"
    },
    {
      "inputs": [],
      "name": "INITIAL_GENESIS_POOL_DISTRIBUTION",
      "outputs": [
        {
          "internalType": "uint256",
          "name": "",
          "type": "uint256"
        }
      ],
      "stateMutability": "view",
      "type": "function"
    },
    {
      "inputs": [
        {
          "internalType": "address",
          "name": "owner",
          "type": "address"
        },
        {
          "internalType": "address",
          "name": "spender",
          "type": "address"
        }
      ],
      "name": "allowance",
      "outputs": [
        {
          "internalType": "uint256",
          "name": "",
          "type": "uint256"
        }
      ],
      "stateMutability": "view",
      "type": "function"
    },
    {
      "inputs": [
        {
          "internalType": "address",
          "name": "spender",
          "type": "address"
        },
        {
          "internalType": "uint256",
          "name": "amount",
          "type": "uint256"
        }
      ],
      "name": "approve",
      "outputs": [
        {
          "internalType": "bool",
          "name": "",
          "type": "bool"
        }
      ],
      "stateMutability": "nonpayable",
      "type": "function"
    },
    {
      "inputs": [],
      "name": "autoCalculateTax",
      "outputs": [
        {
          "internalType": "bool",
          "name": "",
          "type": "bool"
        }
      ],
      "stateMutability": "view",
      "type": "function"
    },
    {
      "inputs": [
        {
          "internalType": "address",
          "name": "account",
          "type": "address"
        }
      ],
      "name": "balanceOf",
      "outputs": [
        {
          "internalType": "uint256",
          "name": "",
          "type": "uint256"
        }
      ],
      "stateMutability": "view",
      "type": "function"
    },
    {
      "inputs": [],
      "name": "bombOracle",
      "outputs": [
        {
          "internalType": "address",
          "name": "",
          "type": "address"
        }
      ],
      "stateMutability": "view",
      "type": "function"
    },
    {
      "inputs": [
        {
          "internalType": "uint256",
          "name": "amount",
          "type": "uint256"
        }
      ],
      "name": "burn",
      "outputs": [],
      "stateMutability": "nonpayable",
      "type": "function"
    },
    {
      "inputs": [
        {
          "internalType": "address",
          "name": "account",
          "type": "address"
        },
        {
          "internalType": "uint256",
          "name": "amount",
          "type": "uint256"
        }
      ],
      "name": "burnFrom",
      "outputs": [],
      "stateMutability": "nonpayable",
      "type": "function"
    },
    {
      "inputs": [],
      "name": "burnThreshold",
      "outputs": [
        {
          "internalType": "uint256",
          "name": "",
          "type": "uint256"
        }
      ],
      "stateMutability": "view",
      "type": "function"
    },
    {
      "inputs": [],
      "name": "decimals",
      "outputs": [
        {
          "internalType": "uint8",
          "name": "",
          "type": "uint8"
        }
      ],
      "stateMutability": "view",
      "type": "function"
    },
    {
      "inputs": [
        {
          "internalType": "address",
          "name": "spender",
          "type": "address"
        },
        {
          "internalType": "uint256",
          "name": "subtractedValue",
          "type": "uint256"
        }
      ],
      "name": "decreaseAllowance",
      "outputs": [
        {
          "internalType": "bool",
          "name": "",
          "type": "bool"
        }
      ],
      "stateMutability": "nonpayable",
      "type": "function"
    },
    {
      "inputs": [],
      "name": "disableAutoCalculateTax",
      "outputs": [],
      "stateMutability": "nonpayable",
      "type": "function"
    },
    {
      "inputs": [
        {
          "internalType": "address",
          "name": "_genesisPool",
          "type": "address"
        },
        {
          "internalType": "address",
          "name": "_bombPool",
          "type": "address"
        },
        {
          "internalType": "address",
          "name": "_airdropWallet",
          "type": "address"
        }
      ],
      "name": "distributeReward",
      "outputs": [],
      "stateMutability": "nonpayable",
      "type": "function"
    },
    {
      "inputs": [],
      "name": "enableAutoCalculateTax",
      "outputs": [],
      "stateMutability": "nonpayable",
      "type": "function"
    },
    {
      "inputs": [
        {
          "internalType": "address",
          "name": "_address",
          "type": "address"
        }
      ],
      "name": "excludeAddress",
      "outputs": [
        {
          "internalType": "bool",
          "name": "",
          "type": "bool"
        }
      ],
      "stateMutability": "nonpayable",
      "type": "function"
    },
    {
      "inputs": [
        {
          "internalType": "address",
          "name": "",
          "type": "address"
        }
      ],
      "name": "excludedAddresses",
      "outputs": [
        {
          "internalType": "bool",
          "name": "",
          "type": "bool"
        }
      ],
      "stateMutability": "view",
      "type": "function"
    },
    {
      "inputs": [],
      "name": "getTaxTiersRatesCount",
      "outputs": [
        {
          "internalType": "uint256",
          "name": "count",
          "type": "uint256"
        }
      ],
      "stateMutability": "view",
      "type": "function"
    },
    {
      "inputs": [],
      "name": "getTaxTiersTwapsCount",
      "outputs": [
        {
          "internalType": "uint256",
          "name": "count",
          "type": "uint256"
        }
      ],
      "stateMutability": "view",
      "type": "function"
    },
    {
      "inputs": [
        {
          "internalType": "contract IERC20",
          "name": "_token",
          "type": "address"
        },
        {
          "internalType": "uint256",
          "name": "_amount",
          "type": "uint256"
        },
        {
          "internalType": "address",
          "name": "_to",
          "type": "address"
        }
      ],
      "name": "governanceRecoverUnsupported",
      "outputs": [],
      "stateMutability": "nonpayable",
      "type": "function"
    },
    {
      "inputs": [
        {
          "internalType": "address",
          "name": "_address",
          "type": "address"
        }
      ],
      "name": "includeAddress",
      "outputs": [
        {
          "internalType": "bool",
          "name": "",
          "type": "bool"
        }
      ],
      "stateMutability": "nonpayable",
      "type": "function"
    },
    {
      "inputs": [
        {
          "internalType": "address",
          "name": "spender",
          "type": "address"
        },
        {
          "internalType": "uint256",
          "name": "addedValue",
          "type": "uint256"
        }
      ],
      "name": "increaseAllowance",
      "outputs": [
        {
          "internalType": "bool",
          "name": "",
          "type": "bool"
        }
      ],
      "stateMutability": "nonpayable",
      "type": "function"
    },
    {
      "inputs": [
        {
          "internalType": "address",
          "name": "_address",
          "type": "address"
        }
      ],
      "name": "isAddressExcluded",
      "outputs": [
        {
          "internalType": "bool",
          "name": "",
          "type": "bool"
        }
      ],
      "stateMutability": "view",
      "type": "function"
    },
    {
      "inputs": [],
      "name": "isOperator",
      "outputs": [
        {
          "internalType": "bool",
          "name": "",
          "type": "bool"
        }
      ],
      "stateMutability": "view",
      "type": "function"
    },
    {
      "inputs": [
        {
          "internalType": "address",
          "name": "recipient_",
          "type": "address"
        },
        {
          "internalType": "uint256",
          "name": "amount_",
          "type": "uint256"
        }
      ],
      "name": "mint",
      "outputs": [
        {
          "internalType": "bool",
          "name": "",
          "type": "bool"
        }
      ],
      "stateMutability": "nonpayable",
      "type": "function"
    },
    {
      "inputs": [],
      "name": "name",
      "outputs": [
        {
          "internalType": "string",
          "name": "",
          "type": "string"
        }
      ],
      "stateMutability": "view",
      "type": "function"
    },
    {
      "inputs": [],
      "name": "operator",
      "outputs": [
        {
          "internalType": "address",
          "name": "",
          "type": "address"
        }
      ],
      "stateMutability": "view",
      "type": "function"
    },
    {
      "inputs": [],
      "name": "owner",
      "outputs": [
        {
          "internalType": "address",
          "name": "",
          "type": "address"
        }
      ],
      "stateMutability": "view",
      "type": "function"
    },
    {
      "inputs": [],
      "name": "renounceOwnership",
      "outputs": [],
      "stateMutability": "nonpayable",
      "type": "function"
    },
    {
      "inputs": [],
      "name": "rewardPoolDistributed",
      "outputs": [
        {
          "internalType": "bool",
          "name": "",
          "type": "bool"
        }
      ],
      "stateMutability": "view",
      "type": "function"
    },
    {
      "inputs": [
        {
          "internalType": "address",
          "name": "_bombOracle",
          "type": "address"
        }
      ],
      "name": "setBombOracle",
      "outputs": [],
      "stateMutability": "nonpayable",
      "type": "function"
    },
    {
      "inputs": [
        {
          "internalType": "uint256",
          "name": "_burnThreshold",
          "type": "uint256"
        }
      ],
      "name": "setBurnThreshold",
      "outputs": [
        {
          "internalType": "bool",
          "name": "",
          "type": "bool"
        }
      ],
      "stateMutability": "nonpayable",
      "type": "function"
    },
    {
      "inputs": [
        {
          "internalType": "address",
          "name": "_taxCollectorAddress",
          "type": "address"
        }
      ],
      "name": "setTaxCollectorAddress",
      "outputs": [],
      "stateMutability": "nonpayable",
      "type": "function"
    },
    {
      "inputs": [
        {
          "internalType": "address",
          "name": "_taxOffice",
          "type": "address"
        }
      ],
      "name": "setTaxOffice",
      "outputs": [],
      "stateMutability": "nonpayable",
      "type": "function"
    },
    {
      "inputs": [
        {
          "internalType": "uint256",
          "name": "_taxRate",
          "type": "uint256"
        }
      ],
      "name": "setTaxRate",
      "outputs": [],
      "stateMutability": "nonpayable",
      "type": "function"
    },
    {
      "inputs": [
        {
          "internalType": "uint8",
          "name": "_index",
          "type": "uint8"
        },
        {
          "internalType": "uint256",
          "name": "_value",
          "type": "uint256"
        }
      ],
      "name": "setTaxTiersRate",
      "outputs": [
        {
          "internalType": "bool",
          "name": "",
          "type": "bool"
        }
      ],
      "stateMutability": "nonpayable",
      "type": "function"
    },
    {
      "inputs": [
        {
          "internalType": "uint8",
          "name": "_index",
          "type": "uint8"
        },
        {
          "internalType": "uint256",
          "name": "_value",
          "type": "uint256"
        }
      ],
      "name": "setTaxTiersTwap",
      "outputs": [
        {
          "internalType": "bool",
          "name": "",
          "type": "bool"
        }
      ],
      "stateMutability": "nonpayable",
      "type": "function"
    },
    {
      "inputs": [],
      "name": "symbol",
      "outputs": [
        {
          "internalType": "string",
          "name": "",
          "type": "string"
        }
      ],
      "stateMutability": "view",
      "type": "function"
    },
    {
      "inputs": [],
      "name": "taxCollectorAddress",
      "outputs": [
        {
          "internalType": "address",
          "name": "",
          "type": "address"
        }
      ],
      "stateMutability": "view",
      "type": "function"
    },
    {
      "inputs": [],
      "name": "taxOffice",
      "outputs": [
        {
          "internalType": "address",
          "name": "",
          "type": "address"
        }
      ],
      "stateMutability": "view",
      "type": "function"
    },
    {
      "inputs": [],
      "name": "taxRate",
      "outputs": [
        {
          "internalType": "uint256",
          "name": "",
          "type": "uint256"
        }
      ],
      "stateMutability": "view",
      "type": "function"
    },
    {
      "inputs": [
        {
          "internalType": "uint256",
          "name": "",
          "type": "uint256"
        }
      ],
      "name": "taxTiersRates",
      "outputs": [
        {
          "internalType": "uint256",
          "name": "",
          "type": "uint256"
        }
      ],
      "stateMutability": "view",
      "type": "function"
    },
    {
      "inputs": [
        {
          "internalType": "uint256",
          "name": "",
          "type": "uint256"
        }
      ],
      "name": "taxTiersTwaps",
      "outputs": [
        {
          "internalType": "uint256",
          "name": "",
          "type": "uint256"
        }
      ],
      "stateMutability": "view",
      "type": "function"
    },
    {
      "inputs": [],
      "name": "totalSupply",
      "outputs": [
        {
          "internalType": "uint256",
          "name": "",
          "type": "uint256"
        }
      ],
      "stateMutability": "view",
      "type": "function"
    },
    {
      "inputs": [
        {
          "internalType": "address",
          "name": "recipient",
          "type": "address"
        },
        {
          "internalType": "uint256",
          "name": "amount",
          "type": "uint256"
        }
      ],
      "name": "transfer",
      "outputs": [
        {
          "internalType": "bool",
          "name": "",
          "type": "bool"
        }
      ],
      "stateMutability": "nonpayable",
      "type": "function"
    },
    {
      "inputs": [
        {
          "internalType": "address",
          "name": "sender",
          "type": "address"
        },
        {
          "internalType": "address",
          "name": "recipient",
          "type": "address"
        },
        {
          "internalType": "uint256",
          "name": "amount",
          "type": "uint256"
        }
      ],
      "name": "transferFrom",
      "outputs": [
        {
          "internalType": "bool",
          "name": "",
          "type": "bool"
        }
      ],
      "stateMutability": "nonpayable",
      "type": "function"
    },
    {
      "inputs": [
        {
          "internalType": "address",
          "name": "newOperator_",
          "type": "address"
        }
      ],
      "name": "transferOperator",
      "outputs": [],
      "stateMutability": "nonpayable",
      "type": "function"
    },
    {
      "inputs": [
        {
          "internalType": "address",
          "name": "newOwner",
          "type": "address"
        }
      ],
      "name": "transferOwnership",
      "outputs": [],
      "stateMutability": "nonpayable",
      "type": "function"
    }
  ],
  "transactionHash": "0x523125ec00a1c114c1305db04068158c240ecb9ca626fc77d7ba70ded12901fb",
  "args": [
    0,
    "0x0D8e060CA2D847553ec14394ee6B304623E0d1d6"
  ],
  "solcInputHash": "bff592de191db728483a902d190d9527",
  "bytecode": "0x6006805460ff60a01b19169055670f43fc2c04ee0000600a819055610240604052600060809081526706f05b59d3b2000060a052670853a0d2313c000060c0526709b6e64a8ec6000060e052670b1a2bc2ec50000061010052670c7d713b49da000061012052670d2f13f7789f000061014052670de0b6b3a764000061016052670e92596fd6290000610180526101a0919091526710a741a4627800006101c05267120a871cc00200006101e05267136dcc951d8c0000610200526714d1120d7b16000061022052620000d790600c90600e62000653565b50604080516101c0810182526107d0815261076c6020820152610708918101919091526106a4606082015261064060808201526105dc60a0820181905260c0820181905260e0820181905261010082015261057861012082015261038461014082015261019061016082015260c861018082015260646101a08201526200016390600d90600e620006ae565b503480156200017157600080fd5b506040516200307638038062003076833981810160405260408110156200019757600080fd5b508051602091820151604080518082018252600a815269626f6d622e6d6f6e657960b01b818601908152825180840190935260048352632127a6a160e11b958301959095528051939492939092620001f39160039190620006f2565b50805162000209906004906020840190620006f2565b50506005805460ff1916601217905550600062000225620003ba565b60058054610100600160a81b0319166101006001600160a01b03841690810291909117909155604051919250906000907f8be0079c531659141344cd1fd0a4f28419497f9722a3daafe3b4186f6b6457e0908290a35062000285620003ba565b600680546001600160a01b0319166001600160a01b0392831617908190556040519116906000907f74da04524d50c64947f5dd5381ef1a4dca5cba8ed1d816243f9e48aa0b5617ed908290a3612710821062000328576040805162461bcd60e51b815260206004820152601b60248201527f74617820657175616c206f722062696767657220746f20313030250000000000604482015290519081900360640190fd5b6001600160a01b0381166200036f5760405162461bcd60e51b815260040180806020018281038252602e8152602001806200301c602e913960400191505060405180910390fd5b6200037a30620003be565b506200038f33670de0b6b3a7640000620004b5565b600991909155600b80546001600160a01b0319166001600160a01b039092169190911790556200077c565b3390565b6000620003ca620005c4565b80620003e057506008546001600160a01b031633145b6200041d5760405162461bcd60e51b815260040180806020018281038252602c8152602001806200304a602c913960400191505060405180910390fd5b6001600160a01b0382166000908152600e602052604090205460ff16156200048c576040805162461bcd60e51b815260206004820152601960248201527f616464726573732063616e2774206265206578636c7564656400000000000000604482015290519081900360640190fd5b506001600160a01b03166000908152600e60205260409020805460ff1916600190811790915590565b6001600160a01b03821662000511576040805162461bcd60e51b815260206004820152601f60248201527f45524332303a206d696e7420746f20746865207a65726f206164647265737300604482015290519081900360640190fd5b6200051f60008383620005ec565b6200053b81600254620005f160201b62001ae51790919060201c565b6002556001600160a01b038216600090815260208181526040909120546200056e91839062001ae5620005f1821b17901c565b6001600160a01b0383166000818152602081815260408083209490945583518581529351929391927fddf252ad1be2c89b69c2b068fc378daa952ba7f163c4a11628f55a4df523b3ef9281900390910190a35050565b6006546000906001600160a01b0316620005dd620003ba565b6001600160a01b031614905090565b505050565b6000828201838110156200064c576040805162461bcd60e51b815260206004820152601b60248201527f536166654d6174683a206164646974696f6e206f766572666c6f770000000000604482015290519081900360640190fd5b9392505050565b8280548282559060005260206000209081019282156200069c579160200282015b828111156200069c57825182906001600160401b031690559160200191906001019062000674565b50620006aa92915062000765565b5090565b8280548282559060005260206000209081019282156200069c579160200282015b828111156200069c578251829061ffff16905591602001919060010190620006cf565b828054600181600116156101000203166002900490600052602060002090601f016020900481019282601f106200073557805160ff19168380011785556200069c565b828001600101855582156200069c579182015b828111156200069c57825182559160200191906001019062000748565b5b80821115620006aa576000815560010162000766565b612890806200078c6000396000f3fe608060405234801561001057600080fd5b50600436106102bb5760003560e01c8063715018a611610182578063a9059cbb116100e9578063dd62ed3e116100a2578063ee2a95351161007c578063ee2a953514610834578063f2fde38b1461083c578063ff87fc7c14610862578063ffa8226e1461086a576102bb565b8063dd62ed3e146107d8578063e372a36f14610806578063ebca1bd91461080e576102bb565b8063a9059cbb14610715578063b87c5a4a14610741578063c3bdf61314610767578063c6d69a301461076f578063cbf3149e1461078c578063cf011b26146107b2576102bb565b806395d89b411161013b57806395d89b41146106ac5780639662676c146106b457806396640845146106bc5780639d6b5f21146106c4578063a457c2d7146106e1578063a6431bba1461070d576102bb565b8063715018a61461063a578063771a3a1d1461064257806379cc67901461064a5780638d3cc818146106765780638da5cb5b1461067e57806393995d4b14610686576102bb565b806342c6b4f111610226578063570ca735116101df578063570ca7351461059b5780635c29908d146105a357806365bbacd9146105c057806366206ce9146105c857806369356d47146105ee57806370a0823114610614576102bb565b806342c6b4f1146104f85780634456eda2146105155780634e20a02c1461051d5780634f6d38d014610525578063521181d51461052d57806354575af414610565576102bb565b80633758e6ce116102785780633758e6ce1461041357806339509351146104395780633e5f13d4146104655780633f07d76a1461048957806340c10f19146104af57806342966c68146104db576102bb565b806306fdde03146102c0578063095ea7b31461033d57806318160ddd1461037d57806323b872dd1461039757806329605e77146103cd578063313ce567146103f5575b600080fd5b6102c8610872565b6040805160208082528351818301528351919283929083019185019080838360005b838110156103025781810151838201526020016102ea565b50505050905090810190601f16801561032f5780820380516001836020036101000a031916815260200191505b509250505060405180910390f35b6103696004803603604081101561035357600080fd5b506001600160a01b038135169060200135610909565b604080519115158252519081900360200190f35b610385610927565b60408051918252519081900360200190f35b610369600480360360608110156103ad57600080fd5b506001600160a01b0381358116916020810135909116906040013561092d565b6103f3600480360360208110156103e357600080fd5b50356001600160a01b0316610a08565b005b6103fd610a88565b6040805160ff9092168252519081900360200190f35b6103696004803603602081101561042957600080fd5b50356001600160a01b0316610a91565b6103696004803603604081101561044f57600080fd5b506001600160a01b038135169060200135610b86565b61046d610bd4565b604080516001600160a01b039092168252519081900360200190f35b6103f36004803603602081101561049f57600080fd5b50356001600160a01b0316610be3565b610369600480360360408110156104c557600080fd5b506001600160a01b038135169060200135610cea565b6103f3600480360360208110156104f157600080fd5b5035610d64565b6103856004803603602081101561050e57600080fd5b5035610d6d565b610369610d8b565b610385610db1565b610385610dbf565b6103f36004803603606081101561054357600080fd5b506001600160a01b038135811691602081013582169160409091013516610dc5565b6103f36004803603606081101561057b57600080fd5b506001600160a01b03813581169160208101359160409091013516610fa1565b61046d611072565b610385600480360360208110156105b957600080fd5b5035611081565b6103f361108e565b610369600480360360408110156105de57600080fd5b5060ff81351690602001356110ea565b6103f36004803603602081101561060457600080fd5b50356001600160a01b0316611220565b6103856004803603602081101561062a57600080fd5b50356001600160a01b03166112d4565b6103f36112ef565b6103856113b3565b6103f36004803603604081101561066057600080fd5b506001600160a01b0381351690602001356113b9565b610369611410565b61046d611420565b6103696004803603602081101561069c57600080fd5b50356001600160a01b0316611434565b6102c8611520565b610369611581565b610385611591565b610369600480360360208110156106da57600080fd5b503561159f565b610369600480360360408110156106f757600080fd5b506001600160a01b0381351690602001356115f8565b610385611660565b6103696004803603604081101561072b57600080fd5b506001600160a01b038135169060200135611666565b6103696004803603604081101561075757600080fd5b5060ff813516906020013561167a565b61046d611723565b6103f36004803603602081101561078557600080fd5b5035611732565b6103f3600480360360208110156107a257600080fd5b50356001600160a01b0316611823565b610369600480360360208110156107c857600080fd5b50356001600160a01b03166118e2565b610385600480360360408110156107ee57600080fd5b506001600160a01b03813581169160200135166118f7565b61046d611922565b6103696004803603602081101561082457600080fd5b50356001600160a01b0316611931565b61038561194f565b6103f36004803603602081101561085257600080fd5b50356001600160a01b0316611955565b6103f3611a75565b610385611ad7565b60038054604080516020601f60026000196101006001881615020190951694909404938401819004810282018101909252828152606093909290918301828280156108fe5780601f106108d3576101008083540402835291602001916108fe565b820191906000526020600020905b8154815290600101906020018083116108e157829003601f168201915b505050505090505b90565b600061091d610916611b46565b8484611b4a565b5060015b92915050565b60025490565b600b5460009081908190600160a01b900460ff161561096e576000610950611c36565b905061095b81611d0a565b9250600a5481101561096c57600191505b505b81158061099357506001600160a01b0386166000908152600e602052604090205460ff165b156109a8576109a3868686611e18565b6109b6565b6109b486868684611f73565b505b6109fc866109c2611b46565b6109f787604051806060016040528060288152602001612666602891396109f08c6109eb611b46565b6118f7565b9190611fec565b611b4a565b50600195945050505050565b610a10611b46565b6001600160a01b0316610a21611420565b6001600160a01b031614610a7c576040805162461bcd60e51b815260206004820181905260248201527f4f776e61626c653a2063616c6c6572206973206e6f7420746865206f776e6572604482015290519081900360640190fd5b610a8581612083565b50565b60055460ff1690565b6000610a9b610d8b565b80610ab057506008546001600160a01b031633145b610aeb5760405162461bcd60e51b815260040180806020018281038252602c8152602001806127e6602c913960400191505060405180910390fd5b6001600160a01b0382166000908152600e602052604090205460ff1615610b59576040805162461bcd60e51b815260206004820152601960248201527f616464726573732063616e2774206265206578636c7564656400000000000000604482015290519081900360640190fd5b506001600160a01b0381166000908152600e60205260409020805460ff191660019081179091555b919050565b600061091d610b93611b46565b846109f78560016000610ba4611b46565b6001600160a01b03908116825260208083019390935260409182016000908120918c168152925290205490611ae5565b6008546001600160a01b031681565b610beb610d8b565b80610c0057506008546001600160a01b031633145b610c3b5760405162461bcd60e51b815260040180806020018281038252602c8152602001806127e6602c913960400191505060405180910390fd5b6001600160a01b038116610c805760405162461bcd60e51b81526004018080602001828103825260268152602001806125f26026913960400191505060405180910390fd5b600854604080516001600160a01b039283168152918316602083015280517f75237613d1cfb394eb7979839ecbeacaca4592ef0cf96791979625803948a6019281900390910190a1600880546001600160a01b0319166001600160a01b0392909216919091179055565b6006546000906001600160a01b03163314610d365760405162461bcd60e51b81526004018080602001828103825260248152602001806126e06024913960400191505060405180910390fd5b6000610d41846112d4565b9050610d4d8484612120565b6000610d58856112d4565b91909111949350505050565b610a8581612210565b600c8181548110610d7a57fe5b600091825260209091200154905081565b6006546000906001600160a01b0316610da2611b46565b6001600160a01b031614905090565b6902544faa778090e0000081565b600a5481565b6006546001600160a01b03163314610e0e5760405162461bcd60e51b81526004018080602001828103825260248152602001806126e06024913960400191505060405180910390fd5b600654600160a01b900460ff1615610e6d576040805162461bcd60e51b815260206004820152601860248201527f6f6e6c792063616e2064697374726962757465206f6e63650000000000000000604482015290519081900360640190fd5b6001600160a01b038316610eb8576040805162461bcd60e51b815260206004820152600d60248201526c0857d9d95b995cda5cd41bdbdb609a1b604482015290519081900360640190fd5b6001600160a01b038216610f00576040805162461bcd60e51b815260206004820152600a6024820152690857d89bdb58941bdbdb60b21b604482015290519081900360640190fd5b6001600160a01b038116610f4d576040805162461bcd60e51b815260206004820152600f60248201526e0857d85a5c991c9bdc15d85b1b195d608a1b604482015290519081900360640190fd5b6006805460ff60a01b1916600160a01b179055610f74836902544faa778090e00000612120565b610f8882691da56a4b0835bf800000612120565b610f9c816901e7e4171bf4d3a00000612120565b505050565b6006546001600160a01b03163314610fea5760405162461bcd60e51b81526004018080602001828103825260248152602001806126e06024913960400191505060405180910390fd5b826001600160a01b031663a9059cbb82846040518363ffffffff1660e01b815260040180836001600160a01b0316815260200182815260200192505050602060405180830381600087803b15801561104157600080fd5b505af1158015611055573d6000803e3d6000fd5b505050506040513d602081101561106b57600080fd5b5050505050565b6006546001600160a01b031690565b600d8181548110610d7a57fe5b6008546001600160a01b031633146110db576040805162461bcd60e51b815260206004820152601c60248201526000805160206125ac833981519152604482015290519081900360640190fd5b600b805460ff60a01b19169055565b6008546000906001600160a01b0316331461113a576040805162461bcd60e51b815260206004820152601c60248201526000805160206125ac833981519152604482015290519081900360640190fd5b611142611660565b8360ff16106111825760405162461bcd60e51b815260040180806020018281038252602a815260200180612704602a913960400191505060405180910390fd5b60ff8316156111b457600c6001840360ff168154811061119e57fe5b906000526020600020015482116111b457600080fd5b6111c760016111c1611660565b90612221565b8360ff1610156111fa57600c8360010160ff16815481106111e457fe5b906000526020600020015482106111fa57600080fd5b81600c8460ff168154811061120b57fe5b60009182526020909120015550600192915050565b6008546001600160a01b0316331461126d576040805162461bcd60e51b815260206004820152601c60248201526000805160206125ac833981519152604482015290519081900360640190fd5b6001600160a01b0381166112b25760405162461bcd60e51b815260040180806020018281038252602e81526020018061268e602e913960400191505060405180910390fd5b600b80546001600160a01b0319166001600160a01b0392909216919091179055565b6001600160a01b031660009081526020819052604090205490565b6112f7611b46565b6001600160a01b0316611308611420565b6001600160a01b031614611363576040805162461bcd60e51b815260206004820181905260248201527f4f776e61626c653a2063616c6c6572206973206e6f7420746865206f776e6572604482015290519081900360640190fd5b60055460405160009161010090046001600160a01b0316907f8be0079c531659141344cd1fd0a4f28419497f9722a3daafe3b4186f6b6457e0908390a360058054610100600160a81b0319169055565b60095481565b6006546001600160a01b031633146114025760405162461bcd60e51b81526004018080602001828103825260248152602001806126e06024913960400191505060405180910390fd5b61140c828261227e565b5050565b600b54600160a01b900460ff1681565b60055461010090046001600160a01b031690565b600061143e610d8b565b8061145357506008546001600160a01b031633145b61148e5760405162461bcd60e51b815260040180806020018281038252602c8152602001806127e6602c913960400191505060405180910390fd5b6001600160a01b0382166000908152600e602052604090205460ff166114fb576040805162461bcd60e51b815260206004820152601960248201527f616464726573732063616e277420626520696e636c7564656400000000000000604482015290519081900360640190fd5b506001600160a01b03166000908152600e60205260409020805460ff19169055600190565b60048054604080516020601f60026000196101006001881615020190951694909404938401819004810282018101909252828152606093909290918301828280156108fe5780601f106108d3576101008083540402835291602001916108fe565b600654600160a01b900460ff1681565b691da56a4b0835bf80000081565b6008546000906001600160a01b031633146115ef576040805162461bcd60e51b815260206004820152601c60248201526000805160206125ac833981519152604482015290519081900360640190fd5b600a9190915590565b600061091d611605611b46565b846109f785604051806060016040528060258152602001612836602591396001600061162f611b46565b6001600160a01b03908116825260208083019390935260409182016000908120918d16815292529020549190611fec565b600c5490565b600061091d611673611b46565b8484611e18565b6008546000906001600160a01b031633146116ca576040805162461bcd60e51b815260206004820152601c60248201526000805160206125ac833981519152604482015290519081900360640190fd5b6116d261194f565b8360ff16106117125760405162461bcd60e51b815260040180806020018281038252602a815260200180612704602a913960400191505060405180910390fd5b81600d8460ff168154811061120b57fe5b600b546001600160a01b031681565b6008546001600160a01b0316331461177f576040805162461bcd60e51b815260206004820152601c60248201526000805160206125ac833981519152604482015290519081900360640190fd5b600b54600160a01b900460ff16156117c85760405162461bcd60e51b815260040180806020018281038252602481526020018061279d6024913960400191505060405180910390fd5b612710811061181e576040805162461bcd60e51b815260206004820152601b60248201527f74617820657175616c206f722062696767657220746f20313030250000000000604482015290519081900360640190fd5b600955565b61182b610d8b565b8061184057506008546001600160a01b031633145b61187b5760405162461bcd60e51b815260040180806020018281038252602c8152602001806127e6602c913960400191505060405180910390fd5b6001600160a01b0381166118c05760405162461bcd60e51b815260040180806020018281038252602281526020018061277b6022913960400191505060405180910390fd5b600780546001600160a01b0319166001600160a01b0392909216919091179055565b600e6020526000908152604090205460ff1681565b6001600160a01b03918216600090815260016020908152604080832093909416825291909152205490565b6007546001600160a01b031681565b6001600160a01b03166000908152600e602052604090205460ff1690565b600d5490565b61195d611b46565b6001600160a01b031661196e611420565b6001600160a01b0316146119c9576040805162461bcd60e51b815260206004820181905260248201527f4f776e61626c653a2063616c6c6572206973206e6f7420746865206f776e6572604482015290519081900360640190fd5b6001600160a01b038116611a0e5760405162461bcd60e51b81526004018080602001828103825260268152602001806125646026913960400191505060405180910390fd5b6005546040516001600160a01b0380841692610100900416907f8be0079c531659141344cd1fd0a4f28419497f9722a3daafe3b4186f6b6457e090600090a3600580546001600160a01b0390921661010002610100600160a81b0319909216919091179055565b6008546001600160a01b03163314611ac2576040805162461bcd60e51b815260206004820152601c60248201526000805160206125ac833981519152604482015290519081900360640190fd5b600b805460ff60a01b1916600160a01b179055565b6901e7e4171bf4d3a0000081565b600082820183811015611b3f576040805162461bcd60e51b815260206004820152601b60248201527f536166654d6174683a206164646974696f6e206f766572666c6f770000000000604482015290519081900360640190fd5b9392505050565b3390565b6001600160a01b038316611b8f5760405162461bcd60e51b81526004018080602001828103825260248152602001806128126024913960400191505060405180910390fd5b6001600160a01b038216611bd45760405162461bcd60e51b815260040180806020018281038252602281526020018061258a6022913960400191505060405180910390fd5b6001600160a01b03808416600081815260016020908152604080832094871680845294825291829020859055815185815291517f8c5be1e5ebec7d5bd14f71427d1e84f3dd0314c0f7b2291e5b200ac8c7c3b9259281900390910190a3505050565b60075460408051633ddac95360e01b8152306004820152670de0b6b3a7640000602482015290516000926001600160a01b031691633ddac953916044808301926020929190829003018186803b158015611c8f57600080fd5b505afa925050508015611cb457506040513d6020811015611caf57600080fd5b505160015b611cef5760405162461bcd60e51b815260040180806020018281038252602c81526020018061272e602c913960400191505060405180910390fd5b71ffffffffffffffffffffffffffffffffffff169050610906565b600b54600090600160a01b900460ff1615610b81576000611d376001611d2e611660565b60ff16906122c7565b90505b600c8160ff1681548110611d4a57fe5b90600052602060002001548310611e0f57612710600d8260ff1681548110611d6e57fe5b906000526020600020015410611dcb576040805162461bcd60e51b815260206004820152601b60248201527f74617820657175616c206f722062696767657220746f20313030250000000000604482015290519081900360640190fd5b600d8160ff1681548110611ddb57fe5b9060005260206000200154600981905550600d8160ff1681548110611dfc57fe5b9060005260206000200154915050610b81565b60001901611d3a565b6001600160a01b038316611e5d5760405162461bcd60e51b81526004018080602001828103825260258152602001806127c16025913960400191505060405180910390fd5b6001600160a01b038216611ea25760405162461bcd60e51b815260040180806020018281038252602381526020018061251f6023913960400191505060405180910390fd5b611ead838383610f9c565b611eea816040518060600160405280602681526020016125cc602691396001600160a01b0386166000908152602081905260409020549190611fec565b6001600160a01b038085166000908152602081905260408082209390935590841681522054611f199082611ae5565b6001600160a01b038084166000818152602081815260409182902094909455805185815290519193928716927fddf252ad1be2c89b69c2b068fc378daa952ba7f163c4a11628f55a4df523b3ef92918290030190a3505050565b600080611f97612710611f916009548761230990919063ffffffff16565b90612362565b90506000611fa58583612221565b90508315611fbc57611fb7878361227e565b611fd4565b600b54611fd49088906001600160a01b031684611e18565b611fdf878783611e18565b5060019695505050505050565b6000818484111561207b5760405162461bcd60e51b81526004018080602001828103825283818151815260200191508051906020019080838360005b83811015612040578181015183820152602001612028565b50505050905090810190601f16801561206d5780820380516001836020036101000a031916815260200191505b509250505060405180910390fd5b505050900390565b6001600160a01b0381166120c85760405162461bcd60e51b815260040180806020018281038252602d815260200180612618602d913960400191505060405180910390fd5b6040516001600160a01b038216906000907f74da04524d50c64947f5dd5381ef1a4dca5cba8ed1d816243f9e48aa0b5617ed908290a3600680546001600160a01b0319166001600160a01b0392909216919091179055565b6001600160a01b03821661217b576040805162461bcd60e51b815260206004820152601f60248201527f45524332303a206d696e7420746f20746865207a65726f206164647265737300604482015290519081900360640190fd5b61218760008383610f9c565b6002546121949082611ae5565b6002556001600160a01b0382166000908152602081905260409020546121ba9082611ae5565b6001600160a01b0383166000818152602081815260408083209490945583518581529351929391927fddf252ad1be2c89b69c2b068fc378daa952ba7f163c4a11628f55a4df523b3ef9281900390910190a35050565b610a8561221b611b46565b826123c9565b600082821115612278576040805162461bcd60e51b815260206004820152601e60248201527f536166654d6174683a207375627472616374696f6e206f766572666c6f770000604482015290519081900360640190fd5b50900390565b60006122a9826040518060600160405280602481526020016126bc602491396109f0866109eb611b46565b90506122bd836122b7611b46565b83611b4a565b610f9c83836123c9565b6000611b3f83836040518060400160405280601e81526020017f536166654d6174683a207375627472616374696f6e206f766572666c6f7700008152506124c5565b60008261231857506000610921565b8282028284828161232557fe5b0414611b3f5760405162461bcd60e51b81526004018080602001828103825260218152602001806126456021913960400191505060405180910390fd5b60008082116123b8576040805162461bcd60e51b815260206004820152601a60248201527f536166654d6174683a206469766973696f6e206279207a65726f000000000000604482015290519081900360640190fd5b8183816123c157fe5b049392505050565b6001600160a01b03821661240e5760405162461bcd60e51b815260040180806020018281038252602181526020018061275a6021913960400191505060405180910390fd5b61241a82600083610f9c565b61245781604051806060016040528060228152602001612542602291396001600160a01b0385166000908152602081905260409020549190611fec565b6001600160a01b03831660009081526020819052604090205560025461247d9082612221565b6002556040805182815290516000916001600160a01b038516917fddf252ad1be2c89b69c2b068fc378daa952ba7f163c4a11628f55a4df523b3ef9181900360200190a35050565b60008360ff168360ff161115829061207b5760405162461bcd60e51b815260206004820181815283516024840152835190928392604490910191908501908083836000831561204057818101518382015260200161202856fe45524332303a207472616e7366657220746f20746865207a65726f206164647265737345524332303a206275726e20616d6f756e7420657863656564732062616c616e63654f776e61626c653a206e6577206f776e657220697320746865207a65726f206164647265737345524332303a20617070726f766520746f20746865207a65726f206164647265737343616c6c6572206973206e6f742074686520746178206f66666963650000000045524332303a207472616e7366657220616d6f756e7420657863656564732062616c616e6365746178206f666669636520616464726573732063616e6e6f74206265203020616464726573736f70657261746f723a207a65726f206164647265737320676976656e20666f72206e6577206f70657261746f72536166654d6174683a206d756c7469706c69636174696f6e206f766572666c6f7745524332303a207472616e7366657220616d6f756e74206578636565647320616c6c6f77616e636574617820636f6c6c6563746f722061646472657373206d757374206265206e6f6e2d7a65726f206164647265737345524332303a206275726e20616d6f756e74206578636565647320616c6c6f77616e63656f70657261746f723a2063616c6c6572206973206e6f7420746865206f70657261746f72496e6465782068617320746f206c6f776572207468616e20636f756e74206f6620746178207469657273426f6d623a206661696c656420746f20666574636820424f4d422070726963652066726f6d204f7261636c6545524332303a206275726e2066726f6d20746865207a65726f20616464726573736f7261636c6520616464726573732063616e6e6f74206265203020616464726573736175746f2063616c63756c617465207461782063616e6e6f7420626520656e61626c656445524332303a207472616e736665722066726f6d20746865207a65726f206164647265737343616c6c6572206973206e6f7420746865206f70657261746f72206f722074686520746178206f666669636545524332303a20617070726f76652066726f6d20746865207a65726f206164647265737345524332303a2064656372656173656420616c6c6f77616e63652062656c6f77207a65726fa264697066735822122038728b5e59848aebe45f6a6cc6a8199040dc014447fcee26db94469aaac2430464736f6c634300060c003374617820636f6c6c6563746f722061646472657373206d757374206265206e6f6e2d7a65726f206164647265737343616c6c6572206973206e6f7420746865206f70657261746f72206f722074686520746178206f6666696365",
  "devdoc": {
    "kind": "dev",
    "methods": {
      "allowance(address,address)": {
        "details": "See {IERC20-allowance}."
      },
      "approve(address,uint256)": {
        "details": "See {IERC20-approve}. Requirements: - `spender` cannot be the zero address."
      },
      "balanceOf(address)": {
        "details": "See {IERC20-balanceOf}."
      },
      "burn(uint256)": {
        "details": "Destroys `amount` tokens from the caller. See {ERC20-_burn}."
      },
      "burnFrom(address,uint256)": {
        "details": "Destroys `amount` tokens from `account`, deducting from the caller's allowance. See {ERC20-_burn} and {ERC20-allowance}. Requirements: - the caller must have allowance for ``accounts``'s tokens of at least `amount`."
      },
      "decimals()": {
        "details": "Returns the number of decimals used to get its user representation. For example, if `decimals` equals `2`, a balance of `505` tokens should be displayed to a user as `5,05` (`505 / 10 ** 2`). Tokens usually opt for a value of 18, imitating the relationship between Ether and Wei. This is the value {ERC20} uses, unless {_setupDecimals} is called. NOTE: This information is only used for _display_ purposes: it in no way affects any of the arithmetic of the contract, including {IERC20-balanceOf} and {IERC20-transfer}."
      },
      "decreaseAllowance(address,uint256)": {
        "details": "Atomically decreases the allowance granted to `spender` by the caller. This is an alternative to {approve} that can be used as a mitigation for problems described in {IERC20-approve}. Emits an {Approval} event indicating the updated allowance. Requirements: - `spender` cannot be the zero address. - `spender` must have allowance for the caller of at least `subtractedValue`."
      },
      "increaseAllowance(address,uint256)": {
        "details": "Atomically increases the allowance granted to `spender` by the caller. This is an alternative to {approve} that can be used as a mitigation for problems described in {IERC20-approve}. Emits an {Approval} event indicating the updated allowance. Requirements: - `spender` cannot be the zero address."
      },
      "mint(address,uint256)": {
        "params": {
          "amount_": "The amount of BOMB to mint to",
          "recipient_": "The address of recipient"
        },
        "returns": {
          "_0": "whether the process has been done"
        }
      },
      "name()": {
        "details": "Returns the name of the token."
      },
      "owner()": {
        "details": "Returns the address of the current owner."
      },
      "renounceOwnership()": {
        "details": "Leaves the contract without owner. It will not be possible to call `onlyOwner` functions anymore. Can only be called by the current owner. NOTE: Renouncing ownership will leave the contract without an owner, thereby removing any functionality that is only available to the owner."
      },
      "symbol()": {
        "details": "Returns the symbol of the token, usually a shorter version of the name."
      },
      "totalSupply()": {
        "details": "See {IERC20-totalSupply}."
      },
      "transfer(address,uint256)": {
        "details": "See {IERC20-transfer}. Requirements: - `recipient` cannot be the zero address. - the caller must have a balance of at least `amount`."
      },
      "transferFrom(address,address,uint256)": {
        "details": "See {IERC20-transferFrom}. Emits an {Approval} event indicating the updated allowance. This is not required by the EIP. See the note at the beginning of {ERC20}. Requirements: - `sender` and `recipient` cannot be the zero address. - `sender` must have a balance of at least `amount`. - the caller must have allowance for ``sender``'s tokens of at least `amount`."
      },
      "transferOwnership(address)": {
        "details": "Transfers ownership of the contract to a new account (`newOwner`). Can only be called by the current owner."
      }
    },
    "version": 1
  },
  "userdoc": {
    "kind": "user",
    "methods": {
      "constructor": "Constructs the BOMB ERC-20 contract.",
      "distributeReward(address,address,address)": {
        "notice": "distribute to reward pool (only once)"
      },
      "mint(address,uint256)": {
        "notice": "Operator mints BOMB to a recipient"
      }
    },
    "version": 1
  },
  "storageLayout": {
    "storage": [
      {
        "astId": 557,
        "contract": "contracts/Bomb.sol:Bomb",
        "label": "_balances",
        "offset": 0,
        "slot": "0",
        "type": "t_mapping(t_address,t_uint256)"
      },
      {
        "astId": 563,
        "contract": "contracts/Bomb.sol:Bomb",
        "label": "_allowances",
        "offset": 0,
        "slot": "1",
        "type": "t_mapping(t_address,t_mapping(t_address,t_uint256))"
      },
      {
        "astId": 565,
        "contract": "contracts/Bomb.sol:Bomb",
        "label": "_totalSupply",
        "offset": 0,
        "slot": "2",
        "type": "t_uint256"
      },
      {
        "astId": 567,
        "contract": "contracts/Bomb.sol:Bomb",
        "label": "_name",
        "offset": 0,
        "slot": "3",
        "type": "t_string_storage"
      },
      {
        "astId": 569,
        "contract": "contracts/Bomb.sol:Bomb",
        "label": "_symbol",
        "offset": 0,
        "slot": "4",
        "type": "t_string_storage"
      },
      {
        "astId": 571,
        "contract": "contracts/Bomb.sol:Bomb",
        "label": "_decimals",
        "offset": 0,
        "slot": "5",
        "type": "t_uint8"
      },
      {
        "astId": 10,
        "contract": "contracts/Bomb.sol:Bomb",
        "label": "_owner",
        "offset": 1,
        "slot": "5",
        "type": "t_address"
      },
      {
        "astId": 13261,
        "contract": "contracts/Bomb.sol:Bomb",
        "label": "_operator",
        "offset": 0,
        "slot": "6",
        "type": "t_address"
      },
      {
        "astId": 3081,
        "contract": "contracts/Bomb.sol:Bomb",
        "label": "rewardPoolDistributed",
        "offset": 20,
        "slot": "6",
        "type": "t_bool"
      },
      {
        "astId": 3083,
        "contract": "contracts/Bomb.sol:Bomb",
        "label": "bombOracle",
        "offset": 0,
        "slot": "7",
        "type": "t_address"
      },
      {
        "astId": 3085,
        "contract": "contracts/Bomb.sol:Bomb",
        "label": "taxOffice",
        "offset": 0,
        "slot": "8",
        "type": "t_address"
      },
      {
        "astId": 3087,
        "contract": "contracts/Bomb.sol:Bomb",
        "label": "taxRate",
        "offset": 0,
        "slot": "9",
        "type": "t_uint256"
      },
      {
        "astId": 3090,
        "contract": "contracts/Bomb.sol:Bomb",
        "label": "burnThreshold",
        "offset": 0,
        "slot": "10",
        "type": "t_uint256"
      },
      {
        "astId": 3092,
        "contract": "contracts/Bomb.sol:Bomb",
        "label": "taxCollectorAddress",
        "offset": 0,
        "slot": "11",
        "type": "t_address"
      },
      {
        "astId": 3094,
        "contract": "contracts/Bomb.sol:Bomb",
        "label": "autoCalculateTax",
        "offset": 20,
        "slot": "11",
        "type": "t_bool"
      },
      {
        "astId": 3112,
        "contract": "contracts/Bomb.sol:Bomb",
        "label": "taxTiersTwaps",
        "offset": 0,
        "slot": "12",
        "type": "t_array(t_uint256)dyn_storage"
      },
      {
        "astId": 3130,
        "contract": "contracts/Bomb.sol:Bomb",
        "label": "taxTiersRates",
        "offset": 0,
        "slot": "13",
        "type": "t_array(t_uint256)dyn_storage"
      },
      {
        "astId": 3134,
        "contract": "contracts/Bomb.sol:Bomb",
        "label": "excludedAddresses",
        "offset": 0,
        "slot": "14",
        "type": "t_mapping(t_address,t_bool)"
      }
    ],
    "types": {
      "t_address": {
        "encoding": "inplace",
        "label": "address",
        "numberOfBytes": "20"
      },
      "t_array(t_uint256)dyn_storage": {
        "base": "t_uint256",
        "encoding": "dynamic_array",
        "label": "uint256[]",
        "numberOfBytes": "32"
      },
      "t_bool": {
        "encoding": "inplace",
        "label": "bool",
        "numberOfBytes": "1"
      },
      "t_mapping(t_address,t_bool)": {
        "encoding": "mapping",
        "key": "t_address",
        "label": "mapping(address => bool)",
        "numberOfBytes": "32",
        "value": "t_bool"
      },
      "t_mapping(t_address,t_mapping(t_address,t_uint256))": {
        "encoding": "mapping",
        "key": "t_address",
        "label": "mapping(address => mapping(address => uint256))",
        "numberOfBytes": "32",
        "value": "t_mapping(t_address,t_uint256)"
      },
      "t_mapping(t_address,t_uint256)": {
        "encoding": "mapping",
        "key": "t_address",
        "label": "mapping(address => uint256)",
        "numberOfBytes": "32",
        "value": "t_uint256"
      },
      "t_string_storage": {
        "encoding": "bytes",
        "label": "string",
        "numberOfBytes": "32"
      },
      "t_uint256": {
        "encoding": "inplace",
        "label": "uint256",
        "numberOfBytes": "32"
      },
      "t_uint8": {
        "encoding": "inplace",
        "label": "uint8",
        "numberOfBytes": "1"
      }
    }
  }
}