{
  "address": "0xbFBCf4d4e80b978409f9DbF31D662a73d3c2146b",
  "abi": [
    {
      "inputs": [
        {
          "internalType": "uint256",
          "name": "_startTime",
          "type": "uint256"
        },
        {
          "internalType": "address",
          "name": "_communityFund",
          "type": "address"
        },
        {
          "internalType": "address",
          "name": "_devFund",
          "type": "address"
        }
      ],
      "stateMutability": "nonpayable",
      "type": "constructor"
    },
    {
      "anonymous": false,
      "inputs": [
        {
          "indexed": true,
          "internalType": "address",
          "name": "owner",
          "type": "address"
        },
        {
          "indexed": true,
          "internalType": "address",
          "name": "spender",
          "type": "address"
        },
        {
          "indexed": false,
          "internalType": "uint256",
          "name": "value",
          "type": "uint256"
        }
      ],
      "name": "Approval",
      "type": "event"
    },
    {
      "anonymous": false,
      "inputs": [
        {
          "indexed": true,
          "internalType": "address",
          "name": "previousOperator",
          "type": "address"
        },
        {
          "indexed": true,
          "internalType": "address",
          "name": "newOperator",
          "type": "address"
        }
      ],
      "name": "OperatorTransferred",
      "type": "event"
    },
    {
      "anonymous": false,
      "inputs": [
        {
          "indexed": true,
          "internalType": "address",
          "name": "previousOwner",
          "type": "address"
        },
        {
          "indexed": true,
          "internalType": "address",
          "name": "newOwner",
          "type": "address"
        }
      ],
      "name": "OwnershipTransferred",
      "type": "event"
    },
    {
      "anonymous": false,
      "inputs": [
        {
          "indexed": true,
          "internalType": "address",
          "name": "from",
          "type": "address"
        },
        {
          "indexed": true,
          "internalType": "address",
          "name": "to",
          "type": "address"
        },
        {
          "indexed": false,
          "internalType": "uint256",
          "name": "value",
          "type": "uint256"
        }
      ],
      "name": "Transfer",
      "type": "event"
    },
    {
      "inputs": [],
      "name": "COMMUNITY_FUND_POOL_ALLOCATION",
      "outputs": [
        {
          "internalType": "uint256",
          "name": "",
          "type": "uint256"
        }
      ],
      "stateMutability": "view",
      "type": "function"
    },
    {
      "inputs": [],
      "name": "DEV_FUND_POOL_ALLOCATION",
      "outputs": [
        {
          "internalType": "uint256",
          "name": "",
          "type": "uint256"
        }
      ],
      "stateMutability": "view",
      "type": "function"
    },
    {
      "inputs": [],
      "name": "FARMING_POOL_REWARD_ALLOCATION",
      "outputs": [
        {
          "internalType": "uint256",
          "name": "",
          "type": "uint256"
        }
      ],
      "stateMutability": "view",
      "type": "function"
    },
    {
      "inputs": [],
      "name": "VESTING_DURATION",
      "outputs": [
        {
          "internalType": "uint256",
          "name": "",
          "type": "uint256"
        }
      ],
      "stateMutability": "view",
      "type": "function"
    },
    {
      "inputs": [
        {
          "internalType": "address",
          "name": "owner",
          "type": "address"
        },
        {
          "internalType": "address",
          "name": "spender",
          "type": "address"
        }
      ],
      "name": "allowance",
      "outputs": [
        {
          "internalType": "uint256",
          "name": "",
          "type": "uint256"
        }
      ],
      "stateMutability": "view",
      "type": "function"
    },
    {
      "inputs": [
        {
          "internalType": "address",
          "name": "spender",
          "type": "address"
        },
        {
          "internalType": "uint256",
          "name": "amount",
          "type": "uint256"
        }
      ],
      "name": "approve",
      "outputs": [
        {
          "internalType": "bool",
          "name": "",
          "type": "bool"
        }
      ],
      "stateMutability": "nonpayable",
      "type": "function"
    },
    {
      "inputs": [
        {
          "internalType": "address",
          "name": "account",
          "type": "address"
        }
      ],
      "name": "balanceOf",
      "outputs": [
        {
          "internalType": "uint256",
          "name": "",
          "type": "uint256"
        }
      ],
      "stateMutability": "view",
      "type": "function"
    },
    {
      "inputs": [
        {
          "internalType": "uint256",
          "name": "amount",
          "type": "uint256"
        }
      ],
      "name": "burn",
      "outputs": [],
      "stateMutability": "nonpayable",
      "type": "function"
    },
    {
      "inputs": [
        {
          "internalType": "address",
          "name": "account",
          "type": "address"
        },
        {
          "internalType": "uint256",
          "name": "amount",
          "type": "uint256"
        }
      ],
      "name": "burnFrom",
      "outputs": [],
      "stateMutability": "nonpayable",
      "type": "function"
    },
    {
      "inputs": [],
      "name": "claimRewards",
      "outputs": [],
      "stateMutability": "nonpayable",
      "type": "function"
    },
    {
      "inputs": [],
      "name": "communityFund",
      "outputs": [
        {
          "internalType": "address",
          "name": "",
          "type": "address"
        }
      ],
      "stateMutability": "view",
      "type": "function"
    },
    {
      "inputs": [],
      "name": "communityFundLastClaimed",
      "outputs": [
        {
          "internalType": "uint256",
          "name": "",
          "type": "uint256"
        }
      ],
      "stateMutability": "view",
      "type": "function"
    },
    {
      "inputs": [],
      "name": "communityFundRewardRate",
      "outputs": [
        {
          "internalType": "uint256",
          "name": "",
          "type": "uint256"
        }
      ],
      "stateMutability": "view",
      "type": "function"
    },
    {
      "inputs": [],
      "name": "decimals",
      "outputs": [
        {
          "internalType": "uint8",
          "name": "",
          "type": "uint8"
        }
      ],
      "stateMutability": "view",
      "type": "function"
    },
    {
      "inputs": [
        {
          "internalType": "address",
          "name": "spender",
          "type": "address"
        },
        {
          "internalType": "uint256",
          "name": "subtractedValue",
          "type": "uint256"
        }
      ],
      "name": "decreaseAllowance",
      "outputs": [
        {
          "internalType": "bool",
          "name": "",
          "type": "bool"
        }
      ],
      "stateMutability": "nonpayable",
      "type": "function"
    },
    {
      "inputs": [],
      "name": "devFund",
      "outputs": [
        {
          "internalType": "address",
          "name": "",
          "type": "address"
        }
      ],
      "stateMutability": "view",
      "type": "function"
    },
    {
      "inputs": [],
      "name": "devFundLastClaimed",
      "outputs": [
        {
          "internalType": "uint256",
          "name": "",
          "type": "uint256"
        }
      ],
      "stateMutability": "view",
      "type": "function"
    },
    {
      "inputs": [],
      "name": "devFundRewardRate",
      "outputs": [
        {
          "internalType": "uint256",
          "name": "",
          "type": "uint256"
        }
      ],
      "stateMutability": "view",
      "type": "function"
    },
    {
      "inputs": [
        {
          "internalType": "address",
          "name": "_farmingIncentiveFund",
          "type": "address"
        }
      ],
      "name": "distributeReward",
      "outputs": [],
      "stateMutability": "nonpayable",
      "type": "function"
    },
    {
      "inputs": [],
      "name": "endTime",
      "outputs": [
        {
          "internalType": "uint256",
          "name": "",
          "type": "uint256"
        }
      ],
      "stateMutability": "view",
      "type": "function"
    },
    {
      "inputs": [
        {
          "internalType": "contract IERC20",
          "name": "_token",
          "type": "address"
        },
        {
          "internalType": "uint256",
          "name": "_amount",
          "type": "uint256"
        },
        {
          "internalType": "address",
          "name": "_to",
          "type": "address"
        }
      ],
      "name": "governanceRecoverUnsupported",
      "outputs": [],
      "stateMutability": "nonpayable",
      "type": "function"
    },
    {
      "inputs": [
        {
          "internalType": "address",
          "name": "spender",
          "type": "address"
        },
        {
          "internalType": "uint256",
          "name": "addedValue",
          "type": "uint256"
        }
      ],
      "name": "increaseAllowance",
      "outputs": [
        {
          "internalType": "bool",
          "name": "",
          "type": "bool"
        }
      ],
      "stateMutability": "nonpayable",
      "type": "function"
    },
    {
      "inputs": [],
      "name": "isOperator",
      "outputs": [
        {
          "internalType": "bool",
          "name": "",
          "type": "bool"
        }
      ],
      "stateMutability": "view",
      "type": "function"
    },
    {
      "inputs": [],
      "name": "name",
      "outputs": [
        {
          "internalType": "string",
          "name": "",
          "type": "string"
        }
      ],
      "stateMutability": "view",
      "type": "function"
    },
    {
      "inputs": [],
      "name": "operator",
      "outputs": [
        {
          "internalType": "address",
          "name": "",
          "type": "address"
        }
      ],
      "stateMutability": "view",
      "type": "function"
    },
    {
      "inputs": [],
      "name": "owner",
      "outputs": [
        {
          "internalType": "address",
          "name": "",
          "type": "address"
        }
      ],
      "stateMutability": "view",
      "type": "function"
    },
    {
      "inputs": [],
      "name": "renounceOwnership",
      "outputs": [],
      "stateMutability": "nonpayable",
      "type": "function"
    },
    {
      "inputs": [],
      "name": "rewardPoolDistributed",
      "outputs": [
        {
          "internalType": "bool",
          "name": "",
          "type": "bool"
        }
      ],
      "stateMutability": "view",
      "type": "function"
    },
    {
      "inputs": [
        {
          "internalType": "address",
          "name": "_devFund",
          "type": "address"
        }
      ],
      "name": "setDevFund",
      "outputs": [],
      "stateMutability": "nonpayable",
      "type": "function"
    },
    {
      "inputs": [
        {
          "internalType": "address",
          "name": "_communityFund",
          "type": "address"
        }
      ],
      "name": "setTreasuryFund",
      "outputs": [],
      "stateMutability": "nonpayable",
      "type": "function"
    },
    {
      "inputs": [],
      "name": "startTime",
      "outputs": [
        {
          "internalType": "uint256",
          "name": "",
          "type": "uint256"
        }
      ],
      "stateMutability": "view",
      "type": "function"
    },
    {
      "inputs": [],
      "name": "symbol",
      "outputs": [
        {
          "internalType": "string",
          "name": "",
          "type": "string"
        }
      ],
      "stateMutability": "view",
      "type": "function"
    },
    {
      "inputs": [],
      "name": "totalSupply",
      "outputs": [
        {
          "internalType": "uint256",
          "name": "",
          "type": "uint256"
        }
      ],
      "stateMutability": "view",
      "type": "function"
    },
    {
      "inputs": [
        {
          "internalType": "address",
          "name": "recipient",
          "type": "address"
        },
        {
          "internalType": "uint256",
          "name": "amount",
          "type": "uint256"
        }
      ],
      "name": "transfer",
      "outputs": [
        {
          "internalType": "bool",
          "name": "",
          "type": "bool"
        }
      ],
      "stateMutability": "nonpayable",
      "type": "function"
    },
    {
      "inputs": [
        {
          "internalType": "address",
          "name": "sender",
          "type": "address"
        },
        {
          "internalType": "address",
          "name": "recipient",
          "type": "address"
        },
        {
          "internalType": "uint256",
          "name": "amount",
          "type": "uint256"
        }
      ],
      "name": "transferFrom",
      "outputs": [
        {
          "internalType": "bool",
          "name": "",
          "type": "bool"
        }
      ],
      "stateMutability": "nonpayable",
      "type": "function"
    },
    {
      "inputs": [
        {
          "internalType": "address",
          "name": "newOperator_",
          "type": "address"
        }
      ],
      "name": "transferOperator",
      "outputs": [],
      "stateMutability": "nonpayable",
      "type": "function"
    },
    {
      "inputs": [
        {
          "internalType": "address",
          "name": "newOwner",
          "type": "address"
        }
      ],
      "name": "transferOwnership",
      "outputs": [],
      "stateMutability": "nonpayable",
      "type": "function"
    },
    {
      "inputs": [],
      "name": "unclaimedDevFund",
      "outputs": [
        {
          "internalType": "uint256",
          "name": "_pending",
          "type": "uint256"
        }
      ],
      "stateMutability": "view",
      "type": "function"
    },
    {
      "inputs": [],
      "name": "unclaimedTreasuryFund",
      "outputs": [
        {
          "internalType": "uint256",
          "name": "_pending",
          "type": "uint256"
        }
      ],
      "stateMutability": "view",
      "type": "function"
    }
  ],
  "transactionHash": "0x91f6603a6d6da1e255d48fde53105b0d02e3532bc4fb22ca5375af855c5c239e",
  "args": [
    1638334800,
    "0x0D8e060CA2D847553ec14394ee6B304623E0d1d6",
    "0x0D8e060CA2D847553ec14394ee6B304623E0d1d6"
  ],
  "solcInputHash": "33ccf45895a5aea9533c3345c0cb85ca",
  "bytecode": "0x6080604052600f805460ff191690553480156200001b57600080fd5b5060405162001f3c38038062001f3c833981810160405260608110156200004157600080fd5b5080516020808301516040938401518451808601865260068082526542534841524560d01b8286018181528851808a019099529188529487019490945280519495929491939092916200009791600391620004b9565b508051620000ad906004906020840190620004b9565b50506005805460ff19166012179055506000620000c9620002d6565b60058054610100600160a81b0319166101006001600160a01b03841690810291909117909155604051919250906000907f8be0079c531659141344cd1fd0a4f28419497f9722a3daafe3b4186f6b6457e0908290a35062000129620002d6565b600680546001600160a01b0319166001600160a01b0392831617908190556040519116906000907f74da04524d50c64947f5dd5381ef1a4dca5cba8ed1d816243f9e48aa0b5617ed908290a36200018933670de0b6b3a7640000620002da565b60078390556301e13380808401600855600d849055600e849055620001c69069012a27d53bc04870000090620003e9602090811b620010ab17901c565b600955620001ef69010f0cf064dd592000006301e13380620003e9602090811b620010ab17901c565b600a556001600160a01b03811662000244576040805162461bcd60e51b81526020600482015260136024820152720416464726573732063616e6e6f74206265203606c1b604482015290519081900360640190fd5b600c80546001600160a01b0319166001600160a01b03838116919091179091558216620002ae576040805162461bcd60e51b81526020600482015260136024820152720416464726573732063616e6e6f74206265203606c1b604482015290519081900360640190fd5b50600b80546001600160a01b0319166001600160a01b03929092169190911790555062000555565b3390565b6001600160a01b03821662000336576040805162461bcd60e51b815260206004820152601f60248201527f45524332303a206d696e7420746f20746865207a65726f206164647265737300604482015290519081900360640190fd5b620003446000838362000452565b62000360816002546200045760201b620011121790919060201c565b6002556001600160a01b03821660009081526020818152604090912054620003939183906200111262000457821b17901c565b6001600160a01b0383166000818152602081815260408083209490945583518581529351929391927fddf252ad1be2c89b69c2b068fc378daa952ba7f163c4a11628f55a4df523b3ef9281900390910190a35050565b600080821162000440576040805162461bcd60e51b815260206004820152601a60248201527f536166654d6174683a206469766973696f6e206279207a65726f000000000000604482015290519081900360640190fd5b8183816200044a57fe5b049392505050565b505050565b600082820183811015620004b2576040805162461bcd60e51b815260206004820152601b60248201527f536166654d6174683a206164646974696f6e206f766572666c6f770000000000604482015290519081900360640190fd5b9392505050565b828054600181600116156101000203166002900490600052602060002090601f016020900481019282601f10620004fc57805160ff19168380011785556200052c565b828001600101855582156200052c579182015b828111156200052c5782518255916020019190600101906200050f565b506200053a9291506200053e565b5090565b5b808211156200053a57600081556001016200053f565b6119d780620005656000396000f3fe608060405234801561001057600080fd5b506004361061023c5760003560e01c806344cdc4541161013b57806395d89b41116100b8578063abb4b1be1161007c578063abb4b1be1461059f578063ae4db919146105a7578063dd62ed3e146105cd578063f2fde38b146105fb578063f746b718146106215761023c565b806395d89b411461052f5780639662676c14610537578063a06160fd1461053f578063a457c2d714610547578063a9059cbb146105735761023c565b806370a08231116100ff57806370a08231146104c5578063715018a6146104eb57806378e97925146104f357806379cc6790146104fb5780638da5cb5b146105275761023c565b806344cdc4541461046f5780634cfc4d30146104775780634f337dd51461047f57806354575af414610487578063570ca735146104bd5761023c565b80632c07a624116101c9578063395093511161018d578063395093511461040e5780633bba8eed1461043a57806342966c68146104425780634390d2a81461045f5780634456eda2146104675761023c565b80632c07a624146103d05780632e3367ce146103d8578063313ce567146103e05780633197cbb6146103fe578063372500ab146104065761023c565b8063095ea7b311610210578063095ea7b314610324578063177647821461036457806318160ddd1461036c57806323b872dd1461037457806329605e77146103aa5761023c565b8062f380f414610241578063040173151461026557806306fdde031461027f578063092193ab146102fc575b600080fd5b610249610647565b604080516001600160a01b039092168252519081900360200190f35b61026d610656565b60408051918252519081900360200190f35b61028761065c565b6040805160208082528351818301528351919283929083019185019080838360005b838110156102c15781810151838201526020016102a9565b50505050905090810190601f1680156102ee5780820380516001836020036101000a031916815260200191505b509250505060405180910390f35b6103226004803603602081101561031257600080fd5b50356001600160a01b03166106f3565b005b6103506004803603604081101561033a57600080fd5b506001600160a01b03813516906020013561080c565b604080519115158252519081900360200190f35b61026d61082a565b61026d610878565b6103506004803603606081101561038a57600080fd5b506001600160a01b0381358116916020810135909116906040013561087e565b610322600480360360208110156103c057600080fd5b50356001600160a01b0316610905565b61026d610982565b61026d6109c4565b6103e86109ca565b6040805160ff9092168252519081900360200190f35b61026d6109d3565b6103226109d9565b6103506004803603604081101561042457600080fd5b506001600160a01b038135169060200135610a65565b61026d610ab3565b6103226004803603602081101561045857600080fd5b5035610ac1565b610249610aca565b610350610ad9565b61026d610aff565b61026d610b05565b61026d610b0d565b6103226004803603606081101561049d57600080fd5b506001600160a01b03813581169160208101359160409091013516610b1b565b610249610bec565b61026d600480360360208110156104db57600080fd5b50356001600160a01b0316610bfb565b610322610c16565b61026d610cda565b6103226004803603604081101561051157600080fd5b506001600160a01b038135169060200135610ce0565b610249610d3a565b610287610d4e565b610350610daf565b61026d610db8565b6103506004803603604081101561055d57600080fd5b506001600160a01b038135169060200135610dc6565b6103506004803603604081101561058957600080fd5b506001600160a01b038135169060200135610e2e565b61026d610e42565b610322600480360360208110156105bd57600080fd5b50356001600160a01b0316610e48565b61026d600480360360408110156105e357600080fd5b506001600160a01b0381358116916020013516610ef6565b6103226004803603602081101561061157600080fd5b50356001600160a01b0316610f21565b6103226004803603602081101561063757600080fd5b50356001600160a01b0316611041565b600b546001600160a01b031681565b600e5481565b60038054604080516020601f60026000196101006001881615020190951694909404938401819004810282018101909252828152606093909290918301828280156106e85780601f106106bd576101008083540402835291602001916106e8565b820191906000526020600020905b8154815290600101906020018083116106cb57829003601f168201915b505050505090505b90565b6006546001600160a01b0316331461073c5760405162461bcd60e51b81526004018080602001828103825260248152602001806118ef6024913960400191505060405180910390fd5b600f5460ff1615610794576040805162461bcd60e51b815260206004820152601860248201527f6f6e6c792063616e2064697374726962757465206f6e63650000000000000000604482015290519081900360640190fd5b6001600160a01b0381166107e8576040805162461bcd60e51b81526020600482015260166024820152750857d9985c9b5a5b99d25b98d95b9d1a5d99519d5b9960521b604482015290519081900360640190fd5b600f805460ff1916600117905561080981690c99805fe37d3e300000611173565b50565b6000610820610819611263565b8484611267565b5060015b92915050565b600854600090429081111561083e57506008545b80600d54106108515760009150506106f0565b61087260095461086c600d548461135390919063ffffffff16565b906113b0565b91505090565b60025490565b600061088b848484611409565b6108fb84610897611263565b6108f6856040518060600160405280602881526020016118a3602891396001600160a01b038a166000908152600160205260408120906108d5611263565b6001600160a01b031681526020810191909152604001600020549190611564565b611267565b5060019392505050565b61090d611263565b6001600160a01b031661091e610d3a565b6001600160a01b031614610979576040805162461bcd60e51b815260206004820181905260248201527f4f776e61626c653a2063616c6c6572206973206e6f7420746865206f776e6572604482015290519081900360640190fd5b610809816115fb565b600854600090429081111561099657506008545b80600e54106109a95760009150506106f0565b610872600a5461086c600e548461135390919063ffffffff16565b600a5481565b60055460ff1690565b60085481565b60006109e361082a565b90506000811180156109ff5750600b546001600160a01b031615155b15610a1f57600b54610a1a906001600160a01b031682611173565b42600d555b610a27610982565b9050600081118015610a435750600c546001600160a01b031615155b1561080957600c54610a5e906001600160a01b031682611173565b42600e5550565b6000610820610a72611263565b846108f68560016000610a83611263565b6001600160a01b03908116825260208083019390935260409182016000908120918c168152925290205490611112565b69012a27d53bc04870000081565b61080981611698565b600c546001600160a01b031681565b6006546000906001600160a01b0316610af0611263565b6001600160a01b031614905090565b60095481565b6301e1338081565b69010f0cf064dd5920000081565b6006546001600160a01b03163314610b645760405162461bcd60e51b81526004018080602001828103825260248152602001806118ef6024913960400191505060405180910390fd5b826001600160a01b031663a9059cbb82846040518363ffffffff1660e01b815260040180836001600160a01b0316815260200182815260200192505050602060405180830381600087803b158015610bbb57600080fd5b505af1158015610bcf573d6000803e3d6000fd5b505050506040513d6020811015610be557600080fd5b5050505050565b6006546001600160a01b031690565b6001600160a01b031660009081526020819052604090205490565b610c1e611263565b6001600160a01b0316610c2f610d3a565b6001600160a01b031614610c8a576040805162461bcd60e51b815260206004820181905260248201527f4f776e61626c653a2063616c6c6572206973206e6f7420746865206f776e6572604482015290519081900360640190fd5b60055460405160009161010090046001600160a01b0316907f8be0079c531659141344cd1fd0a4f28419497f9722a3daafe3b4186f6b6457e0908390a360058054610100600160a81b0319169055565b60075481565b6000610d17826040518060600160405280602481526020016118cb60249139610d1086610d0b611263565b610ef6565b9190611564565b9050610d2b83610d25611263565b83611267565b610d3583836116a5565b505050565b60055461010090046001600160a01b031690565b60048054604080516020601f60026000196101006001881615020190951694909404938401819004810282018101909252828152606093909290918301828280156106e85780601f106106bd576101008083540402835291602001916106e8565b600f5460ff1681565b690c99805fe37d3e30000081565b6000610820610dd3611263565b846108f68560405180606001604052806025815260200161197d6025913960016000610dfd611263565b6001600160a01b03908116825260208083019390935260409182016000908120918d16815292529020549190611564565b6000610820610e3b611263565b8484611409565b600d5481565b600c546001600160a01b03163314610e90576040805162461bcd60e51b8152602060048083019190915260248201526310b232bb60e11b604482015290519081900360640190fd5b6001600160a01b038116610ed4576040805162461bcd60e51b815260206004808301919091526024820152637a65726f60e01b604482015290519081900360640190fd5b600c80546001600160a01b0319166001600160a01b0392909216919091179055565b6001600160a01b03918216600090815260016020908152604080832093909416825291909152205490565b610f29611263565b6001600160a01b0316610f3a610d3a565b6001600160a01b031614610f95576040805162461bcd60e51b815260206004820181905260248201527f4f776e61626c653a2063616c6c6572206973206e6f7420746865206f776e6572604482015290519081900360640190fd5b6001600160a01b038116610fda5760405162461bcd60e51b81526004018080602001828103825260268152602001806117e76026913960400191505060405180910390fd5b6005546040516001600160a01b0380841692610100900416907f8be0079c531659141344cd1fd0a4f28419497f9722a3daafe3b4186f6b6457e090600090a3600580546001600160a01b0390921661010002610100600160a81b0319909216919091179055565b600c546001600160a01b03163314611089576040805162461bcd60e51b8152602060048083019190915260248201526310b232bb60e11b604482015290519081900360640190fd5b600b80546001600160a01b0319166001600160a01b0392909216919091179055565b6000808211611101576040805162461bcd60e51b815260206004820152601a60248201527f536166654d6174683a206469766973696f6e206279207a65726f000000000000604482015290519081900360640190fd5b81838161110a57fe5b049392505050565b60008282018381101561116c576040805162461bcd60e51b815260206004820152601b60248201527f536166654d6174683a206164646974696f6e206f766572666c6f770000000000604482015290519081900360640190fd5b9392505050565b6001600160a01b0382166111ce576040805162461bcd60e51b815260206004820152601f60248201527f45524332303a206d696e7420746f20746865207a65726f206164647265737300604482015290519081900360640190fd5b6111da60008383610d35565b6002546111e79082611112565b6002556001600160a01b03821660009081526020819052604090205461120d9082611112565b6001600160a01b0383166000818152602081815260408083209490945583518581529351929391927fddf252ad1be2c89b69c2b068fc378daa952ba7f163c4a11628f55a4df523b3ef9281900390910190a35050565b3390565b6001600160a01b0383166112ac5760405162461bcd60e51b81526004018080602001828103825260248152602001806119596024913960400191505060405180910390fd5b6001600160a01b0382166112f15760405162461bcd60e51b815260040180806020018281038252602281526020018061180d6022913960400191505060405180910390fd5b6001600160a01b03808416600081815260016020908152604080832094871680845294825291829020859055815185815291517f8c5be1e5ebec7d5bd14f71427d1e84f3dd0314c0f7b2291e5b200ac8c7c3b9259281900390910190a3505050565b6000828211156113aa576040805162461bcd60e51b815260206004820152601e60248201527f536166654d6174683a207375627472616374696f6e206f766572666c6f770000604482015290519081900360640190fd5b50900390565b6000826113bf57506000610824565b828202828482816113cc57fe5b041461116c5760405162461bcd60e51b81526004018080602001828103825260218152602001806118826021913960400191505060405180910390fd5b6001600160a01b03831661144e5760405162461bcd60e51b81526004018080602001828103825260258152602001806119346025913960400191505060405180910390fd5b6001600160a01b0382166114935760405162461bcd60e51b81526004018080602001828103825260238152602001806117a26023913960400191505060405180910390fd5b61149e838383610d35565b6114db8160405180606001604052806026815260200161182f602691396001600160a01b0386166000908152602081905260409020549190611564565b6001600160a01b03808516600090815260208190526040808220939093559084168152205461150a9082611112565b6001600160a01b038084166000818152602081815260409182902094909455805185815290519193928716927fddf252ad1be2c89b69c2b068fc378daa952ba7f163c4a11628f55a4df523b3ef92918290030190a3505050565b600081848411156115f35760405162461bcd60e51b81526004018080602001828103825283818151815260200191508051906020019080838360005b838110156115b85781810151838201526020016115a0565b50505050905090810190601f1680156115e55780820380516001836020036101000a031916815260200191505b509250505060405180910390fd5b505050900390565b6001600160a01b0381166116405760405162461bcd60e51b815260040180806020018281038252602d815260200180611855602d913960400191505060405180910390fd5b6040516001600160a01b038216906000907f74da04524d50c64947f5dd5381ef1a4dca5cba8ed1d816243f9e48aa0b5617ed908290a3600680546001600160a01b0319166001600160a01b0392909216919091179055565b6108096116a3611263565b825b6001600160a01b0382166116ea5760405162461bcd60e51b81526004018080602001828103825260218152602001806119136021913960400191505060405180910390fd5b6116f682600083610d35565b611733816040518060600160405280602281526020016117c5602291396001600160a01b0385166000908152602081905260409020549190611564565b6001600160a01b0383166000908152602081905260409020556002546117599082611353565b6002556040805182815290516000916001600160a01b038516917fddf252ad1be2c89b69c2b068fc378daa952ba7f163c4a11628f55a4df523b3ef9181900360200190a3505056fe45524332303a207472616e7366657220746f20746865207a65726f206164647265737345524332303a206275726e20616d6f756e7420657863656564732062616c616e63654f776e61626c653a206e6577206f776e657220697320746865207a65726f206164647265737345524332303a20617070726f766520746f20746865207a65726f206164647265737345524332303a207472616e7366657220616d6f756e7420657863656564732062616c616e63656f70657261746f723a207a65726f206164647265737320676976656e20666f72206e6577206f70657261746f72536166654d6174683a206d756c7469706c69636174696f6e206f766572666c6f7745524332303a207472616e7366657220616d6f756e74206578636565647320616c6c6f77616e636545524332303a206275726e20616d6f756e74206578636565647320616c6c6f77616e63656f70657261746f723a2063616c6c6572206973206e6f7420746865206f70657261746f7245524332303a206275726e2066726f6d20746865207a65726f206164647265737345524332303a207472616e736665722066726f6d20746865207a65726f206164647265737345524332303a20617070726f76652066726f6d20746865207a65726f206164647265737345524332303a2064656372656173656420616c6c6f77616e63652062656c6f77207a65726fa2646970667358221220beb06bf4cfa3d071526c20f88efcb4f2140c74c655e2ef63568b90721328dc0a64736f6c634300060c0033",
  "devdoc": {
    "kind": "dev",
    "methods": {
      "allowance(address,address)": {
        "details": "See {IERC20-allowance}."
      },
      "approve(address,uint256)": {
        "details": "See {IERC20-approve}. Requirements: - `spender` cannot be the zero address."
      },
      "balanceOf(address)": {
        "details": "See {IERC20-balanceOf}."
      },
      "burn(uint256)": {
        "details": "Destroys `amount` tokens from the caller. See {ERC20-_burn}."
      },
      "burnFrom(address,uint256)": {
        "details": "Destroys `amount` tokens from `account`, deducting from the caller's allowance. See {ERC20-_burn} and {ERC20-allowance}. Requirements: - the caller must have allowance for ``accounts``'s tokens of at least `amount`."
      },
      "claimRewards()": {
        "details": "Claim pending rewards to community and dev fund"
      },
      "decimals()": {
        "details": "Returns the number of decimals used to get its user representation. For example, if `decimals` equals `2`, a balance of `505` tokens should be displayed to a user as `5,05` (`505 / 10 ** 2`). Tokens usually opt for a value of 18, imitating the relationship between Ether and Wei. This is the value {ERC20} uses, unless {_setupDecimals} is called. NOTE: This information is only used for _display_ purposes: it in no way affects any of the arithmetic of the contract, including {IERC20-balanceOf} and {IERC20-transfer}."
      },
      "decreaseAllowance(address,uint256)": {
        "details": "Atomically decreases the allowance granted to `spender` by the caller. This is an alternative to {approve} that can be used as a mitigation for problems described in {IERC20-approve}. Emits an {Approval} event indicating the updated allowance. Requirements: - `spender` cannot be the zero address. - `spender` must have allowance for the caller of at least `subtractedValue`."
      },
      "increaseAllowance(address,uint256)": {
        "details": "Atomically increases the allowance granted to `spender` by the caller. This is an alternative to {approve} that can be used as a mitigation for problems described in {IERC20-approve}. Emits an {Approval} event indicating the updated allowance. Requirements: - `spender` cannot be the zero address."
      },
      "name()": {
        "details": "Returns the name of the token."
      },
      "owner()": {
        "details": "Returns the address of the current owner."
      },
      "renounceOwnership()": {
        "details": "Leaves the contract without owner. It will not be possible to call `onlyOwner` functions anymore. Can only be called by the current owner. NOTE: Renouncing ownership will leave the contract without an owner, thereby removing any functionality that is only available to the owner."
      },
      "symbol()": {
        "details": "Returns the symbol of the token, usually a shorter version of the name."
      },
      "totalSupply()": {
        "details": "See {IERC20-totalSupply}."
      },
      "transfer(address,uint256)": {
        "details": "See {IERC20-transfer}. Requirements: - `recipient` cannot be the zero address. - the caller must have a balance of at least `amount`."
      },
      "transferFrom(address,address,uint256)": {
        "details": "See {IERC20-transferFrom}. Emits an {Approval} event indicating the updated allowance. This is not required by the EIP. See the note at the beginning of {ERC20}. Requirements: - `sender` and `recipient` cannot be the zero address. - `sender` must have a balance of at least `amount`. - the caller must have allowance for ``sender``'s tokens of at least `amount`."
      },
      "transferOwnership(address)": {
        "details": "Transfers ownership of the contract to a new account (`newOwner`). Can only be called by the current owner."
      }
    },
    "version": 1
  },
  "userdoc": {
    "kind": "user",
    "methods": {
      "distributeReward(address)": {
        "notice": "distribute to reward pool (only once)"
      }
    },
    "version": 1
  },
  "storageLayout": {
    "storage": [
      {
        "astId": 557,
        "contract": "contracts/BShare.sol:BShare",
        "label": "_balances",
        "offset": 0,
        "slot": "0",
        "type": "t_mapping(t_address,t_uint256)"
      },
      {
        "astId": 563,
        "contract": "contracts/BShare.sol:BShare",
        "label": "_allowances",
        "offset": 0,
        "slot": "1",
        "type": "t_mapping(t_address,t_mapping(t_address,t_uint256))"
      },
      {
        "astId": 565,
        "contract": "contracts/BShare.sol:BShare",
        "label": "_totalSupply",
        "offset": 0,
        "slot": "2",
        "type": "t_uint256"
      },
      {
        "astId": 567,
        "contract": "contracts/BShare.sol:BShare",
        "label": "_name",
        "offset": 0,
        "slot": "3",
        "type": "t_string_storage"
      },
      {
        "astId": 569,
        "contract": "contracts/BShare.sol:BShare",
        "label": "_symbol",
        "offset": 0,
        "slot": "4",
        "type": "t_string_storage"
      },
      {
        "astId": 571,
        "contract": "contracts/BShare.sol:BShare",
        "label": "_decimals",
        "offset": 0,
        "slot": "5",
        "type": "t_uint8"
      },
      {
        "astId": 10,
        "contract": "contracts/BShare.sol:BShare",
        "label": "_owner",
        "offset": 1,
        "slot": "5",
        "type": "t_address"
      },
      {
        "astId": 13261,
        "contract": "contracts/BShare.sol:BShare",
        "label": "_operator",
        "offset": 0,
        "slot": "6",
        "type": "t_address"
      },
      {
        "astId": 1861,
        "contract": "contracts/BShare.sol:BShare",
        "label": "startTime",
        "offset": 0,
        "slot": "7",
        "type": "t_uint256"
      },
      {
        "astId": 1863,
        "contract": "contracts/BShare.sol:BShare",
        "label": "endTime",
        "offset": 0,
        "slot": "8",
        "type": "t_uint256"
      },
      {
        "astId": 1865,
        "contract": "contracts/BShare.sol:BShare",
        "label": "communityFundRewardRate",
        "offset": 0,
        "slot": "9",
        "type": "t_uint256"
      },
      {
        "astId": 1867,
        "contract": "contracts/BShare.sol:BShare",
        "label": "devFundRewardRate",
        "offset": 0,
        "slot": "10",
        "type": "t_uint256"
      },
      {
        "astId": 1869,
        "contract": "contracts/BShare.sol:BShare",
        "label": "communityFund",
        "offset": 0,
        "slot": "11",
        "type": "t_address"
      },
      {
        "astId": 1871,
        "contract": "contracts/BShare.sol:BShare",
        "label": "devFund",
        "offset": 0,
        "slot": "12",
        "type": "t_address"
      },
      {
        "astId": 1873,
        "contract": "contracts/BShare.sol:BShare",
        "label": "communityFundLastClaimed",
        "offset": 0,
        "slot": "13",
        "type": "t_uint256"
      },
      {
        "astId": 1875,
        "contract": "contracts/BShare.sol:BShare",
        "label": "devFundLastClaimed",
        "offset": 0,
        "slot": "14",
        "type": "t_uint256"
      },
      {
        "astId": 1878,
        "contract": "contracts/BShare.sol:BShare",
        "label": "rewardPoolDistributed",
        "offset": 0,
        "slot": "15",
        "type": "t_bool"
      }
    ],
    "types": {
      "t_address": {
        "encoding": "inplace",
        "label": "address",
        "numberOfBytes": "20"
      },
      "t_bool": {
        "encoding": "inplace",
        "label": "bool",
        "numberOfBytes": "1"
      },
      "t_mapping(t_address,t_mapping(t_address,t_uint256))": {
        "encoding": "mapping",
        "key": "t_address",
        "label": "mapping(address => mapping(address => uint256))",
        "numberOfBytes": "32",
        "value": "t_mapping(t_address,t_uint256)"
      },
      "t_mapping(t_address,t_uint256)": {
        "encoding": "mapping",
        "key": "t_address",
        "label": "mapping(address => uint256)",
        "numberOfBytes": "32",
        "value": "t_uint256"
      },
      "t_string_storage": {
        "encoding": "bytes",
        "label": "string",
        "numberOfBytes": "32"
      },
      "t_uint256": {
        "encoding": "inplace",
        "label": "uint256",
        "numberOfBytes": "32"
      },
      "t_uint8": {
        "encoding": "inplace",
        "label": "uint8",
        "numberOfBytes": "1"
      }
    }
  }
}